:020000040800F2
:10000000008A0020AD0100089D690008C94A000867
:10001000116600081915000841840008000000005E
:10002000000000000000000000000000197200083D
:100030001F1C000800000000B16A0008B17500082C
:10004000C7010008C7010008C7010008C701000870
:10005000C7010008C7010008191D00082D1D000870
:10006000C7010008411D0008C7010008C7010008BA
:10007000C7010008C7010008C7010008C701000840
:10008000C7010008C7010008950A00080000000029
:10009000000000000000000000000000551D0008E6
:1000A000C7010008C7010008C7010008C701000810
:1000B000C7010008C701000859770008C7010008F8
:1000C000C7010008C7010008C7010008C7010008F0
:1000D000C701000821840008C701000800000000D3
:1000E000C7010008C7010008C701000800000000A0
:1000F000000000000000000000000000C701000830
:1001000000000000C7010008C7010008C70100087F
:1001100000000000000000000000000000000000DF
:10012000DD1A0008C7010008C7010008C701000860
:10013000C7010008000000000000000000000000EF
:10014000000000000000000000000000C7010008DF
:10015000C7010008ED1A0008FD1A000831840008E4
:10016000C7010008C70100080000000000000000EF
:10017000000000000000000000000000000000007F
:1001800000000000C701000800000000000000009F
:10019000C7010008C7010008DFF80CD000F088FB99
:1001A00000480047C9910008008A0020064880479F
:1001B00006480047FEE7FEE7FEE7FEE7FEE7FEE74C
:1001C000FEE7FEE7FEE7FEE7F57600089901000886
:1001D0002DE9F05F0546002092469B46884606467C
:1001E000814640241BE0284641464746224600F00F
:1001F00020F853465A46C01A914110D3114618466A
:10020000224600F038FA2D1A67EB01084F462246C5
:100210000120002100F02FFA17EB00094E41201EAB
:10022000A4F10104DFDC484631462A464346BDE8D6
:10023000F09F202A04DB203A21FA02F000217047C7
:1002400021FA02F3D040C2F120029140084319463E
:100250007047D2B201E000F8012B491EFBD2704773
:100260000022F6E710B513460A4604461946FFF782
:10027000F0FF204610BD421C10F8011B0029FBD1E5
:10028000801A704710B5002200E0521C835C8C5C21
:10029000A34201D1002BF8D1D8B2E1B2401A10BD6F
:1002A00070B5064608F0FEF8046805460A220021EB
:1002B000304600F001FA2C6070BD2DE9FE4F8046FB
:1002C00081EA0300C00F0C46009021F0004123F0AA
:1002D0000045B8EB0200A94105D2404621469046B0
:1002E0001C460B46024623F00040104347D0270D22
:1002F000C7F30A00C3F30A510290401A0190402844
:100300006BDAC3F3130040F4801B0098924620B1CF
:100310000023D2EB030A63EB0B0B01985946C0F1A3
:100320004002504600F0A7F906460D465046594691
:10033000019A00F0AFF910EB08006141002487EA50
:10034000115284EAE7731A4340D0009A62B3019ACB
:10035000012A4FEA075215DC001B61EB02014FF046
:10036000004202EA0752CDE90042001C41F580112B
:1003700032462B4600F01EFA03B0BDE8F08F40462F
:100380002146F9E7001B61EB0201001C41F58013D7
:1003900000185B412018A2F5001747EB030140EA63
:1003A000D570B6196D4111E06D084FEA360645EA81
:1003B000C0754FEA0752001B61EB0201001C41F5BA
:1003C000801149084FEA30000019514132462B464E
:1003D00003B0BDE8F04F00F0DEB900980122400004
:1003E0000023D0EB020263EBE073009821464FEA52
:1003F000E074B8EB000061EB0401E9E783F000432F
:100400005BE781F0004158E72DE9FE4F81EA0304E4
:1004100004F0004421F0004100944FF0000B23F061
:10042000004350EA01045ED052EA03045BD0C3F3F8
:100430000A54C1F30A552C44A4F2F3340194A0FBEE
:100440000254C1F3130141F48011C3F3130343F4C5
:10045000801301FB024400FB034E840A970A44EA1E
:10046000815447EA8357A4FB076802958D0A05FB70
:1004700007854FEA932C04FB0C542705029D4FEA95
:10048000065847EA1637B5EB08056EEB070C870EE2
:10049000920E47EA811742EA8312A7FB0201B6EBEC
:1004A0000B0164EB00042B0D43EA0C335E1844EBA4
:1004B0001C50DA465146E7FB0201C5F313044FEA2C
:1004C0000B3343EA14534FEA0432019C43EA060318
:1004D000A4F10C040294009CCDE900B400F06AF988
:1004E00003B0BDE8F08F00200146F9E72DE9F04D9B
:1004F00081EA030404F0004B21F0004514464FF05C
:10050000000A23F0004150EA050220D054EA01021B
:100510001DD0C5F30A570246C5F31303C1F31300F8
:10052000C1F30A5640F4801543F48013A7EB060884
:10053000101BD64608F2FD3873EB050002D308F114
:10054000010801E092185B41B8F1000F03DA0020C6
:100550000146BDE8F08D00204FF480110646844628
:100560000EE0171B73EB050705D3121B63EB0503A6
:1005700006434CEA010C49084FEA300092185B41EF
:1005800050EA0107EDD152EA030012D082EA0400DA
:1005900083EA0501084305D0101BAB4106D20122B6
:1005A000002306E000224FF0004302E06FF001025A
:1005B00053101AEB06004CEB085110EB0A0041EB0C
:1005C0000B01BDE8F04D00F0E6B80EB5C10F80EAB2
:1005D000E0700844CA07002140F233438DE80E0062
:1005E0000A460B4600F0E6F803B000BD00F00042FA
:1005F00030F000400AD0C10D01F56071C0F3160063
:1006000042EA0151C20840071143704700200146E9
:10061000704701F0004330B421F0004150EA01027C
:1006200006D00A0DA2F56072C1F31301002A02DCA4
:1006300030BC00207047440F44EAC104C100E018F8
:1006400030BC00EBC25000F06FB830B50B4601462D
:1006500000202022012409E021FA02F59D4205D361
:1006600003FA02F5491B04FA02F52844151EA2F10B
:100670000102F1DC30BD202A04DB203A00FA02F14D
:10068000002070479140C2F1200320FA03F3194380
:1006900090407047202A06DBCB17203A41FA02F03F
:1006A00043EAE07306E041FA02F3D040C2F12002CF
:1006B00091400843194670472DE9F04791460F468F
:1006C00080460446002614F8015B2DB100F002F9C3
:1006D0000068405DC007F6D12B2D02D02D2D18D01B
:1006E000641E4A463946204600F0F8F827B13968BA
:1006F000A14201D1C7F8008071054FF002040BD56B
:100700004042002803DD07F0CDFE0460A007BDE8ED
:10071000F08746F48066E4E70028F8DA07F0C2FEC6
:1007200004606FF00040F2E70029A8BF7047401C4A
:10073000490008BF20F00100704710B4B0FA80FCF7
:1007400000FA0CF050EA010404BF10BC704749B134
:10075000CCF1200421FA04F411FA0CF118BF0121A4
:1007600021430843A3EB0C01CB1D4FEA00614FEA84
:10077000102042BF002010BC704700EBC350104453
:100780000029A4BF10BC7047401C490008BF20F0DE
:10079000010010BC704710B5141E73F1000408DA94
:1007A000401C41F1000192185B411A4301D120F035
:1007B000010010BD2DE9F04D92469B4611B1B1FAF2
:1007C00081F202E0B0FA80F220329046FFF753FF48
:1007D00004460F4640EA0A0041EA0B0153465A46D6
:1007E000084313D0114653EA010019D0C8F1400262
:1007F0005046FFF71EFD05460E46504659464246F6
:10080000FFF739FF084305D0012004E020463946B0
:10081000BDE8F08D0020054346EAE0762C433743DF
:100820000A986305E40AA0EB08000022FD0A44EAE6
:1008300047540A3002D500200146E9E701051019A6
:100840006941DDE9084500196941BDE8F04DA2E7BD
:10085000C1F30A52C1F3130140F2FF3341F4801196
:100860009A4202DA00200146704740F233439A422E
:10087000A2F2334202DC5242FFF7DBBCFFF7FBBEC1
:1008800030B5041E71F1000404DB4FF00044404217
:1008900064EB0101141E73F1000405DB1C464FF0EC
:1008A0000043524263EB0403994208BF904230BDBB
:1008B000064C074D06E0E06840F0010394E80700AD
:1008C00098471034AC42F6D3FFF76AFC00A000084A
:1008D00020A0000800487047B49F00082DE9F05F91
:1008E00082460078002715468B460AF10104B94676
:1008F000302801D09DB113E014F8010B01277828AE
:1009000003D0582801D045B10AE00DB1102D07D110
:100910000027102514F8010B02E0082500E00A2545
:100920000026B0460EE005FB080005FB06F1012796
:1009300001EB10461FFA80F8B6F5803F00D3B946A8
:1009400014F8010B294600F018F80028EBDABBF187
:10095000000F05D00FB1641E00E05446CBF80040F4
:10096000B9F1000F06D007F09DFD02210160C81EFD
:10097000BDE8F09F48EA0640FAE73A2800D230384E
:1009800020F02002412A01D3A2F13700884201D38E
:100990004FF0FF30704770B58C1810F8015B15F000
:1009A000070301D110F8013B2A1106D110F8012BE1
:1009B00003E010F8016B01F8016B5B1EF9D12B0706
:1009C00005D40023521E0DD401F8013BFAE710F8BC
:1009D000013BCB1A921C03E013F8015B01F8015BA9
:1009E000521EF9D5A142D8D3002070BD70B505467E
:1009F000AC6B206C00F0500050BB206C40F40070D9
:100A000020642068806800F04050E8B9207ED8B9A2
:100A10002068C06A00F4700020B12068806800F48B
:100A2000806088B92068406820F020002168486014
:100A3000206C20F480702064206C00F4805018B981
:100A4000206C40F001002064204601F02BFD0BE0FB
:100A5000206C00F0100018B1204601F02CFD03E0DE
:100A6000A06BC16C2846884770BD70B50546AC6B5D
:100A700040202064606C40F004006064204601F077
:100A80001AFD70BD70B50446A56B284601F012FD35
:100A900070BD000010B5034801F00EFD01200249B1
:100AA000087010BD780100209D00002055494A685B
:100AB00022F440324A604A6843681A434A60026836
:100AC000526822F4807203685A60026853680269AF
:100AD00043EA022203685A600268526822F04072B8
:100AE00003685A600268526883681A4303685A6050
:100AF0000268926822F4006203689A600268926851
:100B0000C3681A4303689A603F4B826A9A4218D0BE
:100B10000268926822F0706203689A6002689268C4
:100B2000836A1A4303689A600268926822F040520E
:100B300003689A6002689268C36A1A4303689A60FD
:100B40000BE00268926822F0706203689A600268A3
:100B5000926822F0405203689A600268926822F01C
:100B6000020203689A6002689368027E43EA4202C6
:100B700003689A602022125CA2B10268526842F4B3
:100B8000006203685A600268526822F46042036897
:100B90005A6002685368426A521E43EA423203684E
:100BA0005A6005E00268526822F4006203685A60E5
:100BB0000268D26A22F470020368DA620268D36AB9
:100BC000828B521E43EA02520368DA62026892681C
:100BD00022F4007203689A600268936890F83020EB
:100BE00043EA422203689A600268926822F48062B3
:100BF00003689A6002689368426943EA8222036844
:100C00009A607047002301400100000F10B52DEDE0
:100C1000088B0020FE490860FE48008800EE100A9C
:100C2000B8EE400A10EE101A0846FFF7DFFC41EC60
:100C30001B0B9FEDF90B53EC102BFFF7E5FB41EC81
:100C40001A0B9FEDF70B53EC102BFFF74FFC41EC09
:100C5000190B9FEDF50B53EC102BFFF7D5FB41EC77
:100C6000180BFFF7D6FCF2490860EA48408800EE0E
:100C7000100AB8EE400A10EE101A0846FFF7B6FC4C
:100C800041EC1B0B9FEDE40B53EC102BFFF7BCFB6F
:100C900041EC1A0B9FEDE20B53EC102BFFF726FCF7
:100CA00041EC190B9FEDE00B53EC102BFFF7ACFB65
:100CB00041EC180BFFF7ADFCDD494860D548808852
:100CC00000EE100AB8EE400A10EE101A0846FFF7C0
:100CD0008DFC41EC1B0B9FEDD00B53EC102BFFF761
:100CE00093FB41EC1A0B9FEDD30B53EC102BFFF74A
:100CF0008BFB41EC190B9FEDCA0B53EC102BFFF74C
:100D0000F5FB41EC180BFFF784FCC9498860C1482A
:100D1000C08800EE100AB8EE400A10EE101A08461D
:100D2000FFF764FC41EC1B0B9FEDBB0B53EC102B4E
:100D3000FFF76AFB41EC1A0B9FEDB90B53EC102B3C
:100D4000FFF7D4FB41EC190B9FEDB70B53EC102BC5
:100D5000FFF75AFB41EC180BFFF75BFCB449C86086
:100D6000AC48008900EE100AB8EE400A10EE101AE6
:100D70000846FFF73BFC41EC1A0B9FEDA70B53EC29
:100D8000102BFFF741FB41EC190B9FEDA50B53EC2A
:100D9000102BFFF7ABFB41EC180BFFF73AFCA44913
:100DA00008619C48008900EE100AB8EE400A10EE77
:100DB000101A0846FFF71AFC41EC1A0B9FED960B30
:100DC00053EC102BFFF720FB41EC190B9FED940B1C
:100DD00053EC102BFFF78AFB41EC180BFFF719FCC3
:100DE000934948618B48008900EE100AB8EE400A2A
:100DF00010EE101A0846FFF7F9FB41EC1A0B9FEDB5
:100E0000860B53EC102BFFF7FFFA41EC190B9FED0B
:100E1000840B53EC102BFFF769FB41EC180BFFF729
:100E2000F8FB834988617B48008900EE100AB8EE20
:100E3000400A10EE101A0846FFF7D8FB41EC1A0BD7
:100E40009FED750B53EC102BFFF7DEFA41EC190BFD
:100E50009FED730B53EC102BFFF748FB41EC180B85
:100E6000FFF7D7FB7249C8616A48008900EE100A93
:100E7000B8EE400A10EE101A0846FFF7B7FB41EC37
:100E80001A0B9FED650B53EC102BFFF7BDFA41ECED
:100E9000190B9FED630B53EC102BFFF727FB41EC75
:100EA000180BFFF7B6FB624908625A48008900EE4A
:100EB000100AB8EE400A10EE101A0846FFF796FB2B
:100EC00041EC1A0B9FED540B53EC102BFFF79CFADF
:100ED00041EC190B9FED520B53EC102BFFF706FB67
:100EE00041EC180BFFF795FB5149486249480089CE
:100EF00000EE100AB8EE400A10EE101A0846FFF78E
:100F000075FB41EC1A0B9FED440B53EC102BFFF7D4
:100F10007BFA41EC190B9FED420B53EC102BFFF7C2
:100F2000E5FA41EC180BFFF774FB41498862394838
:100F3000008900EE100AB8EE400A10EE101A0846BA
:100F4000FFF754FB41EC1A0B9FED330B53EC102BC6
:100F5000FFF75AFA41EC190B9FED310B53EC102BB4
:100F6000FFF7C4FA41EC180BFFF753FB3049C86296
:100F70002848008900EE100AB8EE400A10EE101A58
:100F80000846FFF733FB41EC1A0B9FED230B53ECA4
:100F9000102BFFF739FA41EC190B9FED210B53ECA5
:100FA000102BFFF7A3FA41EC180BFFF732FB204997
:100FB00008631848008900EE100AB8EE400A10EEE7
:100FC000101A0846FFF712FB41EC1A0B9FED120BAB
:100FD00053EC102BFFF718FA41EC190B9FED100B97
:100FE00053EC102BFFF782FA41EC180BFFF711FBC3
:100FF0000F4948630748008900EE100AB8EE400A1E
:1010000010EE101A0846FFF7F1FA41EC1A0B15E042
:10101000C4000020C00500206666666666660A4059
:10102000000000000000B040000000000000004090
:10103000CC0500205DBF60376CDB16401FED0A0B4E
:1010400053EC102BFFF7E0F941EC190B1FED0C0BE3
:1010500053EC102BFFF74AFA41EC180BFFF7D9FAC3
:101060005F4988635F48008900EE100AB8EE400AC5
:1010700010EE101A0846FFF7B9FA41EC1A0B1FEDF3
:101080001A0B53EC102BFFF7BFF941EC190B1FEDB6
:101090001C0B53EC102BFFF729FA41EC180BFFF750
:1010A000B8FA4F49C86350A006F072FE4C48D0ED24
:1010B000000AB0EE600A50A007F0A2FE4848D0ED4A
:1010C000010AB0EE600A50A007F09AFE4448D0ED45
:1010D000020AB0EE600A50A007F092FE4048D0ED40
:1010E000030AB0EE600A50A007F08AFE3C48D0ED3B
:1010F000040AB0EE600A50A007F082FE3848D0ED36
:10110000050AB0EE600A50A007F07AFE3448D0ED30
:10111000060AB0EE600A50A007F072FE3048D0ED2B
:10112000070AB0EE600A50A007F06AFE2C48D0ED26
:10113000080AB0EE600A50A007F062FE2848D0ED21
:10114000090AB0EE600A50A007F05AFE2448D0ED1C
:101150000A0AB0EE600A50A007F052FE2048D0ED17
:101160000B0AB0EE600A50A007F04AFE1C48D0ED12
:101170000C0AB0EE600A50A007F042FE1848D0ED0D
:101180000D0AB0EE600A50A007F03AFE1448D0ED08
:101190000E0AB0EE600A50A007F032FE1048D0ED03
:1011A0000F0AB0EE600A50A007F02AFE52A006F027
:1011B000EFFD0C48018851A008F0C0FD09484188A6
:1011C00011A008F0BBFD0748818813A008F0B6FD08
:1011D0000448C18814A008F0B1FDBDEC088B10BD17
:1011E000CC050020C00500200D0A2D2D2D2D2D2D04
:1011F0002D2D2D0D0A000000434F4E54525F315FDC
:101200003409203A00000000434F4E54525F325FD1
:101210003420202020203A00434F4E54525F335F49
:101220003420202020203A00434F4E54525F345F38
:101230003420202020203A00434F4E54525F315F2B
:101240003109203A00000000434F4E54525F325F94
:101250003120202020203A00434F4E54525F335F0C
:101260003120202020203A00434F4E54525F345FFB
:101270003120202020203A00434F4E54525F315FEE
:101280003209203A00000000434F4E54525F325F53
:101290003220202020203A00434F4E54525F335FCB
:1012A0003220202020203A00434F4E54525F345FBA
:1012B0003220202020203A00434F4E54525F315FAD
:1012C0003309203A00000000434F4E54525F325F12
:1012D0003320202020203A00434F4E54525F335F8A
:1012E0003320202020203A00434F4E54525F345F79
:1012F0003320202020203A000D0D0D00434F4E5486
:10130000525F315F3420202020203A002DE9F04147
:101310000546002401260027A046B5FBF6F71A482B
:1013200003F076FE18494F83084607F08AFE002234
:101330002021164801F0D6FD01225102134801F088
:10134000D1FD05241CE0214611A008F00FFD0E4838
:1013500050F824100FA008F0AFFD0B4951F82400FD
:1013600008F094FB01222021084801F0BBFD012078
:1013700000F056FC00222021044801F0B3FD641E59
:10138000002CE0DABDE8F081D469002000080240BA
:10139000525B00005D3A00002DE9F04105460E4623
:1013A00014460027B846D4F800800CE004F1080089
:1013B00000EBC70006C885EA010086EA020108437F
:1013C00000D102E07F1C022FF0D300BF022F09D111
:1013D000B8F1020F06D10CA006F0DAFC0027C4E930
:1013E00002560EE0022F0CD10FA006F0D1FC04F142
:1013F0000800216800EBC10060C027682068401C1D
:1014000020603846BDE8F081CFF0E5E2FBF8E5ED7D
:10141000EE20F7E8F1EBEE20CED2CFD0C0C2C8D29A
:10142000C5CBC5C9210D0A00CDEEE2FBE920E0E401
:10143000F0E5F1210D0A000070B505460024E843EF
:10144000C4B204F0010028B101229102314801F038
:1014500049FD05E000224FF480612E4801F042FD75
:10146000C4F3400028B10122D1022A4801F03AFD1C
:1014700005E000224FF40061264801F033FDC4F37B
:10148000800028B101221103224801F02BFD05E064
:1014900000224FF480511F4801F024FDC4F3C00026
:1014A00028B1012251031B4801F01CFD05E0002278
:1014B0004FF40051174801F015FDC4F3001028B196
:1014C00001229103134801F00DFD05E000224FF4C5
:1014D0008041104801F006FDC4F3401028B10122FC
:1014E000D1030C4801F0FEFC05E000224FF400415E
:1014F000084801F0F7FC01225102064801F0F2FC15
:10150000642007F073FC00224FF40071014801F0E1
:10151000E9FC70BD000C024000BFFEE72DE9704FF2
:1015200088B0054688460024A146A246A34600206E
:101530000790069005900490039000BF029000BFB2
:10154000B6E205F1800000EBC40103C9012250405E
:1015500008437CD1F5A006F01BFCF7A006F018FCB0
:1015600055F82400002107F051FD814655F824006C
:10157000012107F04BFD824655F82400022107F0B7
:1015800045FD834655F82400032107F03FFD0790F1
:1015900055F82400042107F039FD069055F8240081
:1015A000052107F033FD059055F82400062107F0CA
:1015B0002DFD049055F82400072107F027FD039026
:1015C00018F809000106002218F80A00124341EA3F
:1015D000004018F80B1040EA0121079818F80000A5
:1015E0000143069818F800300020000640EA132056
:1015F00042EA03620143059818F800300020000415
:1016000040EA13404FEA034C0B4642EA0C011843F0
:10161000049A18F802300022120242EA136241EAE8
:1016200003210243039818F800000143CA4806C08A
:10163000CAA003F0D1FDBDA006F0AAFB05F52070FD
:1016400000EBC40003C8C84ACDE9000100E01DE07A
:10165000FFF7A2FE06463146C4A008F06FFBBE4865
:1016600000680021CDE90010304606EB400202EB95
:10167000C610C34A02EB001103232246284600F09D
:10168000EFFA2146284605F093FB10E205F18000B1
:1016900000EBC40103C964225040084329D105F579
:1016A000207000EBC40003C8AF4ACDE90001FFF78A
:1016B00073FE0646A84800680021CDE900103046B8
:1016C00006EB400202EBC610AD4A02EB0011032309
:1016D0002246284600F0C4FA2146284605F068FB59
:1016E0009D480168A7A008F041FBA7A006F050FBA9
:1016F000DDE105F1800000EBC400D0E90010052217
:101700005140014352D155F8240007F07FFC814637
:1017100055F82400012107F079FC824655F8240091
:10172000022107F073FC834655F82400032107F0DB
:101730006DFC079018F80900000618F80A1040EA36
:10174000014018F80B1040EA0120079918F8011021
:10175000084302900298FFF7D9FD05F5207000EBD1
:10176000C40003C8804ACDE90001FFF715FE064614
:10177000794800680021CDE90010304606EB4002B0
:1017800002EBC6107E4A02EB0011032322462846D4
:1017900000F066FA2146284605F00AFB7BA006F019
:1017A000F7FA82A0029908F0C9FA80E105F18000F9
:1017B00000EBC400D0E9001006225140014353D190
:1017C00055F8240007F022FC814655F82400012139
:1017D00007F01CFC824655F82400022107F016FC95
:1017E000834655F82400032107F010FC079018F8F1
:1017F0000900000618F80A1040EA014018F80B101A
:1018000040EA0120079918F8011008430290029954
:10181000C8B2FFF711FE05F5207000EBC40003C845
:10182000514ACDE90001FFF7B7FD06464A48006876
:101830000021CDE90010304606EB400202EBC61055
:101840004F4A02EB001103232246284600F008FA13
:101850002146284605F0ACFA56A006F099FA60A099
:10186000029908F06BFA22E105F1800000EBC40157
:1018700003C907225040084397D155F8240000219E
:1018800007F0C4FB814655F82400012107F0BEFB98
:10189000824655F82400022107F0B8FB834655F82C
:1018A0002400032107F0B2FB079018F80900000696
:1018B00018F80A1040EA014018F80B1040EA01201D
:1018C000079918F8011008430290029868B30122A2
:1018D0001146454801F006FB01220221424801F071
:1018E00001FB0122D102414801F0FCFA012211035F
:1018F0003E4801F0F7FA012240213D4801F0F2FA9A
:10190000002201213B4801F0EDFA00220221394872
:1019100001F0E8FA00220821364801F0E3FA00223B
:101920000121354801F0DEFA97E067E00D0A2D2D20
:101930002D2D2D2D0D0A0000CAEEECE0EDE4E03A6D
:10194000F3F1F2E0EDEEE2EAE020E2F0E5ECE5EDC5
:10195000E8210D0A00000000A80000207E3020745D
:10196000696D653B00000000D8530020CDEEECE52A
:10197000F020EEF2EFF0E0E2E8F2E5EBFF3A0000F3
:10198000382A00205B0000005D0D0A00D3F1F2E070
:10199000EDEEE2EAE020F7E0F1F2EEF2FB20ECEE11
:1019A000E4F3EBFFF2EEF0E0210D0A0066726571E0
:1019B0003A000000D3F1F2E0EDEEE2EAE020F3F0CD
:1019C000EEE2EDFF20EFEEE4E0E2EBE5EDE8FF20F4
:1019D000E0F2F2E5EDFEE0F2EEF0E0210D0A0000AB
:1019E0004154543A00000000000802400000024048
:1019F0000004024000100240000C024000220121BD
:101A00002E4801F06FFA002202212C4801F06AFAF8
:101A100000224FF400612A4801F064FA00224FF4DA
:101A20008051274801F05EFA00224021254801F04C
:101A300059FA01221146244801F054FA01220221E8
:101A4000214801F04FFA012208211F4801F04AFA0B
:101A5000012211461D4801F045FA05F5207000EB02
:101A6000C40103C91A4ACDE90001FFF795FC0646F7
:101A7000184800680021CDE90010304606EB40020E
:101A800002EBC610144A02EB00110323224628463B
:101A900000F0E6F82146284605F08AF9AFF2EC009E
:101AA00006F076F9AFF2C800029908F047F9641C15
:101AB000202CFFF446AD08B0BDE8708F000802404E
:101AC000000002400004024000100240000C0240EE
:101AD000D8530020A8000020382A002010B5024862
:101AE00000F01AFF10BD0000C001002010B5024830
:101AF00000F012FF10BD0000F404002010B500201B
:101B000002490870024800F007FF10BD24000020C1
:101B1000940400200146087810381823B0FBF3F233
:101B20000848805CC865032A05D908686FF3090076
:101B3000001D886503E008686FF309008865886DFB
:101B400070470000109F0008014600208A6A8B69D8
:101B5000CBB932B1012A0DD0022A03D0032A10D109
:101B60000EE000BFCB6A03F08073B3F1807F00D139
:101B7000012007E0CB6AB3F1C07F00D1012001E072
:101B800000E000BF34E08B69B3F5005F1AD132B1D9
:101B9000012A07D0022A03D0032A11D10AE000BF8C
:101BA00001200EE0CB6A03F08073B3F1807F00D197
:101BB000012006E0CB6AB3F1C07F00D1012000E034
:101BC00000BF15E032B1012A05D0022A04D0032A51
:101BD0000CD103E000BF00BF012008E0CB6A03F096
:101BE0008073B3F1807F00D1012000E000BF00BF0F
:101BF000704730B50468246824F4802405682C609C
:101C0000046863608468402C04D10468A26004689E
:101C1000E16003E00468A1600468E26030BD7047E1
:101C20000349086000BF024909680029FBD17047D9
:101C30001000002000B5014600220DE0FA2000F05F
:101C40000EF8FA2000F00BF8FA2000F008F8FA205D
:101C500000F005F8501C82B28A42EFDB00BD7047ED
:101C60002DE9F05F06460C4617469946DDE90AA8BD
:101C70004FF0000B002506F5207000EBC70003C8ED
:101C8000C4E90601A56A402D2FD2D4E90A10491CE7
:101C900040F10000C4E90A10002104F1300000EB1B
:101CA0004510C0E9048104F1300000EB4510C0F894
:101CB000049006F5C07000EBC700D0E9002104F1E4
:101CC000300000EB4510C0E90221012104F1300091
:101CD00000EB4510016004F1300000EB451080F886
:101CE00018A0206A2930206204E04FF0010B03A005
:101CF00006F04EF85846BDE8F09F0000EDE5F220F2
:101D0000ECE5F1F2E020E4EBFF20EAE2E8F2E0EDBE
:101D1000F6E8E9210D0A000010B5012000F0E2FF0D
:101D200001200149087010BD9400002010B5022068
:101D300000F0D8FF01200149087010BD9500002077
:101D400010B5082000F0CEFF01200149087010BD39
:101D50009700002010B54FF4807000F0C3FF012001
:101D60000149087010BD00009C0000207047000071
:101D70002DE9F04F89B004468B4600BF4FF00009B3
:101D8000CA46002500200890804600BF6078217870
:101D900040EA012008EB480101EBC811FE4A02EBC2
:101DA0000111088008EB480000EBC810114601EB58
:101DB0000010008858457DD1207A01060022607A03
:101DC000030442EA02001943A27A4FEA022C0246B7
:101DD00041EA0C01E07A0843217B0906CB17114345
:101DE0000343607B02040846104343EAE272A17B8E
:101DF0000902084342EAE171E27B104341EAE271E1
:101E0000CDE90601E54ADDE90601FFF7C5FA80469E
:101E1000E078A17840EA0121404608EB400202EB5D
:101E2000C810DD4A02EB001041802079000661797C
:101E300040EA0140A17940EA0120E17901434046AE
:101E400008EB400202EBC810D34A02EB001081609D
:101E5000207A02060021607A094342EA0040A27A11
:101E60004FEA022C0A4640EA0C01E07A0843217B43
:101E70000906CB17114340EA0302607B0004C31735
:101E8000084342EA0301A27B1202104341EAE272D4
:101E9000E17BCB1701431A43404608EB400303EBB9
:101EA000C810BD4B03EB0010C0E90412207C0206F1
:101EB000002100E0E1E1607C094342EA0040A27CAD
:101EC0004FEA022C0A4640EA0C01E07C0843217DDF
:101ED0000B0642EA030140EAE370627D1204D31765
:101EE0000A430343A17D090242EA010043EAE17388
:101EF000E17DCA1701431343404608EB400202EB61
:101F0000C810A54A02EB0010C0E90613207E0006A7
:101F1000617E40EA0140A17E40EA0120E17E01436A
:101F2000404608EB400202EBC8109B4A02EB00104F
:101F30000162207F0006617F40EA0140A17F40EA04
:101F40000121E07F0143404608EB400202EBC8104C
:101F5000914A02EB0010416294F820000106002231
:101F600094F82100030442EA0200194394F8222065
:101F70004FEA022C024641EA0C0194F82300014387
:101F800094F824000006C317104341EA030294F8B2
:101F900025100904084342EAE17294F82610090268
:101FA000084342EAE17194F82720D317024319430A
:101FB000404608EB400303EBC810774B03EB0010DF
:101FC000C0E90A2128250026374647E1605D010661
:101FD000681C205C41EA0041A81C205C41EA002109
:101FE000E81C205C014308EB480000EBC8106A4A7B
:101FF00002EB0010303000EB46100160281D205C21
:102000000106681D205C41EA0041A81D205C41EAF0
:102010000021E81D205C014308EB480000EBC810DC
:1020200002EB0010303000EB4610416005F1080073
:10203000205C0106002205F10900205C124341EA00
:10204000004005F10A01615C40EA012105F10B0045
:10205000205C014305F10C00205C0006C31710430F
:1020600041EA030205F10D01615C0904CB1701434C
:102070001A4305F10E00205C000241EA000342EA27
:10208000E07005F10F01615C43EA010240EAE17092
:1020900008EB480101EBC8113F4B03EB0111303154
:1020A00001EB4611C1E9022005F11000205C020697
:1020B000002105F11100205C094342EA004005F1CE
:1020C0001202A25C4FEA022C40EA0C0305F1130055
:1020D000205C43EA000205F11400205C0006C317EF
:1020E00008431A4305F11501615C090440EA010344
:1020F00042EAE17105F11600205C0002C2171843A4
:10210000114305F11702A25C104341EAE27208EBA9
:10211000480101EBC811204B03EB0111303101EBF9
:102120004611C1E904021E48D0F8000408901C487A
:10213000D0F800041A49C1F804040846D0F8000495
:10214000401EC1F820044FF0000A07E005EB0A0129
:10215000605C134904F054FF0AF1010ABAF1180F48
:10216000F4D34FF0000921E005F118004844215C48
:1021700008EB480000EBC810074A02EB00103030B3
:1021800000EB4610183000F8091005F11801494419
:10219000605C034906E00000983A0020D853002014
:1021A000F84A002004F02CFF09F1010908EB48006F
:1021B00000EBC8103B4901EB0010303000EB46103B
:1021C00000684845D0D83848D0F80004401C36494B
:1021D000C1F8240405F1180000EB090508EB4800DC
:1021E00000EBC8102F4901EB0010303000EB461116
:1021F000D1E90201CDE9040108EB480000EBC81069
:10220000284901EB0010303000EB461041690069AD
:10221000CDE9020108EB480000EBC810214901EBB1
:102220000010006908EB480101EBC8111D4A02EBE0
:102230000111303101EB46114968CDE9001008EB7E
:10224000480101EBC811194A02EB0110184A16495E
:10225000089B04F0E7FD761C47F1000708EB4800F7
:1022600000EBC8100F4901EB0011D1E90A01301A47
:1022700077EB0100FFF4AAAE11E00EA005F088FD97
:1022800008EB480000EBC810064A02EB001001887A
:102290000EA007F053FD594612A007F04FFD09B0FC
:1022A000BDE8F08F983A0020F84A0020382A002034
:1022B000204F0020CDE5E0E4E5EAE2E0F2EDFBE9C5
:1022C00020EFE0EAE5F2210D0A00000046524D3110
:1022D0005B4144525D2E4672616D655F73697A653C
:1022E0003A00000020202020202020202020202034
:1022F00020202020206C656E3A000000704700000E
:1023000038B502460020009000BF92F83C0001283A
:1023100001D1022038BD012082F83C0000BF0868CE
:10232000092816D91068C0680C780A3C04EB4405EB
:102330000724AC40A0431468E0600C780A3C04EB2E
:1023400044048868A0401468E46820431468E0608E
:1023500013E0106800690C7804EB44050724AC40D6
:10236000A043146820610C7804EB44048868A04002
:10237000146824692043146820614868072817D22C
:102380001068406B0C79641E04EB84051F24AC407C
:10239000A04314686063088880B20C79641E04EB63
:1023A0008404A0401468646B20431468606331E0C7
:1023B00048680D2817D21068006B0C79E41F04EBF5
:1023C00084051F24AC40A04314682063088880B2B1
:1023D0000C79E41F04EB8404A0401468246B2043B0
:1023E0001468206316E01068C06A0C790D3C04EB99
:1023F00084051F24AC40A0431468E062088880B2C2
:102400000C790D3C04EB8404A0401468E46A20437A
:102410001468E0621E4B1F4C1068A0420AD1086885
:10242000122807D1586820F400005860586840F41A
:1024300080005860174C1068A04222D1164C0868E2
:10244000A04202D0086811281BD1586820F48000EF
:102450005860586840F4000058600F4C0868A0426B
:102460000FD10E4800680E4CB0FBF4F000EB80007A
:102470004000009002E00098401E00900098002864
:10248000F9D100BF002082F83C0000BF00BF41E747
:102490000023014000200140120000106C010020C8
:1024A00040420F0002490968491C014A1160704707
:1024B000C40000207047704770B504460025002610
:1024C00020680068C0F3400520684068C0F34016EB
:1024D00095B38EB3206C00F0100018B9206C40F456
:1024E000007020642068806800F04050E8B9207EC9
:1024F000D8B92068C06A00F4700020B120688068F4
:1025000000F4806088B92068406820F020002168CD
:102510004860206C20F480702064206C00F48050AF
:1025200018B9206C40F0010020642046FFF7BAFF84
:102530006FF012002168086020680068C0F3800511
:1025400020684068C0F3C016E5B3DEB3206C00F02D
:10255000100018B9206C40F4005020642068806896
:1025600000F4401038BB2068806B00F4401020B1AC
:102570002068806800F48060E8B92068406800F452
:102580008060C0B92068806800F0405098B9207E13
:1025900088B92068406820F0800021684860206C7D
:1025A00020F480502064206C00F4807018B9206CF6
:1025B00040F0010020642046FFF7A0FE6FF00C0001
:1025C000216808602068006800F001052068406804
:1025D000C0F3801685B17EB12068006800F001006C
:1025E00050B1206C40F480302064204600F052F856
:1025F0006FF001002168086020680068C0F3401592
:1026000020684068C0F380667DB176B1606C40F0B0
:10261000020060646FF02000216808602046FFF728
:102620004AFF6FF020002168086070BD70B5044655
:1026300000250CB9012070BD1549A06A884200D060
:1026400000BF206C30B9204600F026F800206064FE
:1026500084F83C00206C00F0100088B9206C20F455
:10266000885040F0020020642046FEF71FFA002048
:102670006064206C20F0020040F00100206400E063
:10268000012500BF002084F83C0000BF2846D2E7A7
:102690000100000F7047000010B586B004461421F9
:1026A00001A8FDF7DDFD3A49206888426ED100BFE0
:1026B000002000903748006840F480703549086079
:1026C0000846006800F48070009000BF00BF00BFA3
:1026D000002000902F481438006840F004002D4975
:1026E000143908600846006800F00400009000BF3C
:1026F00000BF00BF002000900846006840F00100C5
:1027000008600846006800F00100009000BF00BFAC
:1027100000BF002000900846006840F002000860FA
:102720000846006800F00200009000BF00BF0120D2
:102730000190032002900020039001A9164800F0A8
:10274000DFFA164816490860002048600021144846
:102750008160C1604FF4806101614900416189007D
:1027600081614911C16109020162042141620121B3
:1027700081620021C162016300F0EEF908B1FFF748
:10278000F5FA00BF0648A063846300BF06B010BD21
:102790000020014044380240000002401064024022
:1027A000C0010020F8B504460D46164600200090F2
:1027B00000BF94F83C00012801D10220F8BD01209F
:1027C00084F83C0000BF2068806800F00100A0B9D8
:1027D0002068806840F00100216888603D480068FA
:1027E0003D49B0FBF1F000EB4000009002E00098A2
:1027F000401E009000980028F9D12068806800F001
:102800000100002864D0206C40F20161884340F44C
:10281000807020642068406800F4806028B1206CDB
:1028200020F4005040F480502064206C00F480506C
:10283000B0F5805F04D1606C20F00600606401E0B8
:102840000020606400BF002084F83C0000BF234FDC
:102850002348A16BC8632348A16B08642248A16B7D
:10286000C8646FF02200216808602068406840F06A
:102870008060216848602068806840F4807021682A
:102880008860226802F14C0133462A46A06B00F0B2
:10289000D9F9786800F01F0058B92068806800F006
:1028A000405028B92068806840F0804021688860E6
:1028B0000EE00E49206888420AD12068806800F046
:1028C000405028B92068806840F0804021688860C6
:1028D000002073E76C01002040420F0000230140FC
:1028E000ED090008850A00086B0A00080020014075
:1028F000014691F83500022803D080204865012068
:102900007047052081F835000868006820F0010054
:102910000A6810600020F3E7F8B504460020009034
:102920008C4800684FF41651B0FBF1F7A56D2E6886
:1029300094F85C1008208840304098B12068006806
:1029400000F0040070B12068006820F004002168E5
:10295000086094F85C1008208840A860606D40F022
:102960000100606594F85C1001208840304068B137
:102970002068406900F0800040B194F85C100120AC
:102980008840A860606D40F00200606594F85C10BB
:1029900004208840304068B12068006800F00200E0
:1029A00040B194F85C1004208840A860606D40F04D
:1029B0000400606594F85C1010208840304078B3C3
:1029C0002068006800F0080050B394F85C101020F4
:1029D0008840A8602068006800F4802080B12068EA
:1029E000006800F4002028B9206CC8B12046216C92
:1029F000884715E0A06C98B12046A16C88470FE08D
:102A00002068006800F4807028B92068006820F011
:102A1000080021680860206C10B12046216C8847AE
:102A200094F85C10202088403040002865D0206851
:102A3000006800F0100000285FD094F85C1020209F
:102A40008840A86094F83500052828D120680068DF
:102A500020F01600216808602068406920F080009E
:102A600021684861206C08B9A06C28B12068006812
:102A700020F008002168086094F85C103F2088402E
:102A8000A86000BF002084F8340000BF012084F853
:102A90003500206D10B12046216D8847F8BD2068B3
:102AA000006800F4802080B12068006800F40020F5
:102AB00028B9606C10B12046616C88471DE0E06B5E
:102AC000D8B12046E16B884717E02068006800F421
:102AD000807068B92068006820F0100021680860E4
:102AE00000BF002084F8340000BF012084F83500C6
:102AF000E06B10B12046E16B8847606D38B3606DC4
:102B000000F00100F0B1052084F83500206800686D
:102B100020F001002168086000BF0098401C009070
:102B2000B84200D905E02068006800F001000028E4
:102B3000F3D100BF00BF002084F8340000BF0120A3
:102B400084F83500E06C10B12046E16C884700BF86
:102B5000A4E700006C0100202DE9F04104460025A7
:102B600000F0C6F9074614B90120BDE8F081606A9B
:102B700000B100BF00BF002084F8340000BF022075
:102B800084F835002068006820F0010021680860A2
:102B90000AE000F0ADF9C01B052805D920206065CA
:102BA000032084F83500E0E72068006800F00100A9
:102BB0000028EED12068056821480540D4E90101CC
:102BC0000843E16808432169084361690843A16932
:102BD0000843E1690843216A08430543606A042801
:102BE00003D1D4E90B010843054320680560206840
:102BF000456925F00705606A0543606A04280DD120
:102C0000A06A0543E06A48B12046FEF79DFF28B15F
:102C100040206065012084F83500A6E72068456102
:102C20002046FEF777FF064694F85C103F20884068
:102C3000B06000206065012084F83500002094E732
:102C40003F8010F02DE9F04704460D4616461F461A
:102C50004FF00008D4F8589000BF94F834000128D1
:102C600002D10220BDE8F087012084F8340000BFC3
:102C700094F8350001282BD1022084F8350000207B
:102C800060653B46324629462046FEF7B2FF94F87F
:102C90005C103F208840C9F808002068006840F0B8
:102CA0001600216808602068406940F080002168B3
:102CB0004861206C28B12068006840F00800216855
:102CC00008602068006840F001002168086006E0A4
:102CD00000BF002084F8340000BF4FF002084046D7
:102CE000C0E7704710B5044604480068204020B192
:102CF000024804602046FFF7F4FF10BD143C014079
:102D0000F8B503460A460025002400200021CDE046
:102D1000012606FA01F5166806EA0504AC4273D1ED
:102D20005668022E02D05668122E13D1CF0803F136
:102D3000200656F827004E07F70E0F26BE40B04378
:102D40004F07FF0E1669BE403043CF0803F120063F
:102D500046F8270018684F000326BE40B043167996
:102D600006F003064F00BE40304318605668012E3F
:102D700008D05668022E05D05668112E02D056682B
:102D8000122E13D198684F000326BE40B0434F0067
:102D9000D668BE4030439860586801268E40B043E4
:102DA0001679C6F300168E4030435860D8684F003D
:102DB0000326BE40B0434F009668BE403043D86003
:102DC000566806F08056B6F1805F6ED100BF0026CF
:102DD0000096384E366846F48046364F3E603E4692
:102DE000366806F48046009600BF00BF324E8F085A
:102DF00056F827008E07370F0F26BE40B0432F4EE0
:102E0000B34202D1002615E04FE02D4EB34201D16E
:102E100001260FE02B4EB34201D102260AE02A4ED2
:102E2000B34201D1032605E0284EB34201D1042666
:102E300000E007268F073F0FBE4030431E4E8F082D
:102E400046F82700224E3068A043566806F48036C4
:102E5000B6F5803F00D120431D4E3060361D3068EE
:102E6000A043566806F40036B6F5003F00D1204373
:102E7000174E361D3060361D3068A043566806F484
:102E80008016B6F5801F00D12043114E0836306001
:102E9000361D3068A043566806F40016B6F5001FCC
:102EA00000D120430A4E0C363060491C1029FFF433
:102EB0002FAFF8BD443802400838014000000240FE
:102EC0000004024000080240000C024000100240D2
:102ED000003C0140024613690B400BB1012000E0A9
:102EE000002070470AB1816101E00B0483617047E3
:102EF0000148006870470000600100202DE9F84F8C
:102F000004460F4690461E46FFF7F2FF05464FF077
:102F1000010994F83D0020287DD11923012262493E
:102F20002046009501F016FF10B10220BDE8F88F91
:102F300000BF94F83C00012801D10220F6E70120EF
:102F400084F83C0000BF2068006800F0010028B948
:102F50002068006840F0010021680860206800686F
:102F600020F4006021680860242084F83D000020DF
:102F700020644E48E06200BF2068006840F4807022
:102F800021680860334600224FF001112046009569
:102F900001F0E0FE48B12068006800F4807010B1D4
:102FA0004FF4007020640320C0E707F0FE002168A2
:102FB0000861FFF79DFF054620684069C0F3400A9D
:102FC00020684069C0F3802B10E0FFF791FF401BA1
:102FD000B04200D816B9A02084F83D0020684069AE
:102FE000C0F3400A20684069C0F3802B94F83D008C
:102FF000A02805D0BAF1000F02D1BBF1000FE4D038
:10300000202084F83D0020684069C0F3400028B3C8
:103010002068006800E044E040F400702168086027
:1030200000BF0020009020684069009020688069FF
:10303000009000BF00BF192301221B4920460095C4
:1030400001F088FE08B1012070E7202084F83D00DF
:1030500000BF002084F83C0000BF67E720680068DC
:1030600040F40070216808606FF480602168486156
:10307000192301220C492046009501F06BFE08B18E
:10308000012053E709F10109C145FFF475AF202084
:1030900084F83D0000BF002084F83C0000BF012000
:1030A00044E7022042E70000020010000000FFFF9A
:1030B0002DE9F8430446894617469846089EFFF7CF
:1030C00017FF054694F83D0020287DD119230122E1
:1030D000B2492046009501F03DFE10B10220BDE846
:1030E000F88300BF94F83C00012801D10220F6E7E4
:1030F000012084F83C0000BF2068006800F0010057
:1031000028B92068006840F0010021680860206844
:10311000006820F4006021680860222084F83D00E7
:10312000102084F83E00002020646762A4F82A8002
:10313000608D20859A48E0622B46324649462046FB
:1031400001F0E4FC08B10120C9E7208D88B900BF77
:1031500000200090206840690090206880690090FD
:1031600000BF00BF2068006840F40070216808605C
:1031700047E0208D012817D12068006820F4806086
:103180002168086000BF002000902068406900901E
:1031900020688069009000BF00BF2068006840F48C
:1031A0000070216808602CE0208D022818D120686A
:1031B000006820F48060216808602068006840F49E
:1031C00000602168086000E0E6E000BF0020009099
:1031D00020684069009020688069009000BF10E07E
:1031E0002068006840F480602168086000BF00200B
:1031F000009020684069009020688069009000BFBE
:1032000000BFBAE0208D03287ED8208D012815D17B
:103210002A463146204601F042FE08B101205EE711
:1032200020680069616A0870606A401C6062208DD5
:10323000401E2085608D401E60859EE0208D022806
:103240002AD13346002257492046009501F082FDDD
:1032500008B1012043E72068006840F4007021684D
:10326000086020680069616A0870606A401C6062DA
:10327000208D401E2085608D401E6085206800697D
:10328000616A0870606A401C6062208D401E208563
:10329000608D401E608570E0334600224149204623
:1032A000009501F057FD08B1012018E7206800687B
:1032B00020F480602168086020680069616A0870F5
:1032C000606A401C6062208D401E2085608D401E1B
:1032D00060853346002233492046009501F03AFDCF
:1032E00008B10120FBE62068006840F40070216806
:1032F000086020680069616A0870606A401C60624A
:10330000208D401E208500E010E0608D401E60850D
:1033100020680069616A0870606A401C6062208DE4
:10332000401E2085608D401E608526E02A4631467D
:10333000204601F0B4FD08B10120D0E62068006904
:10334000616A0870606A401C6062208D401E2085A2
:10335000608D401E608520684069C0F3800060B1C8
:1033600020680069616A0870606A401C6062208D94
:10337000401E2085608D401E6085208D00287FF4D2
:1033800041AF202084F83D00002084F83E0000BFBB
:1033900084F83C0000BFA2E60220A0E60200100074
:1033A0000000FFFF040001002DE9F84304468946B0
:1033B00016461F46DDF82080FFF79AFD054694F873
:1033C0003D0020287ED11923012251492046009535
:1033D00001F0C0FC10B10220BDE8F88300BF94F8F2
:1033E0003C00012801D10220F6E7012084F83C00CE
:1033F00000BF2068006800F0010028B9206800685C
:1034000040F00100216808602068006820F4006036
:1034100021680860212084F83D00102084F83E00D7
:103420000020206466626785608D20853948E062EF
:103430002B4642464946204601F000FC08B10120D7
:10344000CAE700BF00200090206840690090206813
:103450008069009000BF00BF44E02A4641462046F4
:1034600001F05DFD50B1206C042805D12068006892
:1034700040F40070216808600120ADE7606A0078C0
:1034800021680861606A401C6062608D401E608532
:10349000208D401E208520684069C0F3800070B1F7
:1034A000208D60B1606A007821680861606A401C04
:1034B0006062608D401E6085208D401E20852A46FA
:1034C000414600E022E0204601F016FC50B1206C9D
:1034D000042805D12068006840F400702168086065
:1034E000012079E7208D0028B7D12068006840F4DA
:1034F000007021680860202084F83D00002084F8D6
:103500003E0000BF84F83C0000BF65E7022063E78F
:10351000020010000000FFFF03480068034909781B
:1035200008440149086070476001002068010020DC
:1035300010B50D48006840F400700B49086008465B
:10354000006840F4806008600846006840F48070BD
:103550000860032000F0A2F8002000F007F800F057
:103560002BF8002010BD0000003C024070B504465E
:103570000E4800784FF47A71B1FBF0F00C490968FD
:10358000B1FBF0F5284600F060FE08B1012070BDE7
:10359000102C07D200222146501E00F041F80548A9
:1035A000046001E00120F2E70020F0E7680100205C
:1035B0006C0100206401002008B500BF00200090CD
:1035C0000E48006840F480400C49086008460068D6
:1035D00000F48040009000BF00BF00BF00200090BA
:1035E000081F006840F08050091F08600846006806
:1035F00000F08050009000BF00BF08BD443802407A
:1036000001460846002809DB00F01F0301229A400A
:1036100043099B0003F1E023C3F8002100BF70477A
:103620002DE9F05F80460D461646002704F01EFF88
:10363000074639462A46334601F00700C0F1070A1B
:10364000BAF1040F02D94FF0040A01E0C0F1070AF1
:10365000D14600F1040ABAF1070F02D24FF0000A76
:1036600001E0A0F1030AD4464FF0010A0AFA09FA70
:10367000AAF1010A0AEA020A0AFA0CFA4FF0010B4F
:103680000BFA0CFBABF1010B0BEA030B4AEA0B0440
:103690002146404604F0F2FEBDE8F09F00BF00F076
:1036A0000702064B19684FF6FF031940044B0B4302
:1036B00043EA0221014B196000BF70470CED00E0A6
:1036C0000000FA0570B504460D460CB9012070BD26
:1036D0005848006800F00F00A84209D255490D7003
:1036E0000846006800F00F00A84201D00120EEE774
:1036F000207800F0020002281DD1207800F004009C
:10370000042805D14C48006840F4E0504A4908605C
:10371000207800F00800082805D14748006840F4E8
:103720006040454908604448006820F0F000A16806
:10373000084341490860207800F00100A8B36068A0
:10374000012807D13C4808380068C0F34040B8B9A8
:103750000120BCE76068022802D06068032807D116
:10376000354808380068C0F3406048B90120AEE72A
:10377000314808380068C0F3400008B90120A6E7C6
:103780002D48006820F00300616808432A4908605A
:10379000FFF7AEFB064609E0FFF7AAFB801B41F2EC
:1037A0008831884202D9032091E707E02248006867
:1037B00000F00C006168B0EB810FEDD11D4800688E
:1037C00000F00F00A84209D91A490D700846006898
:1037D00000F00F00A84201D0012078E7207800F027
:1037E0000400042807D11448006820F4E050E16880
:1037F000084311490860207800F00800082808D123
:103800000D48006820F46040216940EAC1000A497F
:10381000086000F03DF808490968C1F30311074A40
:10382000515CC840064908600020FFF79FFE002059
:103830004DE70000003C024008380240189F000895
:103840006C01002001480068704700006C010020F6
:1038500000B5FFF7F7FF04490968C1F38221034A65
:10386000515CC84000BD000008380240289F000895
:1038700000B5FFF7E7FF04490968C1F34231034A85
:10388000515CC84000BD000008380240289F000875
:103890002DE9F047002400250026A14625480068B0
:1038A00000F00C0020B1042805D008283AD105E02A
:1038B000DFF8849039E0DFF8849036E01D48001F7F
:1038C000006800F03F041B48001F006800F48000FF
:1038D00078B11A481749091F0968C1F38811A0FB7C
:1038E00001700146224600233846FCF771FC05466C
:1038F0000EE011480F49091F0968C1F38811A0FBA8
:1039000001700146224600233846FCF761FC05465B
:103910000848001F0068C0F30140401C4600B5FB8A
:10392000F6F902E0DFF8109000BF00BF4846BDE89E
:10393000F0870000083802400024F40000127A00EA
:10394000F8B504460CB90120F8BD207800F001005C
:10395000002874D0F948006800F00C0004280DD04D
:10396000F648006800F00C00082813D1F348001F47
:10397000006800F48000B0F5800F0BD1EF480838E4
:103980000068C0F34040002859D06068002856D134
:103990000120D9E700BF6068B0F5803F08D1E74853
:1039A0000838006840F48030E449083908601EE0B7
:1039B0006068B0F5A02F0DD1E0480838006840F4E9
:1039C0008020DE49083908600846006840F48030ED
:1039D00008600CE0D9480838006820F48030D749E6
:1039E000083908600846006820F48020086000BF9D
:1039F000606890B1FFF77CFA054606E0FFF778FAB9
:103A0000401B642801D903209EE7CC480838006891
:103A1000C0F340400028F1D011E0FFF769FA0546F5
:103A200006E0FFF765FA401B642801D903208BE705
:103A3000C24808380068C0F340400028F1D120781F
:103A400000F0020002285FD1BC48006800F00C00C2
:103A500058B1BA48006800F00C0008281CD1B748DB
:103A6000001F006800F48000B0B9B448083800684E
:103A7000C0F3400020B1E068012801D0012063E7D5
:103A8000AE480838006820F0F800216940EAC1001B
:103A9000AA490839086037E0E06800B30120A84966
:103AA0000860FFF725FA054606E0FFF721FA401BFC
:103AB000022801D9032047E7A04808380068C0F36E
:103AC00040000028F1D09D480838006820F0F80038
:103AD000216940EAC10099490839086014E00020D2
:103AE00097490860FFF704FA054606E0FFF700FA79
:103AF000401B022801D9032026E7904808380068B7
:103B0000C0F340000028F1D1207800F00800082818
:103B10002CD16069A8B101208A490860FFF7E8F953
:103B2000054606E0FFF7E4F9401B022801D903200F
:103B30000AE782486C300068C0F340000028F1D0EA
:103B400014E000207F490860FFF7D2F9054606E03F
:103B5000FFF7CEF9401B022801D90320F4E677488D
:103B60006C300068C0F340000028F1D1207800F0EC
:103B70000400042870D1002670483830006800F036
:103B8000805090B900BF002000906C483830006829
:103B900040F080506949383108600846006800F0FC
:103BA0008050009000BF00BF01266748006800F405
:103BB0008070B0B96448006840F480706249086061
:103BC000FFF796F9054606E0FFF792F9401B022839
:103BD00001D90320B8E65C48006800F48070002832
:103BE000F2D000BFA068012808D1544868300068AE
:103BF00040F001005149683108601DE0A0680528C7
:103C00000DD14E486830006840F004004B496831DF
:103C100008600846006840F0010008600CE0474872
:103C20006830006820F001004449683108600846A7
:103C3000006820F00400086000BFA068A8B1FFF78A
:103C400057F9054609E0FFF753F9401B41F2883167
:103C5000884202D9032077E626E0384868300068B9
:103C6000C0F340000028EED013E0FFF741F905460D
:103C700008E0FFF73DF9401B41F28831884201D945
:103C8000032061E62D4868300068C0F3400000283A
:103C9000EFD1012E07D129483830006820F080503C
:103CA00026493831086000BFA069B8B323480068CE
:103CB00000F00C0008285ED0A069022846D1002040
:103CC0001F490866FFF714F9054606E0FFF710F9EB
:103CD000401B022801D9032036E61848083800683E
:103CE000C0F340600028F1D1D4E907010843616ABC
:103CF00040EA81110122A06AC2EB500041EA004172
:103D00002C20005D41EA00600C49091F0860012079
:103D10000B490866FFF7ECF8054607E02DE0FFF7D2
:103D2000E7F8401B022801D903200DE603480838B4
:103D30000068C0F340600028F1D01EE0083802405F
:103D400000004742800E47420070004000200C49AE
:103D50000866FFF7CDF8054606E0FFF7C9F8401BF7
:103D6000022801D90320EFE506480068C0F340604F
:103D70000028F2D101E00120E6E50020E4E50000A2
:103D8000000047420038024010B504460CB901203B
:103D900010BD606A00B900BF0021A16294F8510013
:103DA00028B9002084F85000204600F033F80220A3
:103DB00084F851002068006820F040002168086005
:103DC000D4E901010843E1680843216908436169B6
:103DD0000843218B01F400710843E1690843216A1B
:103DE0000843A16A0843216808600421A06901EA28
:103DF0001040616A0843216848602068C06920F467
:103E000000602168C86100206065012084F85100CD
:103E10000020BDE710B586B00446142101A8FCF7C8
:103E20001FFA6D492068884231D100BF0020009000
:103E30006A48006840F480406849086008460068A5
:103E400000F48040009000BF00BF00BF0020009041
:103E500062481038006840F002006049103908607C
:103E60000846006800F00200009000BF00BF4FF459
:103E700060400190022002900120039003200490F2
:103E80000520059001A95648FEF73AFF34E0554950
:103E90002068884230D100BF002000904F48006861
:103EA00040F400404D4908600846006800F40040B6
:103EB000009000BF00BF00BF0020009047481038AE
:103EC000006840F004004549103908600846006861
:103ED00000F00400009000BF00BF4FF4E0500190DC
:103EE00002200290002003900320049006200590F9
:103EF00001A93D48FEF704FF3C492068884231D1C2
:103F000000BF002000903548001D006840F40050BC
:103F10003249091D08600846006800F4005000900E
:103F200000BF00BF00BF002000902C481038006880
:103F300040F010002949103908600846006800F078
:103F40001000009000BF00BF64200190022002908A
:103F500000200390032004900520059001A9244827
:103F6000FEF7CEFE23492068884232D100BF0020F0
:103F700000901A48001D006840F480101749091D80
:103F800008600846006800F48010009000BF00BF81
:103F900000BF0020009011481038006840F0100069
:103FA0000E49103908600846006800F010000090C3
:103FB00000BF00BF4FF4E0400190022002900020BB
:103FC0000390032004900620059001A90848FEF7FD
:103FD00097FE06B010BD0000003800404038024097
:103FE00000040240003C0040000802400034014050
:103FF00000100240005001402DE9FF5F0446884652
:1040000091461D460E9E012002900020019000BFA7
:1040100094F85000012803D1022004B0BDE8F09FBD
:10402000012084F8500000BFFEF762FF074694F8B5
:1040300051B060680390AA46BBF1010F0BD0039802
:10404000B0F5827F04D1A06810B9BBF1040F02D093
:1040500002200190DBE0B8F1000F03D0B9F1000FAE
:1040600000D015B901200190D1E094F85100042846
:1040700002D0052084F8510000206065C4F8389013
:10408000E587A587C4F83080E586A586206460644E
:104090002068006800F04000402805D020680068D3
:1040A00040F0400021680860E068B0F5006F4AD138
:1040B000606810B1BAF1010F09D1206B0088216846
:1040C000C860206B801C2063E08E401EE08633E0D9
:1040D0002068806800F00200022810D1E08E70B1E4
:1040E000029801280BD1206B00882168C860206BE2
:1040F000801C2063E08E401EE08600200290206835
:10410000806800F0010068B1E08F58B12068C06895
:10411000A16B0880A06B801CA063E08F401EE0872D
:1041200001200290FEF7E4FEC01BB04204D3701CD5
:1041300010B1032001906AE0E08E0028C8D1E08F22
:104140000028C5D14AE0606810B1BAF1010F09D169
:10415000206B007821680873206B401C2063E08E80
:10416000401EE08634E02068806800F002000228EB
:1041700010D1E08E70B1029801280BD1206B00782D
:1041800021680873206B401C2063E08E401EE0868F
:10419000002002902068806800F0010068B1E08F84
:1041A00058B12068C068A16B0870A06B401CA06368
:1041B000E08F401EE08701200290FEF799FEC01BB1
:1041C000B04201D3701C00B916B9032001901EE063
:1041D000E08E0028C7D1E08F0028C4D13A4631468E
:1041E000204602F021FF20B10120019020206065CF
:1041F0000DE0A06850B900BF002000902068C068A2
:10420000009020688068009000BF00BF00BF0120C0
:1042100084F8510000BF002084F8500000BF0198CE
:10422000FBE6042808D14FF0E021096941F00401C0
:104230004FF0E022116107E04FF0E021096921F021
:1042400004014FF0E0221161704770B50446254625
:10425000681EB0F1807F01D301200FE0681E4FF08F
:10426000E02148610F214FF0FF3004F007F90020F2
:104270004FF0E021886107200861002070BD704781
:10428000704770B504460D4604222946206803F0A5
:104290007CFA2068406C40F4004021684864206843
:1042A000806800F00706062E05D02068006840F000
:1042B000010021680860002070BD01460868C068E0
:1042C00040F001000B68D8600868806800F00702C1
:1042D000062A05D00868006840F001000B681860E5
:1042E00000207047704710B5044620680069C0F38D
:1042F0004000D8B12068C068C0F34000B0B16FF092
:10430000020021680861012020772068806900F0A0
:10431000030018B12046FFF7E5FF05E0204600F056
:10432000ADF8204600F02FF90020207720680069C2
:10433000C0F38000D8B12068C068C0F38000B0B17D
:104340006FF00400216808610220207720688069EE
:1043500000F4407018B12046FFF7C4FF05E0204686
:1043600000F08CF8204600F00EF90020207720683D
:104370000069C0F3C000D8B12068C068C0F3C000B5
:10438000B0B16FF008002168086104202077206830
:10439000C06900F0030018B12046FFF7A3FF05E055
:1043A000204600F06BF8204600F0EDF80020207762
:1043B00020680069C0F30010D8B12068C068C0F35D
:1043C0000010B0B16FF0100021680861082020775C
:1043D0002068C06900F4407018B12046FFF782FFE2
:1043E00005E0204600F04AF8204600F0CCF8002016
:1043F00020772068006900F0010058B12068C0688B
:1044000000F0010030B16FF0010021680861204622
:1044100000F0E0F820680069C0F3C01058B12068CF
:10442000C068C0F3C01030B16FF08000216808612F
:104430002046FFF724FF20680069C0F3801058B1C0
:104440002068C068C0F3801030B16FF04000216870
:104450000861204600F0BFF820680069C0F34010F2
:1044600058B12068C068C0F3401030B16FF0200030
:10447000216808612046FFF703FF10BD704770B543
:1044800004460D46164600BF94F83C00012801D1B1
:10449000022070BD012084F83C0000BF022084F897
:1044A0003D0036B1042E1BD0082E31D00C2E5ED12B
:1044B00045E02946206803F079F92068806940F0DA
:1044C0000800216888612068806920F00400216864
:1044D000886120688069296908432168886147E00C
:1044E0002946206803F092F92068806940F4006052
:1044F000216888612068806920F480602168886173
:1045000020688069296940EA0120216888612FE0DC
:104510002946206803F0AEF92068C06940F0080021
:104520002168C8612068C06920F004002168C86162
:104530002068C069296908432168C86118E02946D4
:10454000206803F0CBF92068C06940F4006021685E
:10455000C8612068C06920F480602168C861206853
:10456000C069296940EA01202168C86100E000BFF4
:1045700000BF012084F83D0000BF002084F83C000B
:1045800000BF00BF85E7704770B504460E460122A4
:104590003146206803F0E8F80D492068884201D1CF
:1045A000012000E0002028B12068406C40F4004069
:1045B000216848642068806800F00705062D05D052
:1045C0002068006840F0010021680860002070BD8C
:1045D00000000140704770477047014600220023E9
:1045E00091F8392091F83A3042EA03007047000010
:1045F0002DE9F0470446206805682068C6682068F1
:1046000047694FF00008C14605F00F08B8F1000FE8
:104610000AD105F0200038B106F0200020B1204674
:1046200003F090FCBDE8F087B8F1000F6ED007F002
:10463000010018B906F49070002867D005F0010059
:1046400030B106F4807018B1E06B40F00100E06317
:1046500005F0040030B107F0010018B1E06B40F044
:104660000200E06305F0020030B107F0010018B16C
:10467000E06B40F00400E06305F0080030B107F0A3
:10468000010018B1E06B40F00800E063E06B70B32C
:1046900005F0200028B106F0200010B1204603F0FC
:1046A00051FC20684069C0F38019E06B00F00800FD
:1046B00010B9B9F1000F23D0204603F019FC20688F
:1046C000406900F04000402816D12068406920F081
:1046D000400021684861606B50B11748616B086504
:1046E000606BFEF705F910B1606B016D88470CE057
:1046F0002046FFF771FF08E02046FFF76DFF04E05A
:104700002046FFF769FF0020E0638BE705F080009B
:1047100030B106F0800018B1204603F01BFE81E79F
:1047200005F0400030B106F0400018B1204603F01B
:10473000EFFB77E700BF75E7F17D000810B5044691
:104740000CB9012010BDA06900B100E000BF94F8D1
:10475000390028B9002084F83800204600F028F8F5
:10476000242084F839002068C06820F400502168B3
:10477000C860204603F03AFC2068006920F49040AD
:10478000216808612068406920F02A00216848619A
:104790002068C06840F400502168C8600020E063D1
:1047A000202084F8390084F83A000020CAE700008D
:1047B00010B586B00446142101A8FBF751FD5E49EF
:1047C000206888425AD100BF002000905B480068F2
:1047D00040F01000594908600846006800F01000D9
:1047E000009000BF00BF00BF002000905348143865
:1047F000006840F00100514914390860084600681B
:1048000000F00100009000BF00BF4FF4C0600190B5
:1048100002200290012003900320049007200590BD
:1048200001A94748FEF76CFA4648474908604FF02F
:10483000006048604021444881600021C1604FF41D
:1048400080610161002141618161C1614FF480316A
:10485000016204214162FEF77FF908B1FDF786FA93
:1048600000BF39482063846300BF00221146252021
:10487000FEF7D6FE2520FEF7C3FE5AE03349206836
:10488000884256D100BF002000902C48006840F0BC
:1048900020002A4908600846006800F020000090C7
:1048A00000BF00BF00BF00200090244814380068FB
:1048B00040F004002149143908600846006800F0FF
:1048C0000400009000BF00BFC020019002200290B1
:1048D00001200390032004900820059001A91C48A2
:1048E000FEF70EFA174818381A4908604FF0206092
:1048F00048604021174881600021C1604FF4806109
:104900000161002141618161C16101624162FEF783
:1049100023F908B1FDF72AFA00BF0E48206384632B
:1049200000BF002211464720FEF77AFE4720FEF71F
:1049300067FE06B010BD0000001001404438024080
:1049400000000240B86402409404002000140140BA
:1049500000080240F404002010B5034693F83A0022
:1049600020282FD101B10AB9012010BD00BF93F852
:104970003800012801D10220F7E7012083F8380030
:1049800000BF99629A85DA850020D863222083F8D7
:104990003A0000BF002083F8380000BF1868C068E4
:1049A00040F480701C68E0601868406940F00100C5
:1049B0001C6860611868C06840F020001C68E060F6
:1049C0000020D2E70220D0E710B50446104909784C
:1049D000104A1068421C0F4B1A600F4A11541846B7
:1049E0000068402802D10020194608600B48006882
:1049F000401C0A490860402804D1002008600120BA
:104A000007490870012202490648FFF7A5FF10BDBB
:104A10001D0000202800002050260020300000202B
:104A200034000020D4030020F7B50446154694F85E
:104A3000390020283DD1019800B10DB90120FEBDFB
:104A400000BF94F83800012801D10220F7E70120C7
:104A500084F8380000BF01982062A584E584002016
:104A6000E063212084F839001348216BC8631348A0
:104A7000216B08641248216BC8640020216B086513
:104A800001AE23681A1D31682B46206BFEF7DAF859
:104A90006FF040002168086000BF002084F83800F3
:104AA00000BF2068406940F0800021684861002014
:104AB000C5E70220C3E70000557E00088B7E000892
:104AC000057E00087047704700BFFEE70146086892
:104AD0004069C0F38020B0B16FF480600A68506113
:104AE00000200863202081F83D00002081F83E006E
:104AF000086C40F00400086400BF002081F83C000E
:104B000000BF012070470020FCE700002DE9F843BA
:104B100004460D4690461E46E76A2068006840F449
:104B2000806021680860082F04D0012F02D017F59B
:104B3000803F06D12068006840F4807021680860DA
:104B400008E0206B112805D12068006840F48070CF
:104B500021680860434600224FF00111204600966C
:104B600000F0F8F850B12068006800F4807010B1CF
:104B70004FF4007020640320BDE8F8832069B0F58D
:104B8000804F05D1E8B240F001002168086147E09C
:104B900005F44070F02141EAE010216808613346D5
:104BA00042462549204600F018F908B10120E3E704
:104BB000E8B221680861334642461F49891F2046F2
:104BC00000F00BF908B10120D6E700BF00200090EB
:104BD00020684069009020688069009000BF00BF95
:104BE0002068006840F48070216808604346002215
:104BF0004FF001112046009600F0ACF848B1206853
:104C0000006800F4807010B14FF40070206403203D
:104C1000B2E705F44070F12141EAE0102168086133
:104C2000334642460449891F204600F0D6F808B1B1
:104C30000120A1E700209FE7080001002DE9F843CB
:104C400004460D4617469846E66A082E04D0012E03
:104C500002D016F5803F06D12068006840F48070CD
:104C60002168086008E0206B122805D120680068E0
:104C700040F48070216808603B4600224FF001112B
:104C80002046CDF8008000F065F850B1206800683B
:104C900000F4807010B14FF4007020640320BDE870
:104CA000F8832069B0F5804F04D105F0FE0021683B
:104CB000086112E005F44070F02141EAE01021683B
:104CC000086143463A460B49204600F086F808B191
:104CD0000120E4E7E8B22168086143463A46054905
:104CE000891F204600F079F808B10120D7E700209D
:104CF000D5E700000800010070B504460D461646D1
:104D000020E02046FFF7E2FE08B1012070BD681CDC
:104D1000C0B1FEF7EDF8801BA84200D895B900207D
:104D20002063202084F83D00002084F83E00206CA1
:104D300040F02000206400BF002084F83C0000BF49
:104D40000120E3E720684069C0F380000028D8D044
:104D50000020DBE72DE9F04104460D4617461E46CC
:104D6000DDF818801CE0701CD0B1FEF7C1F8A0EB94
:104D70000800B04200D89EB900202063202084F8AB
:104D80003D00002084F83E00206C40F020002064AC
:104D900000BF002084F83C0000BF0120BDE8F08186
:104DA000C5F3074001280AD120684069A9B208402C
:104DB000A9B2884201D101200BE0002009E020685F
:104DC0008069A9B20840A9B2884201D1012000E05F
:104DD0000020B842C7D00020E0E72DE9F0410446AA
:104DE0000D4616461F463DE020684069C0F380200E
:104DF000E8B12068006840F40070216808606FF432
:104E000080602168486100202063202084F83D00F4
:104E1000002084F83E00206C40F00400206400BFB5
:104E2000002084F83C0000BF0120BDE8F081701C28
:104E3000C0B1FEF75DF8C01BB04200D896B90020A3
:104E40002063202084F83D00002084F83E00206C80
:104E500040F02000206400BF002084F83C0000BF28
:104E60000120E2E7C5F3074001280AD12068406924
:104E7000A9B20840A9B2884201D101200BE000206C
:104E800009E020688069A9B20840A9B2884201D12E
:104E9000012000E000200028A6D00020C5E770B562
:104EA00004460D46164632E020684069C0F3001003
:104EB000A0B16FF01000216848610020206320201D
:104EC00084F83D00002084F83E00206C206400BF80
:104ED000002084F83C0000BF012070BDFEF708F8F8
:104EE000801BA84200D895B900202063202084F8B8
:104EF0003D00002084F83E00206C40F0200020643B
:104F000000BF002084F83C0000BF0120E5E72068D6
:104F10004069C0F380100028C6D00020DDE770B5DE
:104F200004460D46164620E02046FFF7CFFD08B1A7
:104F3000012070BD681CC0B1FDF7DAFF801BA842DC
:104F400000D895B900202063202084F83D0000207F
:104F500084F83E00206C40F02000206400BF002058
:104F600084F83C0000BF0120E3E720684069C0F3FB
:104F7000C0100028D8D00020DBE7000010B50022C8
:104F800010210248FDF7AEFF10BD000000100240E6
:104F900010B5012210210248FDF7A4FF10BD00004A
:104FA0000010024070B50446FFF7E8FF200A00F049
:104FB00011F8E0B200F00EF8002000F00BF801202C
:104FC00000F008F8002000F005F80546FFF7E0FFC4
:104FD000284670BD10B50446204604F08DFD10BD76
:104FE00070B504460D46FFF7C9FF200AFFF7F2FF30
:104FF000E0B2FFF7EFFF8020FFF7ECFF0120FFF7A3
:10500000E9FF2846FFF7E6FFFFF7C2FF012070BD6A
:10501000002120F8181F40F6B8314180017921F0B5
:1050200001010171017921F00201017101228188E0
:1050300062F38D018180C1886FF30B01891CC180EF
:10504000C17921F03001C171017A21F00701891D78
:105050000172017A21F008010172017A21F0100138
:10506000103101723222018962F34E110181417ABD
:1050700021F080014172817A21F00F010F3181729C
:10508000817A21F0100110318172817A21F02001A2
:105090008172817A21F0400140318172817A21F060
:1050A00080018172C17A21F00101C172C17A21F0BF
:1050B0000201C172C17A21F00401C172C17A21F0EA
:1050C00008010831C172C17A21F01001C172C17AA0
:1050D00021F02001C172C17A21F0C001C172818921
:1050E0006FF30B0196318181417B21F0100110316A
:1050F0004173417B21F0E001417308218173C17B41
:1051000021F00101C173C17B21F00201C173C17B98
:1051100021F00401C173C17B21F00801C173C17B7F
:1051200021F03001C173C17B21F040014031C173D6
:10513000017C21F00301C91C0174017C21F00C01E8
:10514000091D01741838704770B50346002000BF70
:1051500009E04FF0FF35002402F1080606EBC00617
:10516000C6E90054401C0228F3D300241460002038
:1051700015E04FF0FF3441F8204001F1800606EBC6
:10518000C00634607460254601F5607606EBC00603
:1051900035607560002501F590642554401C202879
:1051A000E7D30024C1F8A044002002E000241C54EE
:1051B000401CB0F5806FF9D3002403F580631C60B8
:1051C0005C609C60DC6000251D615D619D61DD614E
:1051D000A3F5806370BD00007CB505460024002067
:1051E0000190F8480488008818B9284603F0E2FFC7
:1051F00004460020F3490880F3490860F34890ED25
:10520000000ADFEDF30AB4EEE00AF1EE10FA03DC77
:10521000F04800889D282CD90020EF4908709FEDA8
:10522000EF0AEA4880ED000A0020ED490860ED49E8
:105230000870ED490870ED4908600120EC490860EC
:10524000EC4908600020EC490870EC490870EC4912
:105250000870EC490860EC4908602020EB490870B0
:10526000EB4908700020EB490870EB490870D949F8
:1052700008802FE1D4480068285C7E2830D1D648C9
:10528000007800282CD10120D34908709FEDD30A63
:10529000CE4880ED000A0020D1490860D14908704D
:1052A000D1490870D14908600120D1490860D1492D
:1052B00008600020D0490870D0490870D0490870B3
:1052C000D0490860D04908602020D0490870D049F2
:1052D00008700020CF490870CF490870BD49088088
:1052E000B9480068285CCD49BD4A12688854B9485D
:1052F0000088401CB7490880C848B9490968405C23
:105300003B280ED1C448007858B9B348007801282A
:1053100007D10020B04908700120B3490870BD4989
:105320000870BE48AE490968405C3D2805D0BB48BE
:10533000AB490968405C3A2807D1AF48007820B9EA
:105340000120AD490870B3490870B448A449096800
:10535000405C2E280AD1A948007838B9AE480078B8
:1053600020B90120A5490870AA490870AB489C499A
:105370000968405C242808D1A148007828B9022097
:105380009F4908700120A3490870954800680228C9
:105390006AD9A2488078202866D19E4800780028E3
:1053A00062D19748007802285ED29348007801289D
:1053B00007D09A488A490968405C99498B4A126823
:1053C00088548D48007801280AD18C48007838B973
:1053D000924883490968405C8C49854A1268885420
:1053E0008548007801280BD184480078012807D12E
:1053F0008A487B490968405C85497E4A126888541E
:105400007D480078012809D07848006820282BD2F0
:1054100076480068401C7549086025E076480078A9
:10542000012810D17548007868B971480068C8280B
:1054300009D26F480068401C6D49086072480068D6
:10544000401C714908606C48007801280CD16B48F9
:105450000078012808D167480068C82804D2654848
:105460000068401C634908606548007802280BD139
:105470006848007840B9694859490968405C614901
:10548000086001205E4908705F4800685D4909684E
:10549000884206D25A480078012802D15E49087035
:1054A00002E000205C4908704D480068C82804D21A
:1054B0004B480068401C4A49086043480068C828B7
:1054C00004D241480068401C3F490860641E002027
:1054D00050490870002C7FF4CDAE43480078012875
:1054E0006DD14E4800787E2805D13E48007840F0C6
:1054F00001003C490870494840784A490978884287
:1055000005D13848007840F0020036490870354827
:10551000007803280ED144A14148FAF7B3FE50B9F0
:105520003A48FAF7BDFE4249086042480CC842A01A
:1055300004F0DAFB25E243A13948FAF7A3FE70B97B
:105540003248FAF7ADFE3A490860084601683EA0C5
:1055500004F0F4FB36490878FBF76EFF11E23DA139
:105560002F48FAF78FFE58BB2848FAF799FE3049C2
:1055700008600846016834A004F0E0FB2C4800688D
:10558000012805D10122C1023448FDF7ABFC05E03A
:1055900000224FF400613148FDF7A4FC2448006864
:1055A000012805D1012201032C48FDF79BFCE8E10D
:1055B00000224FF480512948FDF794FCE1E12DE2EF
:1055C0004EE000004800002054000020740000203D
:1055D000000048424A000020520000200000000065
:1055E0004C000020500000205100002058000020F6
:1055F0005C0000206000002068000020690000209E
:105600006A000020640000206C0000206228002056
:105610002A29002071000020700000207927002036
:10562000422800204100002074696D6500000000E0
:10563000C0000020A800002054494D455F53595335
:105640003A00000061747400EFF0E8EDFFEB2061B8
:1056500074743A0041504C460000000000000240C3
:10566000F4A1F548FAF70EFED0B9F448FAF718FE9F
:10567000F349086008460168F2A004F05FFBF048B7
:105680000068FBF743FE00224FF40061F048FDF78D
:1056900029FC00224FF48051ED48FDF723FC70E116
:1056A000ECA1E548FAF7EEFD60B9E448FAF7F8FD39
:1056B000E349086008460168E7A004F03FFB01F0F9
:1056C000A5F95EE1E7A1DC48FAF7DCFD60B9DB484B
:1056D000FAF7E6FDDA49086008460168E2A004F03E
:1056E0002DFB00F039FB4CE1E2A1D348FAF7CAFDEB
:1056F00068B9D248FAF7D4FDD14908600846016874
:10570000DEA004F01BFBE14801F018FD39E1E0A147
:10571000C948FAF7B7FD70B9C848FAF7C1FDC849DA
:10572000086008460168DCA004F008FBC44908785A
:1057300004F09AF925E1DCA1BF48FAF7A3FDC8B946
:10574000BE48FAF7ADFDBE49086008460168D7A01B
:1057500004F0F4FABA480068012805D101221021AA
:10576000D548FDF7BFFB0CE100221021D248FDF720
:10577000B9FB06E1D1A1B048FAF784FD60B9AF48A2
:10578000FAF78EFDAE49086008460168CEA004F025
:10579000D5FA01F043FDF4E0D0A1A748FAF772FD75
:1057A000C0B9A648FAF77CFDA5490860084601681B
:1057B000CCA004F0C3FAA248008881B24FF47A73F7
:1057C0000122CC48FDF79AFB06463146CAA004F0F8
:1057D000B5FAD6E0CAA19848FAF754FD70B99748CF
:1057E000FAF75EFD9649086008460168C6A004F015
:1057F000A5FA93480078C8490870C2E0C7A18E484E
:10580000FAF740FD78B98D48FAF74AFD8C490860EF
:1058100008460168C2A004F091FA8949098888B253
:1058200001F026F9ADE0C1A18348FAF72BFDC8B914
:105830008248FAF735FD8249086008460168BDA034
:1058400004F07CFA7E480068012805D101228021FD
:105850009948FDF747FB94E0002280219648FDF728
:1058600041FB8EE0B7A17448FAF70CFD60B97348AC
:10587000FAF716FD7249086008460168B4A004F002
:105880005DFAFBF7C3F97CE0B6A16B48FAF7FAFCC6
:1058900030B9B6A002F07CFA002000F0BBFE70E048
:1058A000B6A16548FAF7EEFCC0B9B7A002F070FAED
:1058B0006248FAF7F5FC624908600846008881B240
:1058C0000A2301228B48FDF719FB18B9B3A002F097
:1058D0005FFA56E0B4A002F05BFA52E0B5A1564878
:1058E000FAF7D0FCD0B9B7A002F052FA5348FAF751
:1058F000D7FC53490860B948FAF7D2FCB8490860A8
:105900000846007801900A2000904D48008881B236
:10591000012301AA7748FDF747FD32E0B1A14648CF
:10592000FAF7B0FCB8B9B2A002F032FA4348FAF77D
:10593000B7FC434908600A2000900846008881B2FD
:10594000012301AA6B48FDF7B3FB9DF80410ADA03D
:1059500004F0B2FA15E0ADA13748FAF793FC28B984
:10596000ACA002F015FA03F06BFB0AE0ADA13248DF
:10597000FAF788FC28B9ADA002F00AFA002000F07E
:1059800049FE002403E000202B490855641C202C0C
:10599000F9D3002403E0002028490855641CC82CD2
:1059A000F9D3002403E000208C490855641CC82C5E
:1059B000F9D3002403E00020A0490855641CC82C3A
:1059C000F9D31FEDFA0A9E4880ED000A00209D4998
:1059D00008709D4908609D49087000249C49087022
:1059E0009C4908609C4908609C4908709C49086073
:1059F0009C4908709C4908609C4908709C49086053
:105A00009C4908609C4908709C49087020200B49FB
:105A10000870724908700020994908808C48007805
:105A2000012804D189480078012800D100BF6C48C2
:105A300000687CBD61646600422800206228002066
:105A4000C0000020EFF0E8EDFFEB206164663A0053
:105A5000000002406D656D00EFF0E8EDFFEB206D9A
:105A6000656D3A004D534700EFF0E8EDFFEB204D38
:105A700053473A0049445F5345525600EFF0E8ED72
:105A8000FFEB2049445F534552563A00204F002017
:105A90007370693200000000EFF0E8EDFFEB207357
:105AA0007069323A000000006E737300EFF0E8EDA9
:105AB000FFEB206E73733A00001002406574685F5C
:105AC000696E697400000000EFF0E8EDFFEB2065FF
:105AD00074685F696E69743A000000006932635F40
