:020000040800F2
:1000000020880020AD010008914D000855360008F9
:10001000094A0008A51000083D6200080000000021
:100020000000000000000000000000001154000863
:100030001914000800000000314E0008E5560008C1
:10004000C7010008C7010008C7010008C701000870
:10005000C7010008C7010008B5140008C91400084A
:10006000C7010008DD140008C7010008C701000827
:10007000C7010008C7010008C7010008C701000840
:10008000C7010008C7010008410A0008000000007D
:10009000000000000000000000000000F114000853
:1000A000C7010008C7010008C7010008C701000810
:1000B000C7010008C701000835580008C70100083B
:1000C000C7010008C7010008C7010008C7010008F0
:1000D000C701000825620008C701000800000000F1
:1000E000C7010008C7010008C701000800000000A0
:1000F000000000000000000000000000C701000830
:1001000000000000C7010008C7010008C70100087F
:1001100000000000000000000000000000000000DF
:1001200049130008C7010008C7010008C7010008FB
:10013000C7010008000000000000000000000000EF
:10014000000000000000000000000000C7010008DF
:10015000C701000855130008611300083162000848
:10016000C7010008C70100080000000000000000EF
:10017000000000000000000000000000000000007F
:1001800000000000C701000800000000000000009F
:10019000C7010008C7010008DFF80CD000F096FB8B
:1001A000004800479D6D00082088002006488047D1
:1001B00006480047FEE7FEE7FEE7FEE7FEE7FEE74C
:1001C000FEE7FEE7FEE7FEE7E157000899010008B9
:1001D0002DE9F05F0546002092469B46884606467C
:1001E000814640241BE0284641464746224600F00F
:1001F00020F853465A46C01A914110D3114618466A
:10020000224600F045FA2D1A67EB01084F462246B8
:100210000120002100F03CFA17EB00094E41201E9E
:10022000A4F10104DFDC484631462A464346BDE8D6
:10023000F09F202A04DB203A21FA02F000217047C7
:1002400021FA02F3D040C2F120029140084319463E
:100250007047D2B201E000F8012B491EFBD2704773
:100260000022F6E710B513460A4604461946FFF782
:10027000F0FF204610BD421C10F8011B0029FBD1E5
:10028000801A704710B5002200E0521C835C8C5C21
:10029000A34201D1002BF8D1D8B2E1B2401A10BD6F
:1002A00070B5064606F004F8046805460A220021E7
:1002B000304600F00EFA2C6070BD2DE9FE4F8046EE
:1002C00081EA0300C00F0C46009021F0004123F0AA
:1002D0000045B8EB0200A94105D2404621469046B0
:1002E0001C460B46024623F00040104347D0270D22
:1002F000C7F30A00C3F30A510290401A0190402844
:100300006BDAC3F3130040F4801B0098924620B1CF
:100310000023D2EB030A63EB0B0B01985946C0F1A3
:100320004002504600F0B4F906460D465046594684
:10033000019A00F0BCF910EB08006141002487EA43
:10034000115284EAE7731A4340D0009A62B3019ACB
:10035000012A4FEA075215DC001B61EB02014FF046
:10036000004202EA0752CDE90042001C41F580112B
:1003700032462B4600F02BFA03B0BDE8F08F404622
:100380002146F9E7001B61EB0201001C41F58013D7
:1003900000185B412018A2F5001747EB030140EA63
:1003A000D570B6196D4111E06D084FEA360645EA81
:1003B000C0754FEA0752001B61EB0201001C41F5BA
:1003C000801149084FEA30000019514132462B464E
:1003D00003B0BDE8F04F00F0EBB9009801224000F7
:1003E0000023D0EB020263EBE073009821464FEA52
:1003F000E074B8EB000061EB0401E9E783F000432F
:100400005BE781F0004158E72DE9FE4F81EA0304E4
:1004100004F0004421F0004100944FF0000B23F061
:10042000004350EA01045ED052EA03045BD0C3F3F8
:100430000A54C1F30A552C44A4F2F3340194A0FBEE
:100440000254C1F3130141F48011C3F3130343F4C5
:10045000801301FB024400FB034E840A970A44EA1E
:10046000815447EA8357A4FB076802958D0A05FB70
:1004700007854FEA932C04FB0C542705029D4FEA95
:10048000065847EA1637B5EB08056EEB070C870EE2
:10049000920E47EA811742EA8312A7FB0201B6EBEC
:1004A0000B0164EB00042B0D43EA0C335E1844EBA4
:1004B0001C50DA465146E7FB0201C5F313044FEA2C
:1004C0000B3343EA14534FEA0432019C43EA060318
:1004D000A4F10C040294009CCDE900B400F077F97B
:1004E00003B0BDE8F08F00200146F9E72DE9F04D9B
:1004F00081EA030404F0004B21F0004514464FF05C
:10050000000A23F0004150EA050220D054EA01021B
:100510001DD0C5F30A570246C5F31303C1F31300F8
:10052000C1F30A5640F4801543F48013A7EB060884
:10053000101BD64608F2FD3873EB050002D308F114
:10054000010801E092185B41B8F1000F03DA0020C6
:100550000146BDE8F08D00204FF480110646844628
:100560000EE0171B73EB050705D3121B63EB0503A6
:1005700006434CEA010C49084FEA300092185B41EF
:1005800050EA0107EDD152EA030012D082EA0400DA
:1005900083EA0501084305D0101BAB4106D20122B6
:1005A000002306E000224FF0004302E06FF001025A
:1005B00053101AEB06004CEB085110EB0A0041EB0C
:1005C0000B01BDE8F04D00F0F3B80EB5C10F80EAA5
:1005D000E0700844CA07002140F233438DE80E0062
:1005E0000A460B4600F0F3F803B000BD0EB540F22A
:1005F000334102910021CDE900110A460B4600F07B
:10060000E6F803B000BD00F0004230F000400AD030
:10061000C10D01F56071C0F3160042EA0151C20834
:1006200040071143704700200146704701F0004326
:1006300030B421F0004150EA010206D00A0DA2F5C3
:100640006072C1F31301002A02DC30BC0020704745
:10065000440F44EAC104C100E01830BC00EBC250B2
:1006600000F06FB830B50B4601460020202201246F
:1006700009E021FA02F59D4205D303FA02F5491B70
:1006800004FA02F52844151EA2F10102F1DC30BD86
:10069000202A04DB203A00FA02F100207047914042
:1006A000C2F1200320FA03F3194390407047202A37
:1006B00006DBCB17203A41FA02F043EAE07306E08A
:1006C00041FA02F3D040C2F120029140084319469A
:1006D00070472DE9F04791460F46804604460026B4
:1006E00014F8015B2DB100F003F90068405DC0070C
:1006F000F6D12B2D02D02D2D18D0641E4A46394636
:10070000204600F0F9F827B13968A14201D1C7F8B5
:10071000008071054FF002040BD54042002803DD34
:1007200005F0C6FD0460A007BDE8F08746F48066CA
:10073000E4E70028F8DA05F0BBFD04606FF0004044
:10074000F2E70029A8BF7047401C490008BF20F00D
:100750000100704710B4B0FA80FC00FA0CF050EAC7
:10076000010404BF10BC704749B1CCF1200421FA48
:1007700004F411FA0CF118BF012121430843A3EB43
:100780000C01CB1D4FEA00614FEA102042BF002050
:1007900010BC704700EBC35010440029A4BF10BC2C
:1007A0007047401C490008BF20F0010010BC704792
:1007B00010B5141E73F1000408DA401C41F1000169
:1007C00092185B411A4301D120F0010010BD2DE9C0
:1007D000F04D92469B4611B1B1FA81F202E0B0FAB7
:1007E00080F220329046FFF753FF04460F4640EA5E
:1007F0000A0041EA0B0153465A46084313D01146FA
:1008000053EA010019D0C8F140025046FFF711FD2C
:1008100005460E46504659464246FFF739FF084303
:1008200005D0012004E020463946BDE8F08D0020C7
:10083000054346EAE0762C4337430A986305E40A09
:10084000A0EB08000022FD0A44EA47540A3002D512
:1008500000200146E9E7010510196941DDE9084575
:1008600000196941BDE8F04DA2E7C1F30A52C1F396
:10087000130140F2FF3341F480119A4202DA002062
:100880000146704740F233439A42A2F2334202DCFF
:100890005242FFF7CEBCFFF7FBBE000030B5041E8E
:1008A00071F1000404DB4FF00044404264EB0101AD
:1008B000141E73F1000405DB1C464FF00043524246
:1008C00063EB0403994208BF904230BD064C074DCC
:1008D00006E0E06840F0010394E807009847103410
:1008E000AC42F6D3FFF75CFC507A0008707A00083F
:1008F00000487047047A00082DE9F05F82460078CE
:10090000002715468B460AF10104B946302801D06C
:100910009DB113E014F8010B0127782803D0582863
:1009200001D045B10AE00DB1102D07D100271025E7
:1009300014F8010B02E0082500E00A250026B04665
:100940000EE005FB080005FB06F1012701EB104650
:100950001FFA80F8B6F5803F00D3B94614F8010BB2
:10096000294600F018F80028EBDABBF1000F05D09B
:100970000FB1641E00E05446CBF80040B9F1000FFF
:1009800006D005F095FC02210160C81EBDE8F09F6D
:1009900048EA0640FAE73A2800D2303820F0200230
:1009A000412A01D3A2F13700884201D34FF0FF3032
:1009B000704710B50146806B026C12F0500F05D0E5
:1009C000026CD20626D500F094FF10BD016C41F4F4
:1009D0000071016401688A6812F0405F17D1027EDD
:1009E000AAB9CA6A12F4700F02D08A6852050ED4EE
:1009F0004A6822F020024A60016C21F4807101648F
:100A0000016CC90403D4016C41F00101016400F0E0
:100A100067FF10BD806BC26CBDE8104008461047F0
:100A200010B5806B40210164416C41F004014164C8
:100A300000F05FFF10BD10B5806B00F059FF10BDD6
:100A400010B5034800F056FF02490120087010BDA0
:100A50001C0100207A000020464910B54A6822F4A3
:100A600040324A604A6843681A434A6001684A68EB
:100A700022F480724A6001684A68036942EA0322EC
:100A80004A6001684A6822F040724A6001684A6818
:100A900083681A434A6001688A6822F400628A60A7
:100AA00001688A68C3681A438A60816A6FF070625D
:100AB000D14201688A6822F070628A6001688A689F
:100AC0000CD0836A1A438A6001688A6822F0405217
:100AD0008A6001688A68C36A1A4301E022F04052C2
:100AE0008A6001688A6822F002028A6001688A6866
:100AF000037E42EA43028A6090F8201000290168D0
:100B00004A680FD042F400624A6001684A6822F4E1
:100B100060424A6001684A68174C436A04EB4333F9
:100B20001A4301E022F400624A600168CA6A22F4B2
:100B30007002CA620168CA6A838B104C04EB0353CB
:100B40001A43CA6201688A6822F400728A600168E6
:100B50008A6890F8303042EA43228A6001688A68E5
:100B600022F480628A6001688A68406942EA8020D3
:100B7000886010BD0023014000E0FFFF0000F0FF8F
:100B800070B5B54900202DED068B4862B34D28881D
:100B9000FFF72CFD9FEDB28B53EC182BFFF734FCC5
:100BA0009FEDB19B53EC192BFFF72EFC9FEDB0ABE3
:100BB00053EC1A2BFFF728FCFFF738FD05F10C0466
:100BC00020606888FFF712FD53EC182BFFF71CFC20
:100BD00053EC192BFFF718FC53EC1A2BFFF714FCFE
:100BE000FFF724FD6060A888FFF700FD53EC182B89
:100BF000FFF70AFC9FEDA01B53EC112BFFF704FC41
:100C000053EC192BFFF700FCFFF710FDA060E888FC
:100C1000FFF7ECFC53EC182BFFF7F6FB53EC192B0A
:100C2000FFF7F2FB53EC1A2BFFF7EEFBFFF7FEFC8E
:100C3000E0602889FFF7DAFC53EC182BFFF7E4FBA0
:100C400053EC192BFFF7E0FBFFF7F0FC206128893C
:100C5000FFF7CCFC53EC182BFFF7D6FB53EC192B0A
:100C6000FFF7D2FBFFF7E2FC60612889FFF7BEFCCB
:100C700053EC182BFFF7C8FB53EC192BFFF7C4FB01
:100C8000FFF7D4FCA0612889FFF7B0FC53EC182BC8
:100C9000FFF7BAFB53EC192BFFF7B6FBFFF7C6FCC7
:100CA000E0612889FFF7A2FC53EC182BFFF7ACFB9F
:100CB00053EC192BFFF7A8FBFFF7B8FC206228893B
:100CC000FFF794FC53EC182BFFF79EFB53EC192B0A
:100CD000FFF79AFBFFF7AAFC60622889FFF786FC02
:100CE00053EC182BFFF790FB53EC192BFFF78CFB01
:100CF000FFF79CFCA0622889FFF778FC53EC182BC7
:100D0000FFF782FB53EC192BFFF77EFBFFF78EFCFE
:100D1000E0622889FFF76AFC53EC182BFFF774FB9D
:100D200053EC192BFFF770FBFFF780FC2063288939
:100D3000FFF75CFC53EC182BFFF766FB53EC192B09
:100D4000FFF762FBFFF772FC60632889FFF74EFC38
:100D500053EC182BFFF758FB53EC192BFFF754FB00
:100D6000FFF764FCA0632889FFF740FC53EC182BC5
:100D7000FFF74AFB53EC192BFFF746FBFFF756FC36
:100D8000E0633FA004F0B0FF94ED000A40A005F03E
:100D90002DFF94ED010A42A005F028FF94ED020A10
:100DA00043A005F023FF94ED030A45A005F01EFFC4
:100DB00094ED040A46A005F019FF94ED050A48A039
:100DC00005F014FF94ED060A49A005F00FFF94ED1D
:100DD000070A4BA005F00AFF94ED080A4CA005F0A5
:100DE00005FF94ED090A4EA005F000FF94ED0A0AF4
:100DF0004FA005F0FBFE94ED0B0A51A005F0F6FEA6
:100E000094ED0C0A52A005F0F1FE94ED0D0A54A0E9
:100E100005F0ECFE94ED0E0A55A005F0E7FE94ED0A
:100E20000F0A57A005F0E2FE59A004F05DFF2988E3
:100E300058A006F0BBFC698819A006F0B7FCA98889
:100E40001BA006F0B3FCE9881DA0BDEC068BBDE835
:100E5000704006F0ABBC000008000020D803002062
:100E60006666666666660A40000000000000303F65
:100E700000000000000000405DBF60376CDB1640E2
:100E80000D0A2D2D2D2D2D2D2D2D2D0D0A0000009F
:100E9000434F4E54525F315F3409203A0000000046
:100EA000434F4E54525F325F3420202020203A00BE
:100EB000434F4E54525F335F3420202020203A00AD
:100EC000434F4E54525F345F3420202020203A009C
:100ED000434F4E54525F315F3109203A0000000009
:100EE000434F4E54525F325F3120202020203A0081
:100EF000434F4E54525F335F3120202020203A0070
:100F0000434F4E54525F345F3120202020203A005E
:100F1000434F4E54525F315F3209203A00000000C7
:100F2000434F4E54525F325F3220202020203A003F
:100F3000434F4E54525F335F3220202020203A002E
:100F4000434F4E54525F345F3220202020203A001D
:100F5000434F4E54525F315F3309203A0000000086
:100F6000434F4E54525F325F3320202020203A00FE
:100F7000434F4E54525F335F3320202020203A00ED
:100F8000434F4E54525F345F3320202020203A00DC
:100F90000D0D0D00434F4E54525F315F3420202021
:100FA00020203A000121B0FBF1F070B54300184851
:100FB00002F070FD164D28466B8305F0CBFE154EF2
:100FC00000228021304601F0A3F80122510212488C
:100FD00001F09EF80524214610A006F0FFFB55F80D
:100FE00024100FA006F092FC55F8240006F0C0FA79
:100FF00001228021304601F08BF8012000F00EFA2A
:1010000000228021304601F083F8641EE3D570BDD4
:10101000F0670020000C024000080240525B000014
:101020005D3A000070B50546136814460E46002070
:1010300004EBC001D1E902216A4071400A4302D0A9
:10104000401C0228F4D302280CD1022B0BD009A09B
:1010500004F04AFE206804EBC000C0E90256206894
:10106000411C216070BD07A004F03EFEC4E9025699
:10107000002070BDCDEEE2FBE920E0E4F0E5F121D7
:101080000D0A0000CFF0E5E2FBF8E5EDEE20F7E811
:10109000F1EBEE20CED2CFD0C0C2C8D2C5CBC5C9ED
:1010A000210D0A00FEE700002DE9F04F0024DFF8D3
:1010B0001092DFF810B285B00E460546A24605EB49
:1010C000C407D7E9201081F0010101437DD17EA042
:1010D00004F00AFE7FA004F007FE55F8240000216A
:1010E00005F020FE049055F82400012105F01AFEB9
:1010F000039055F82400022105F014FE804655F8AF
:101100002400032105F00EFE034655F824000421B7
:1011100005F008FE029055F82400052105F002FEB6
:10112000019055F82400062105F0FCFD009055F8CB
:101130002400072105F0F6FD02460498F15CDDF875
:1011400004C0305CB25C41EA00600399715C0B043E
:1011500016F8081043EA012108430299715C0B0A52
:10116000184316F80C30DDF800C0090641EA0341C7
:1011700040EA134016F80C3041EA032140EA1360BC
:101180001143C9E91A105BA002F00EFD4EA004F055
:10119000ABFDD7E9A0015A4AFFF744FF804641461C
:1011A00058A006F003FBD9F8680008EB4801CDE928
:1011B00000A001EBC8110BEB0111032322462846C6
:1011C00000F03CF92146284600E001E003F05AFF18
:1011D000D7E9201081F06401014320D1D7E9A001B3
:1011E000474AFFF71FFFD9F86810C846CDE900A1AC
:1011F00000EB400101EBC0110BEB01110323224670
:10120000284600F01BF92146284603F03BFF42A088
:10121000D8F8681006F0E2FA40A004F065FDD7E9BE
:10122000201081F00301014343D155F8240005F05B
:1012300079FD034655F82400012105F073FD0246AF
:1012400055F82400022105F06DFD804655F8240074
:10125000032105F067FD305CF15C40EA0160B15CA0
:101260000A0416F80810C84642EA0121084389F822
:101270000100D7E9A001224AFFF7D4FED8F8681090
:101280000323CDE900A100EB400101EBC0110BEB02
:1012900001112246284600F0D1F82146284603F0E5
:1012A000F1FE1FA004F020FD98F8011023A006F025
:1012B0007DFA641C202CFFF402AF05B0BDE8F08F6E
:1012C00008000020D02700200D0A2D2D2D2D2D2DBA
:1012D0000D0A0000CAEEECE0EDE4E03AF3F1F2E0D2
:1012E000EDEEE2EAE020E2F0E5ECE5EDE8210D0AC2
:1012F000000000007E302074696D653B0000000036
:1013000000410020CDEEECE5F020EEF2EFF0E0E25F
:10131000E8F2E5EBFF3A00005B0000005D0D0A001B
:10132000D3EFF0E0E2EBE5EDE8E520EFE8F2E0ED09
:10133000E8E5EC202B313256210D0A00535441527E
:10134000545F42503A000000014800F093BC000096
:1013500054460020014800F08DBC000014470020D6
:10136000024900200870024800F084BC0D000020F3
:10137000B446002001681823CAB2103AB2FBF3F257
:10138000054B6FF30901032A9B5CC36500D9091D56
:1013900081650846704700006079000810B5014675
:1013A00000208B698A6A4FF0C07453B1B3F5005FB7
:1013B00015D072B1012A0CD0022A0AD0032A09D111
:1013C00004E01AB1012A06D0022A03D1C96AC90170
:1013D00000D5012010BDC96AA142FAD010BD002A73
:1013E000F7D0012AF2D0022AF3D0032AF3D010BD9D
:1013F00030B50468256825F480252560046863609D
:101400008368402B036803D099600068C26030BDD8
:101410009A600068C16030BD704700000249C86230
:10142000C86A0028FCD1704708000020002101E0B4
:10143000491C89B28142FBD3704700002DE9F0417D
:1014400000EBC200DDE90656D0E9A027C1E9062776
:101450008A6A0024402A18D2D1F82CC0571C4CF1BB
:10146000000CC1E90A7C01EB421200275363C2E978
:101470001067D0E96030C2E90E300120106382F8B5
:101480004850086A2930086203E0012402A004F0F1
:101490002BFC2046BDE8F081EDE5F220ECE5F1F211
:1014A000E020E4EBFF20EAE2E8F2E0EDF6E8E921F3
:1014B0000D0A000010B5012000F054FD0149012083
:1014C000087010BD0000002010B5022000F04AFD99
:1014D00001490120087010BD0800002010B5082047
:1014E00000F040FD01490120087010BD7800002087
:1014F00010B5402000F036FD01490120087010BDF4
:1015000079000020704700002DE9F04F0446806804
:10151000627B00BA20F0FF01E07A12040143207BD5
:101520000026000641EAE071104341EAE271A27B25
:1015300087B01202104341EAE271E27BB1461043E8
:1015400041EAD271874AFFF76DFD21884ABA00EB64
:10155000400101EBC0108449069001EB0010804669
:101560000280618849BA41806168E27909BA21F054
:10157000FF0111438160A168627B09BA21F0FF037A
:10158000E17A12040B43217B090643EAE17311431C
:1015900043EAE273A27B1202114343EAE273E27B65
:1015A000114343EAD273C0E904132169627D09BA89
:1015B00021F0FF03E17C12040B43217D090643EA7D
:1015C000E173114343EAE273A27D1202114343EA3D
:1015D000E273E27D114343EAD273C0E90613A169C5
:1015E000E27E09BA21F0FF0111430162E169E27F65
:1015F00009BA21F0FF0111434162216A09BA21F0C1
:10160000FF0394F823100B4394F8241094F825203A
:10161000090643EAE1731204114343EAE27394F8C2
:101620002620DFF848B11202114343EAE27394F82E
:101630002720114343EAD27381622825C8F82C3051
:1016400085E0601908EB46130168C27809BA21F0F9
:10165000FF01114319634168C27909BA21F0FF0102
:10166000114359638168C27A09BA21F0FF0111431D
:10167000027B477B120641EAE2713F043A4341EAAA
:10168000E771877B3F023A4341EAE771C77B3A4300
:1016900041EAD771C3E90E210169C27C09BA21F080
:1016A000FF011143027D477D120641EAE2713F04CA
:1016B0003A4341EAE771877DC07D3F023A4341EA00
:1016C000E771024341EAD071C3E91021DBF800045D
:1016D000CBF804048246401E0027CBF82004E8190A
:1016E0002249205C03F0A6FD7F1C182FF7D30027AA
:1016F0000AE0E8192044DA19017E82F84810007ED9
:101700001A4903F097FD7F1C186BB842F1D8DBF83B
:1017100000143D44491CCBF82414D3E90E01CDE953
:101720000401D3E91001CDE90201D8F81010586B7B
:10173000CDE900010E490698534601EB00100D4A11
:101740000A49183503F0C8FC761C49F10009D8E9AC
:101750000A12711A79EB0200FFF473AF07B0BDE80B
:10176000F08F000000410020784700203038002032
:10177000D0270020583C00207047000078B5002496
:10178000009490F83C20012A19D0012280F83C20D6
:101790000A6807250368092A13D9DE680A3A02EBAA
:1017A00042029540AE43DE600A788B680A3A02EB4B
:1017B000420293400268D5682B43D36010E00220B8
:1017C00078BD1E6902EB42029540AE431E610A7865
:1017D0008B6802EB42029340026815692B43136148
:1017E0004A681F25072A13D203685E6B521E02EB5C
:1017F00082029540AE435E630A8893B20A79521E14
:1018000002EB820293400268556B2B43536327E03F
:1018100003680D2A12D21E6BD21F02EB8202954082
:10182000AE431E630A8893B20A79D21F02EB82028A
:1018300093400268156B2B43136311E0DE6A0D3A87
:1018400002EB82029540AE43DE620A8893B20A79C7
:101850000D3A02EB820293400268D56A2B43D362B1
:101860001B4B0568194A9D420AD10D68122D07D1FC
:10187000556825F400055560556845F480055560A8
:1018800005689D421DD1134D0B68AB4201D0112B51
:1018900017D1536823F480035360536843F4000363
:1018A00053600968A9420CD10B490C4A0968B1FB85
:1018B000F2F101EB8101490000E0491E009100298D
:1018C000FBD180F83C40002078BD0000002301409F
:1018D0000020014012000010F800002040420F00DC
:1018E0000248416A491C416270470000080000201C
:1018F0007047704770B5044600680168C1F3400244
:101900004168C1F3401152B349B3216CC90603D4F5
:10191000216C41F400712164816811F0405F17D19E
:10192000217EA9B9C16A11F4700F02D081684905FE
:101930000ED4416821F020014160206C20F48070B9
:101940002064206CC00403D4206C40F001002064AB
:101950002046FFF7C5FF21686FF01200086020687D
:1019600001684268C1F38001C2F3C01289B382B337
:10197000216CC90603D4216C41F4005121648168B3
:1019800011F4401F1ED1816B11F4401F02D08168F9
:10199000490517D44168490514D4816811F0405FA6
:1019A00010D1217E71B9416821F080014160206C25
:1019B00020F480502064206CC00503D4206C40F0DB
:1019C000010020642046FFF7D7FE21686FF00C006D
:1019D0000860206801684268C1F30001C2F3801208
:1019E00071B16AB10068C0070AD0206C40F4803041
:1019F0002064204600F046F821686FF0010008607E
:101A0000206801684268C1F34011C2F38062002976
:101A10000DD0002A0BD0616C41F0020161646FF0BF
:101A2000200505602046FFF764FF2068056070BD53
:101A300070B504004FF0000603D0206C002510B1F3
:101A400007E0012070BD204600F01EF8656484F8B0
:101A50003C50206CC00610D4206C20F4885040F01C
:101A6000020020642046FEF7F7FF6564206C20F03A
:101A7000020040F00100206400E0012684F83C50A0
:101A8000304670BD70470000F0B587B0064614219F
:101A90006846FEF7E5FB28493068884249D1274867
:101AA0000025016841F4807101600068234900F459
:101AB000807014390590086840F0040008600868D8
:101AC00000F004000590086840F001000860086814
:101AD00000F001000590086840F002000860086806
:101AE000012700F00200009705900320CDE90105D1
:101AF0006946134800F042FA134C1248C4E9000545
:101B00000015A560C4E90350400060618000A06139
:101B10004011E0610002206204206062C4E90A759D
:101B20002046256300F076F908B1FFF7EBFCB463BB
:101B3000A66307B0F0BD0000002001404438024019
:101B4000000002401064024054460020F8B5002313
:101B50000446009390F83C00012807D0012084F847
:101B60003C0020688568ED0702D011E00220F8BD36
:101B7000856845F0010585602E482F4D0068B0FB53
:101B8000F5F000EB400000E0401E00900028FBD183
:101B900020688568ED074AD0256C40F20166B543A0
:101BA00045F4807525644068400505D5206C20F417
:101BB000005040F480502064206CC00404D5606C58
:101BC00020F00600606400E0636484F83C30A36B9E
:101BD0001B481A4DD863A36B1A481864A36B1A48A4
:101BE000D86423686FF0220018602068436843F0CF
:101BF000806343602068836843F480738360134686
:101C000020680A46A66B00F14C01304600F06CF9E2
:101C10006868C006206802D00C49884207D18168F4
:101C200011F0405F03D1816841F080418160002064
:101C3000F8BD0000F800002040420F0000230140E2
:101C4000B3090008370A0008210A000800200140F3
:101C500090F83510022903D080214165012070479A
:101C6000052180F835100068016821F0010101604C
:101C7000002070472DE9F84304464FF00009CDF8E5
:101C8000009063484FF41651A56D0068B0FBF1F762
:101C90002E6894F85C20082101FA02F030420FD03F
:101CA0002068026852070BD5026822F00402026025
:101CB00094F85C008140A960606D40F001006065AF
:101CC00094F85C104FF0010808FA01F0304208D097
:101CD00021684969090604D5A860606D40F00200DA
:101CE000606594F85C1004208840304208D0216878
:101CF0000968890704D5A860606D40F0040060653C
:101D000094F85C1010208840304218D0216809688F
:101D1000090714D5A86020680168490304D5006844
:101D2000000308D5A16C07E00168C90503D4016868
:101D300021F008010160216C09B12046884794F820
:101D40005C1020208840304231D021680968C906E3
:101D50002DD5A86094F8350005282068016806D0C4
:101D6000490347D5006800031DD4616C1CE021F0D5
:101D7000160101602068416921F080014161206CF9
:101D800008B9A06C20B12068016821F00801016049
:101D900094F85C103F208840A86084F8349084F860
:101DA0003580216D1FE0E16B09B120468847606DE9
:101DB00000282BD0606DC00714D0052084F83500B2
:101DC0002068016821F0010101600098401C00902A
:101DD000B84203D820680068C007F6D184F8349070
:101DE00084F83580E16C002910D001B02046BDE8B0
:101DF000F04308470168C905D5D4016821F01001F6
:101E0000016084F8349084F83580CCE7BDE8F8832D
:101E1000F80000202DE9F041044600F07FF9054666
:101E20005CB1002684F83460022084F83500206814
:101E3000016821F0010101600DE00120BDE8F081A1
:101E400000F06CF9401B052805D9202060650320AF
:101E500084F83500F2E720680068C007F0D12168F7
:101E60000A6820480240D4E901031843D4E9033545
:101E70002B43184363691843A3691843E369184364
:101E8000236A18431043626A042A03D1D4E90B235E
:101E90001A431043086020684069656A20F0070112
:101EA00028460D43012704280CD1A06A0543E06AA7
:101EB00040B12046FFF772FA20B14020606584F8F7
:101EC0003570BAE7206845612046FFF753FA94F869
:101ED0005C203F2191408160666584F83570002068
:101EE000ACE700003F8010F02DE9F0410446866D1C
:101EF00090F83400002501280DD0012084F834002A
:101F000094F835700020012F07D084F834000225A2
:101F10002846BDE8F0810220FBE7022784F83570EF
:101F200060652046FFF764FA94F85C103F20884013
:101F3000B0602068016841F01601016020684169C5
:101F400041F080014161206C20B12068016841F0BE
:101F5000080101602068016841F001010160D7E7D4
:101F600070470000044910B50A68024202D00860B8
:101F7000FFF7F6FF10BD0000143C01402DE9F84FBB
:101F8000DFF86C91002209F1040A0AF1040B4FF00A
:101F90000F080BF1040E01260B6896403340B34244
:101FA00071D14C68022C01D0122C11D1D40800EB55
:101FB00084073D6A5407E40E08FA04FC25EA0C0580
:101FC000D1F810C00CFA04FC4CEA050CC7F820C08C
:101FD00007685400032591F804C0A5400CF0030CD9
:101FE000AF430CFA04FC4CEA070CC0F800C04F6881
:101FF000012F05D0022F03D0112F01D0122F11D1A4
:102000008768D1F80CC0AF430CFA04FC4CEA070C0B
:10201000C0F808C04768B7430E79C6F3001696406B
:102020003E434660C668AE438D68A5403543C560F3
:102030004C68E40056D52F4C256845F48045256052
:10204000246822F0030504F4804400942A4C2E19DD
:10205000D6F808789407250F08FA05F4A743274C0B
:10206000A04201D1002415E0254CA04201D1012459
:1020700010E0244CA04201D102240BE0224CA042EB
:1020800002D1032406E02DE0204CA04201D104241B
:1020900000E00724AC403C43C6F80848D9F80040AB
:1020A0004D464E689C43F60300D51C432C60DAF87D
:1020B000004055464E689C43B60300D51C432C6037
:1020C000DBF800405D464E689C43F60200D51C4399
:1020D0002C60DEF8004075464E689C43B60200D581
:1020E0001C432C60521C102AFFF455AFBDE8F88F3A
:1020F000003C0140443802400030014000000240F2
:102100000004024000080240000C0240001002409F
:102110000AB1816170470904FBE70000014880684B
:1021200070470000EC0000202DE9FF4F81B01F46F2
:1021300093460446FFF7F2FF054694F83D0001265A
:1021400020287DD11923012250492046009501F015
:1021500083FB002874D194F83C00012870D0012042
:1021600084F83C0020680168C90703D1016841F088
:10217000010101602068016821F4006101602420F0
:1021800084F83D004FF0000AC4F840A04048E062E7
:102190004FF020092068016841F4807101603B46DE
:1021A00000224FF001112046009501F055FB50B17F
:1021B00020680068C00502D54FF400702064032039
:1021C00005B0BDE8F08F0298216800F0FE000861BC
:1021D000FFF7A4FF0546206841694069C1F340014B
:1021E000C0F380204FF0A0080EE0FFF797FF401BE0
:1021F000B84200D80FB984F83D8020684169406931
:10220000C1F34001C0F3802094F83D20A02A02D001
:1022100009B90028E9D084F83D9020684169C94394
:10222000890717D4016841F400710160206856469F
:10223000416980691923012214492046009500E074
:1022400022E001F009FBA8B984F83D9084F83C60D5
:102250000020B5E7016841F40071016021686FF466
:10226000806048611923012208492046009501F049
:10227000F3FA08B10120A3E7761C5E458AD384F8FF
:102280003D9084F83CA0F5E7022099E70200100099
:102290000000FFFF2DE9F84F984617468A4604468E
:1022A000DDF82890FFF73AFF054694F83D00202816
:1022B00075D1192301226C492046009501F0CCFA12
:1022C0000028F5D194F83C00012868D0012084F85A
:1022D0003C0020680168C90703D1016841F0010191
:1022E00001602068016821F400610160222084F807
:1022F0003D00102084F83E00002626646762A4F8A2
:102300002A80608D20855948E0622B464A46514616
:10231000204601F0B7F9002878D1208D544F68B1DC
:10232000012814D002282068016816D041F4806189
:102330000160206841698069009087E020684169F8
:1023400081690091016841F4007101607EE02068BC
:10235000016821F480610160F0E721F4806101608F
:102360002068016841F40061E2E7032848D80128A9
:102370000AD0022814D04B46002239462046009548
:1023800001F06AFAD8BB27E02A464946204601F008
:10239000E3FAA0BB20680069616A08704DE061E063
:1023A0004B46002239462046009501F055FA30BBD5
:1023B0002068016841F40071016020680069616A69
:1023C0000870606A401C6062218D491E2185618D04
:1023D000491E618521682EE02068016821F4806132
:1023E000016020680069616A0870606A401C606270
:1023F000208D401E2085608D401E6085D0E705E061
:102400002A464946204601F0A7FA10B10120BDE84E
:10241000F88F20680069616A0870606A401C606219
:10242000218D491E2185618D491E618521684A697A
:10243000D24352070AD409690170606A401C606285
:10244000208D401E2085608D401E6085208D0028D7
:102450008BD1202084F83D0084F83E6084F83C60F5
:102460000020D4E70220D2E7020010000000FFFFA6
:10247000040001002DE9F84F1F4690468A460446A5
:10248000DDF82890FFF74AFE054694F83D00202825
:102490007FD11923012240492046009501F0DCF943
:1024A000002876D194F83C00012872D0012084F8ED
:1024B0003C0020680168C90703D1016841F00101AF
:1024C00001602068016821F400610160212084F826
:1024D0003D00102084F83E0000262664C4F82480C5
:1024E0006785608D20852D48E0622B464A4651461F
:1024F000204601F03DF990B920684169806900905B
:1025000036E02A464946204601F05BFA50B1206C7D
:10251000042804D12068016841F4007101600120A1
:10252000BDE8F88F606A216800780861626A521C11
:102530006262608D401E6085208D401E80B22085C5
:1025400021684B69DB435B070BD450B110780861FD
:10255000606A401C6062608D401E6085208D401E58
:1025600020852A464946204601F050F90028CED160
:10257000208D0028C5D154F83D0B016841F400714D
:102580000160202004F81E09E67766770020C7E77F
:10259000FFE70220C4E70000020010000000FFFF78
:1025A000024881680278114481607047EC00002085
:1025B0000B4810B5016841F400710160016841F4F5
:1025C00080610160016841F480710160032000F0C6
:1025D0006FF8002000F006F800F024F8002010BD8D
:1025E000003C024070B50D4D04464FF47A712878D6
:1025F000B1FBF0F00A490968B1FBF0F000F0C1FC52
:1026000048B9102C07D200222146501E00F030F8A5
:1026100000206C6070BD012070BD0000EC00002047
:10262000F80000200A4808B5016841F480410160C3
:10263000006800F4804000900548001F016841F0E8
:1026400080510160006800F08050009008BD0000DB
:1026500044380240002809DB00F01F0201219140AC
:102660004009800000F1E020C0F800117047000030
:10267000F0B40E4B1B68C3F30223C3F10704042C10
:1026800000D904241D1D072D01D2002300E0DB1E0C
:10269000012606FA04F56D1E0D409D409E40761EF3
:1026A000164045EA0601F0BC03F0F2BD0CED00E077
:1026B000064A00F0070110684FF6FF03184040EA91
:1026C0000120034908431060704700000CED00E052
:1026D0000000FA052DE9F0470D46040065D0DFF84B
:1026E0001491D9F80000EFB200F00F00A84207D211
:1026F00089F80070D9F8000000F00F00A84254D10A
:1027000020683D4E810712D5400703D5306840F45C
:10271000E05030602078000703D5306840F4604016
:1027200030603068A16820F0F00008433060207805
:10273000C0072DD0304960680839012812D002281E
:1027400013D0032811D00968890700292DDA3168D0
:1027500021F0030101433160FFF7E0FC804641F2C4
:10276000883A0EE009688903EFE709688901ECE718
:10277000FFF7D4FCA0EB0801514502D90320BDE8C6
:10278000F0873068616800F00C00B0EB810FEFD18A
:10279000D9F80010484601F00F01A94207D9077087
:1027A000006800F00F00A84201D00120E7E7207880
:1027B000400705D53068E16820F4E05008433060F8
:1027C0002078000706D53068216920F4604040EA8F
:1027D000C100306000F03CF83168084AC1F30311D1
:1027E000515CC840064908600020FFF7FBFE00204E
:1027F000C5E70000003C0240083802406879000844
:10280000F80000200148006870470000F800002030
:102810000448054900680968044AC1F38221515CF3
:10282000C8407047F8000020083802407879000856
:102830000448054900680968044AC1F34231515C03
:10284000C8407047F8000020083802407879000836
:10285000154810B5006810F00C01144813D043104F
:1028600004290FD008290ED10F4C241F216801F034
:102870003F022168490207D52068C0F38810A0FBF9
:10288000030106E0184610BD2168C1F38811A1FBC1
:1028900000010023FDF79CFC2168C1F30141491CA4
:1028A0004900B0FBF1F010BD083802400024F400EC
:1028B0002DE9F84F040073D02078BD4DC00748D0F3
:1028C000BB4808300168C1F38101012908D00068C4
:1028D000C0F3810002280AD1281D0068400206D5F5
:1028E0002868800335D560680028E4D031E060684E
:1028F000B0F5803F10D0B0F5A02F286810D020F49C
:1029000080302860286820F4802028606068A0B1AA
:10291000FFF704FC06460CE0286840F48030F4E73A
:1029200040F480202860F7E7FFF7F8FB801B64285D
:1029300072D828688003F7D50BE0FFF7EFFB064657
:1029400004E0FFF7EBFB801B6428F1D828688003C4
:10295000F7D42078DFF85C9280074FF0000A3ED56C
:1029600093480830016811F00C0F09D00068C0F3DB
:10297000810002280BD18E48001D0068400206D459
:102980002868800715D5E068012809D111E0E068C2
:10299000B8B10120C9F80000FFF7C0FB064605E00A
:1029A00003E1FFF7BBFB801B0228C1D82868800722
:1029B000F7D52868216920F0F80040EAC1002860B6
:1029C0000DE0C9F800A0FFF7A9FB064604E0FFF7F9
:1029D000A5FB801B02281FD828688007F7D4207821
:1029E000000722D5724F74496069743770B10120B5
:1029F0000860FFF793FB064604E0FFF78FFB801BA0
:102A0000022809D838688007F7D50EE0C1F800A081
:102A1000FFF784FB064605E081E0FFF77FFB801BA4
:102A200002287CD838688007F7D42078400769D519
:102A3000DFF87CB14FF000080BF1400BDBF8000031
:102A4000C0000CD4DBF8001041F08051CBF800102E
:102A5000DBF800004FF0010800F080500090574F65
:102A60003868C0050FD4386840F480703860FFF7CC
:102A700055FB064604E0FFF751FB801B02284ED8A9
:102A80003868C005F7D54A4FA068703701280FD0C5
:102A90000528386810D020F001003860386820F030
:102AA00004003860A068B0B1FFF738FB06460EE0BE
:102AB000386840F00100F4E740F004003860F7E7C0
:102AC000FFF72CFB811B41F28830814265D83868C2
:102AD0008007F5D50DE0FFF721FB064606E0FFF77E
:102AE0001DFB811B41F28830814256D8386880072F
:102AF000F5D4B8F1000F05D0DBF8001021F08051BB
:102B0000CBF80010A069C8B3294908310968C1F39E
:102B10008101022949D00228504607D000E03CE05C
:102B2000C9F86000FFF7FAFA044639E04F46C9F8E1
:102B30006000FFF7F3FA064604E0FFF7EFFA801BA8
:102B400002282AD828688001F7D4D4E9070108436D
:102B5000A16A1B4A490802EB0141626A41EA8211FB
:102B6000084394F82C1040EA01611148001D0160EF
:102B700001203866FFF7D2FA044605E013E0FFF7BC
:102B8000CDFA001B022808D828688001F7D50AE092
:102B9000FFF7C4FA001B022802D90320BDE8F88F12
:102BA00028688001F4D40020F8E70120F6E700004F
:102BB0000038024000004742800E4742007000404B
:102BC0000000FFFF70B5040005D00025A56294F851
:102BD000510010B106E0012070BD84F8505020462D
:102BE00000F030F8022084F851002068016821F0DC
:102BF00040010160D4E901010843D4E90312114303
:102C0000084361690843218B01F400710843E169BD
:102C10000843216A0843A16A084321680860A06943
:102C2000042101EA1040616A084321684860206875
:102C3000C16921F40061C1616565012084F851001A
:102C4000002070BD2DE9F04F87B00446142168467E
:102C5000FDF706FB474D464A20684649103D0226CF
:102C600003274FF0050A4FF0060B4FF00008904283
:102C700019D1086840F480400860086800F480407A
:102C80000590286840F0020028602868694600F036
:102C9000020005909000CDE9000602AA012082E81A
:102CA000810435481AE0354A904219D10A6842F445
:102CB00000420A60096801F400410591296841F069
:102CC0000401296029682E4801F0040105914FF4A0
:102CD000E0518DE84201CDE9037B6946FFF74EF9EB
:102CE0002849DFF89090206809F1040988421BD137
:102CF000D9F8002042F40052C9F80020D9F80000A9
:102D000000F400500590286840F010002860286802
:102D1000694600F01000059064208DE84101CDE97E
:102D2000037A1948FFF72AF91849206888421CD10C
:102D3000D9F8002042F48012C9F80020D9F8000028
:102D400000F480100590286840F010002860286882
:102D5000694600F0100005904FF4E0408DE8410115
:102D6000CDE9037B0848FFF709F907B0BDE8F08F0C
:102D7000003800404038024000040240003C00405F
:102D800000080240003401400010024000500140A1
:102D90002DE9F84F044690F8500001250A9E1F4681
:102DA00092468B464FF0000801280ED0012084F88F
:102DB0005000FFF7B3F9814694F85100616801288B
:102DC0000CD0B1F5827F07D102E00220BDE8F88F78
:102DD000A16809B9042801D00220B6E0BBF1000FB8
:102DE00027D0BAF1000F24D01FB394F85100042863
:102DF00002D0052084F8510000206065C4F838A096
:102E0000E787A787C4F830B0E786A78620646064A8
:102E100020680168490603D4016841F0400101605F
:102E2000E068B0F5006F606805D0E8B3012F43D0CB
:102E300079E0012089E008B1012F34D1206B2168AD
:102E40000088C860206B801C2063E08E401EE086F6
:102E500029E02068816889070DD5E18E59B1012DDF
:102E600009D1216B0988C160206B801C2063E08E32
:102E7000401EE086002520688168C9070BD0E18FDD
:102E800049B1C068A16B0880A06B801CA063E08F73
:102E9000401EE0870125FFF741F9A0EB0900B04291
:102EA00001D3701C50D100E006E0E08E0028D0D1A4
:102EB000E08F0028CDD13CE0206B216800780873BA
:102EC000206B401C2063E08E401EE0862BE02068D3
:102ED000816889070DD5E18E59B1012D09D1216B8A
:102EE00009780173206B401C2063E08E401EE08651
:102EF000002520688168C9070BD0E18F49B1C068FF
:102F0000A16B0870A06B401CA063E08F401EE0879F
:102F10000125FFF703F9A0EB0900B04202D3701CB2
:102F200001D011E086B1E08E0028D0D1E08F0028DA
:102F3000CDD14A463146204602F08CF938B12020E6
:102F40004FF00108606508E00320804605E0A068B6
:102F500018B92068C16880680090012084F8510089
:102F6000002084F85000404630E74FF0E02104286C
:102F7000086903D020F004000861704740F00400A5
:102F8000FAE710B5401EB0F1807F01D3012010BDDB
:102F90004FF0E02460610F21601703F079F9002001
:102FA000A06107202061002010BD7047704710B558
:102FB00004460068042202F050FC2068416C41F491
:102FC000004141642068816801F00701062903D0AF
:102FD000016841F001010160002010BD0168CA686C
:102FE00042F00102CA600068816801F00701062909
:102FF00003D0016841F00101016000207047704773
:1030000070B50446006801694FF00005C94389079F
:1030100015D4C168C943890711D4E91E0161012093
:103020002077206880698007204602D0FFF7E7FFFD
:1030300004E000F098F8204600F0FEF825772068BC
:103040000169C943490717D4C168C943490713D463
:103050006FF004010161022020772068806910F47C
:10306000407F204602D0FFF7CAFF04E000F07BF863
:10307000204600F0E1F8257720680169C943090777
:1030800016D4C168C943090712D46FF00801016161
:10309000042020772068C0698007204602D0FFF70F
:1030A000AEFF04E000F05FF8204600F0C5F8257799
:1030B00020680169C943C90617D4C168C943C90654
:1030C00013D46FF010010161082020772068C069D7
:1030D00010F4407F204602D0FFF791FF04E000F09B
:1030E00042F8204600F0A8F8257720680169C94316
:1030F000C90708D1C168C943C90704D1891E016144
:10310000204600F0B7F820680169C943090609D4D0
:10311000C168C943090605D46FF0800101612046EA
:10312000FFF743FF20680169C943490609D4C16814
:10313000C943490605D46FF040010161204600F003
:103140009AF820680169C94389060BD4C168C9434C
:10315000890607D46FF0200101612046BDE8704068
:10316000FFF724BF70BD704770B5044690F83C006F
:103170000D4601280DD0012684F83C60022084F819
:103180003D0042B1042A18D0082A2AD00C2A4DD179
:1031900039E0022070BD206802F06CFB2068816974
:1031A00041F0080181612068816921F00401816199
:1031B000206881692A69114311E0206802F086FBCA
:1031C0002068816941F4006181612068816921F48E
:1031D00080618161206881692A6941EA02218161F7
:1031E00024E0206802F0A0FB2068C16941F00801DA
:1031F000C1612068C16921F00401C1612068C16911
:103200002A69114311E0206802F0BAFB2068C16905
:1032100041F40061C1612068C16921F48061C1612C
:103220002068C1692A6941EA0221C16184F83D60D0
:10323000002084F83C0070BD7047000010B50446C3
:103240000068012202F0FCFA09492068884203D193
:10325000416C41F4004141642068816801F007013C
:10326000062903D0016841F001010160002010BD72
:103270000000014070477047704710F8391F4078D0
:103280000843704770B5026804461068D1685369F6
:1032900010F00F0F51D003F0010501F49076354383
:1032A0005DD0C20705D0CA0503D5E26B42F001022A
:1032B000E263420705D5DA0703D0E26B42F002026F
:1032C000E263820705D5DA0703D0E26B42F004021D
:1032D000E263020705D5DA0703D0E26B42F0080289
:1032E000E263E26B002A34D0800604D5880602D55A
:1032F000204602F09EFD20684069E16BC0F380101B
:1033000001F008010143204624D002F07BFD206833
:10331000416949061AD5416921F040014161606B5C
:10332000A0B11B490165606BFEF792FC002810D02C
:10333000606B016DBDE87040084783060FD58B06B2
:103340000DD52046BDE8704002F073BD2046FFF762
:1033500093FF70BDFFF790FF0020E06370BD030690
:1033600006D50B0604D52046BDE8704002F002BF2A
:103370004006F3D54806F1D5D168204621F040013A
:10338000D160202184F8391000F062F970BD00008E
:10339000315D000870B5040004D094F839000025B0
:1033A00010B106E0012070BD84F83850204600F0CE
:1033B00023F8242084F839002068C16821F40051E2
:1033C000C160204602F080FD2068016921F490412F
:1033D00001612068416921F02A0141612068C168CA
:1033E00041F40051C160E563202084F8390084F87D
:1033F0003A00002070BD00002DE9F04387B004467C
:1034000014216846FCF72CFF444ADFF80C81206841
:1034100000254249143A0223012740264FF0030CAD
:103420004FF48069404537D1086840F010000860CB
:10343000086800F010000590106840F0010010606E
:103440001068694600F0010005904FF4C0608DE8F7
:103450008910072004903248FEF790FD324F314822
:10346000386070057860C7E90265C7E90495C01245
:10347000BD61C7E90750042078623846FEF7CAFCF0
:1034800008B1FEF73FF82763002211462520BC63F0
:10349000FFF7EEF8252039E0DFF89080404537D17E
:1034A000086840F020000860086800F020000590DF
:1034B000106840F0040010601068694600F00400D5
:1034C0000590C0208DE88910082004901848FEF768
:1034D00055FD1448174F183838604FF02060786059
:1034E000C7E90265C7E90495BD61FD613D623846E3
:1034F0007D62FEF78FFC08B1FEF704F82763002217
:1035000011464720BC63FFF7B3F84720FFF7A2F846
:1035100007B0BDE8F08300000010014044380240CD
:1035200000000240B8640240B4460020001401408C
:10353000000802401447002090F83A30202B22D196
:10354000F9B1F2B190F83830012B1CD0816282853C
:10355000C2850021C163222280F83A2080F8381009
:103560000168CA6842F48072CA6001684A6942F020
:1035700001024A610068C16841F02001C160002079
:103580007047012070470220704700000D48011F5E
:103590000278C86B0C4B0344401CC8631A70C86B9C
:1035A0000022402800D1CA63486C401C486440286F
:1035B00002D14A6401208871012202490348FFF7C1
:1035C000BBBF00000C0000202824002018030020AE
:1035D000F7B5044690F83900202831D1019969B334
:1035E00062B394F8380001282AD0012084F838000A
:1035F0002162A284E2840025E563212084F8390059
:10360000236B1048D863236B0F481864236B0F4853
:10361000D864206B134605652668206B321DFEF7C3
:1036200063FC21686FF04000086084F8385020681F
:10363000416941F0800141610020FEBD0120FEBDD5
:103640000220FEBD8B5D0008B95D0008415D0008E9
:1036500070477047FEE701684A69D24352050FD4AC
:103660006FF480624A61002140F8301F20224273CB
:103670008173026942F00402026101730120704704
:10368000002070472DE9F84F0446C06A1D46934656
:103690000F4621680A6842F480620A60082807D051
:1036A000012805D010F5803F02D0206B112804D1ED
:1036B0002068016841F4807101604FF001195B4698
:1036C000002249462046009500F0C6F84FF40078E5
:1036D00040B120680068C00501D5C4F840800320CF
:1036E000BDE8F88F2069DFF884A0B0F5804F0FD0D7
:1036F0000620216800EAD71646F0F00008612B4644
:103700005A460AF10601204600F0DAF858BB03E0F9
:10371000F8B240F001001CE02168F8B208612B46C5
:103720005A465146204600F0CBF8E0B9206841697E
:1037300081690091016841F4807101605B4600225B
:1037400049462046009500F087F80028C1D146F090
:10375000F100216808612B465A465146204600F088
:10376000AFF80028BCD00120BAE700000200010039
:10377000F8B50446C06A1E460D461746082807D00D
:10378000012805D010F5803F02D0206B122804D10B
:103790002068016841F480710160134600224FF0F7
:1037A00001112046009600F057F840B120680068EB
:1037B000C00502D54FF4007020640320F8BD2069D5
:1037C000B0F5804F0ED00620216800EAD51040F0F9
:1037D000F000086133463A460B49204600F070F885
:1037E00078B902E005F0FE0000E0E8B22168086167
:1037F000054933463A46891F204600F061F8002803
:10380000DCD00120F8BD00000800010070B51646AC
:103810000D4604460DE02046FFF71DFF08B10120CC
:1038200070BD681C05D0FEF779FC801BA84207D844
:1038300035B120684069C0434007ECD4002070BD1A
:10384000002044F8300F20216173A073216941F0FA
:10385000200121612073E2E72DE9F0471D469046E3
:103860000E460446C1F30747DDF8209008E0681CC7
:1038700006D0FEF753FCA0EB0900A8420FD875B1A3
:103880002068012F18D0806926EA00000004000C8F
:1038900014D000204045EAD00020BDE8F087002089
:1038A00044F8300F20216173A073216941F0200199
:1038B000216120730120F0E74069E5E70120E9E795
:1038C0002DE9F047984615460E4604464FF000098C
:1038D0004FF0200AC1F3074723E020684069C04346
:1038E000400515D42068016841F400710160216829
:1038F0006FF480604861C4F8309084F83DA084F88B
:103900003E90216C41F00401216484F83C901EE05B
:10391000681C06D0FEF702FCA0EB0800A8420AD8FB
:103920004DB12068012F15D0806926EA00000004FF
:10393000000C0DD0D1E744F8309F84F80DA084F836
:103940000E90216941F02001216184F80C90012042
:10395000BDE8F0874069E8E72DE9F04116460D46DD
:10396000044600274FF0200817E04069C043C00616
:103970000DD454F8301B6FF01000486144F80D7BF3
:1039800004F81D89A777206A2062277717E0FEF7E1
:10399000C5FB801BA84208D83DB120684169C943D6
:1039A0004906E2D40020BDE8F08144F8307F84F875
:1039B0000D80A773206940F020002061277301204B
:1039C000F1E770B516460D4604460DE02046FFF7B8
:1039D00042FE08B1012070BD681C05D0FEF79EFBB9
:1039E000801BA84207D835B120684069C043000653
:1039F000ECD4002070BD002044F8300F202161730A
:103A0000A073216941F0200121612073E2E70000E9
:103A1000002210210148FEF77BBB0000001002408D
:103A2000012210210148FEF773BB00000010024084
:103A300010B50446FFF7ECFF200A03F0C9FDE0B221
:103A400003F0C6FD002003F0C3FD012003F0C0FD1C
:103A5000002000F005F80446FFF7E2FF204610BD05
:103A600003F0B6BD70B50D460446FFF7D1FF200A3E
:103A700003F0AEFDE0B203F0ABFD802003F0A8FD43
:103A8000012003F0A5FD284603F0A2FDFFF7C8FFC3
:103A9000012070BD002120F8181F96214180017976
:103AA000012221F003010171818862F38D0181807F
:103AB000C18832226FF30B016431C180C17921F0DA
:103AC0003001C171017A21F00701891C21F0080140
:103AD00041F010010172018962F34E110181417AB6
:103AE00021F080014172817A21F00F01C91D21F07E
:103AF000A00141F050018172C17A21F0F70141F03B
:103B00000801C17281896FF30B0196318181417B7C
:103B100021F0E00141F010014173A0218173C17BCC
:103B200021F03F0141F04001C173017C21F00C0103
:103B300041F00301091D01747047F0B5002302EB49
:103B4000C30400264FF0FF35C4E902565B1C022B6C
:103B5000F5D300241460224601EBC20341F8225041
:103B60004FF0FF36E3E92066C3E9C0668B18521CAC
:103B700083F88044202AEFD3C1F8A04400214FF4F9
:103B800080624454491C9142FBD3C0F80044C0F801
:103B9000044400F580600022C0E90222C0E904224A
:103BA000C0E90622F0BD00002DE9F04F00252DED03
:103BB000028B83B081468DF80450FE4E748A14B98E
:103BC00003F0E0F804467582FB49F5649FEDFB8A3B
:103BD000DFF8EC83706E01234FF0200B08F1C80A68
:103BE000A8F1E90E884202DCB08A9D2814D9B5728A
:103BF00086ED198AB56435727572C6E91453B365DA
:103C0000F57235737573F565356688F800B08AF816
:103C100000B0F573B573B58299E0F26C19F8020043
:103C20007E2816D1B07AA0B9B37286ED198AB56430
:103C300035727572C6E91453B365F57235737573D1
:103C4000F565356688F800B08AF800B0F573B5738D
:103C5000B582B16C19F802000EF80100B78A7F1C1A
:103C6000B7823B2804D03D280AD03A2808D00BE080
:103C7000B77BBFB9B77A012F14D1B57273720DE05B
:103C8000F77A0FB9F372F3732E2802D0242807D0E5
:103C900008E0377B37B9B77B27B93373F37301E09B
:103CA000777B37B1022939D99EF80270202F03D0D3
:103CB00034E002277773F1E7F77B77BB777B022F3E
:103CC0002CD2F77A012F0BD0DFF8F4C2376DACF1AC
:103CD000200C202F0CF8070027D27F1C376524E02A
:103CE000377B27B1012F0ED027B110D01DE0776DA3
:103CF00008F80700706DC82817D2401C7065306E38
:103D0000401C306611E0D6F858C00AF80C00B06DBF
:103D1000C8280AD2401CB06507E0FFE7777B022F76
:103D200003D1F77B0FB9F0657373D6E917078742A4
:103D300002D2707B012811D0B573C82901D2491C69
:103D4000B164C82A01D2521CF264F573641E002CBF
:103D50007FF463AF707A012802D07BE2B373ECE7A3
:103D60009EF800107E2903D1317A41F001013172B1
:103D70009EF80100F1797746884203D1307A40F00D
:103D800002003072307A03287ED18D488DA1203810
:103D9000FCF778FA002878D089488CA12038FCF705
:103DA00071FA002872D0864889A12038FCF76AFA97
:103DB00000286CD0824887A12038FCF763FA0028DD
:103DC00066D07F4884A12038FCF75CFA002876D0C2
:103DD0007B4883A12038FCF755FA002870D078483A
:103DE00081A12038FCF74EFADFF80092002868D055
:103DF00073487FA12038FCF745FA002879D0704835
:103E00007EA12038FCF73EFA002873D06C487DA1D3
:103E10002038FCF737FA00286DD069487BA120389C
:103E2000FCF730FA002867D0654879A12038FCF704
:103E300029FA002878D0624877A12038FCF722FAC6
:103E4000002872D05E4877A12038FCF71BFA0028C2
:103E50006CD05B4875A12038FCF714FA002873D0A9
:103E6000574875A12038FCF70DFA4FF00A090028D1
:103E70006BD0534874A12038FCF704FA002873D0A3
:103E80004F4874A1203804E0B6E10EE01AE025E0C6
:103E900033E0FCF7F7F9002867D049486FA12038D4
:103EA000FCF7F0F900286ED0A6E14548FCF7F8F9D8
:103EB0003062D6E91A236BA003F054FC9CE127E0A2
:103EC00035E043E03E48FCF7EBF90146306268A07C
:103ED00003F06CFC306AFDF765F88DE13848FCF7BB
:103EE000DFF90146306265A003F060FC00F052FF8C
:103EF00082E13DE048E0FDE008E13148FCF7D0F91F
:103F00000146306260A003F051FC00F06BFA73E1EF
:103F10002B48FCF7C5F9014630625EA003F046FC71
:103F2000604801F00DFA67E1FDE00FE119E1244876
:103F3000FCF7B6F9014630625BA003F037FC96F857
:103F4000200003F003FB57E10DE11EE11C48FCF7E4
:103F5000A7F90146306258A003F028FC306A012816
:103F600004D000221021EBE027E13BE10122F9E738
:103F70001348FCF795F90146306252A003F016FC95
:103F800001F048FA38E131E10D48FCF789F90146C2
:103F9000306251A003F00AFC308C4FF47A7381B286
:103FA00001225148FEF7C0F8014650A003F0FEFB85
:103FB00022E100000800002000004842000000004C
:103FC0003A26002074696D65000000006164660097
:103FD0006D656D004D53470049445F53455256008F
:103FE00073706932000000006E73730000100240AD
:103FF0006574685F696E6974000000006932635F10
:1040000061647200737461727400000070776D00F7
:10401000707772646E0000004144435F746573748E
:104020000000000068656C70000000006932635F8A
:1040300073746174757300006932635F7472616ECA
:10404000736D6974000000006932635F72656369B3
:1040500076650000696E666F000000006D656E7524
:104060000000000054494D455F5359533A00000089
:10407000EFF0E8EDFFEB206164663A00EFF0E8ED69
:10408000FFEB206D656D3A00EFF0E8EDFFEB204DA2
:1040900053473A00EFF0E8EDFFEB2049445F53450A
:1040A00052563A00583C0020EFF0E8EDFFEB207349
:1040B0007069323A00000000EFF0E8EDFFEB206E8F
:1040C00073733A00EFF0E8EDFFEB206574685F6909
:1040D0006E69743A00000000EFF0E8EDFFEB206934
:1040E00032635F6164723A00640100206932633AAE
:1040F000000000005A48FCF7D3F80146306259A08E
:1041000003F054FB96F82000707075E05448FCF7FB
:10411000C7F80146306257A003F048FB308C80B2EC
:1041200000F066FE68E04E48FCF7BAF801463062DF
:1041300053A003F03BFB306A012805D00022802108
:104140004846FDF7E5FF57E00122F8E74448FCF751
:10415000A7F8014630624EA003F028FBFCF710FDE3
:104160004AE050A043E053A001F0BEFD3C48FCF7FC
:1041700097F881B230620A2301225348FDF7D4FF39
:1041800008B152A02FE054A02DE056A001F0ACFDE4
:104190003348FCF785F830623148C830FCF780F8C6
:1041A000F0618DF80400CDF80090308C012381B2CD
:1041B00001AA4548FEF75EF91EE050A001F094FD0B
:1041C0002748FCF76DF8306281B2012301AA3E480E
:1041D000CDF80090FEF75EF89DF804104CA003F0B7
:1041E00095FB09E04CA001F07FFD05E04EA001F039
:1041F0007BFD002000F00AFC194820380555641C9E
:10420000202CFBD3002008F80050401CC828FAD30B
:10421000002052461554401CC828FBD300203946C4
:104220000D54401CC828FBD386ED198AB572B564BD
:104230003572757235657565F572B5653573F564FA
:104240007573F5653566F573B57388F800B08AF84F
:1042500000B0B582F06903B0BDEC028BBDE8F08F11
:104260003A260020EFF0E8EDFFEB207374617274E2
:104270003A000000EFF0E8EDFFEB2070776D3A00B8
:10428000EFF0E8EDFFEB20707772646E3A0000000B
:10429000EFF0E8EDFFEB204144435F746573743A3F
:1042A00000000000EFF0E8EDFFEB2068656C700D9A
:1042B0000A000000EFF0E8EDFFEB206932635F7366
:1042C00074617475730D0A00640100206932635FC4
:1042D0006572726F720D0A006932635F4F4B0D0A8F
:1042E00000000000EFF0E8EDFFEB206932635F743F
:1042F00072616E736D69740D0A000000EFF0E8EDF5
:10430000FFEB206932635F7265636976650D0A00B1
:10431000646174613D000000EFF0E8EDFFEB20699F
:104320006E666F0D0A000000EFF0E8EDFFEB206D08
:10433000656E750D0A0000002DE9F041274C01273C
:10434000274DA06ABE034FF40058642814D2206B96
:1043500090B9012241462846FDF7DAFE0022314697
:104360002846FDF7D5FE002231462846FDF7D0FE4F
:104370002763A0694000A061A06AC82811D9606BBA
:1043800078B9002241462846FDF7C2FE0122314697
:104390002846FDF7BDFE002231462846FDF7B8FE4F
:1043A0006763A06AB0F5C87F0ED90022414628464F
:1043B000FDF7AEFE002231462846FDF7A9FE012298
:1043C00031462846FDF7A4FEA06AB0F5FA7F03D96E
:1043D0000020A06220636063BDE8F0810800002037
:1043E000000802402DE9F041002516A001F07CFCF8
:1043F000DFF860800027294617A003F0D7F905EB06
:10440000450000EBC51108EB011615A0B16A03F0D9
:10441000CDF900240AE0214616A003F0C7F906EB07
:104420004410416B18A003F0C1F9641CD6E90A12CC
:10443000611A77EB0200EED36D1C022DDBD3BDE8D1
:10444000F08100002D2D2D2D2D2D2D2D2D2D0D0A22
:1044500000000000D027002053454E4445523A004A
:10446000D7E8F1EBEE20EAE2E8F2E0EDF6E8E93A2F
:1044700000000000EDEEECE5F020EAE2E8F2E0ED0D
:10448000F6E8E83A00000000434D443A000000001E
:104490001FB50024474800940194029444490394B2
:1044A000C0E90014012184600161017680F8204098
:1044B0004149C0E90A141021C460C161012180F89A
:1044C00030104161FDF7B4FA0120CDE900406946A2
:1044D00038480294FDF752F901200224CDE9000486
:1044E00069463448FDF74AF9009403246946314887
:1044F0000194FDF743F90094042469462D48019482
:10450000FDF73CF90094052469462A480194FDF71B
:1045100035F900940624694626480194FDF72EF9E2
:1045200000940724694623480194FDF727F9009475
:10453000082469461F480194FDF720F900940924D6
:1045400069461C480194FDF719F900940A2469464C
:1045500018480194FDF712F900940B246946154898
:104560000194FDF70BF900940C246946114801945D
:10457000FDF704F900940D2469460E480194FDF7F7
:10458000FDF800940E2469460A480194FDF7F6F8F8
:1045900000940F24694607480194FDF7EFF81020B6
:1045A000CDE9004069460348FDF7E8F81FBD00006B
:1045B000002001401C0100200100000FF0B587B071
:1045C00014216846FBF74CFE38480024016841F08E
:1045D00004010160016801F004010591016841F0E6
:1045E00002010160016801F002010591016841F0DA
:1045F00010010160016801F010010591016841F0AE
:10460000080101600068012500F0080005904EF2E5
:1046100013200090CDE90154254E6946304603949D
:10462000FDF7ACFC40F28F100090CDE901546946D3
:1046300020480394FDF7A2FC4FF498600090CDE968
:10464000015469461C480394FDF798FC0320009030
:10465000CDE90154194F694638460394FDF78EFCA5
:104660004FF4C0500090CDE90154694614480394BA
:10467000FDF784FC3020CDE9000469463046029401
:10468000FDF77CFC280200900E48CDE90104694644
:104690003846FDF773FC002211461720FDF7E8FFAE
:1046A0001720FDF7D7FF07B0F0BD000030380240FB
:1046B000000802400010024000040240000C0240CA
:1046C00000000240000011100C480B494FF400722A
:1046D00001604FF48271416000218160C16001611D
:1046E000C0E905120822C0E90721416281620A215E
:1046F000C162FEF767BA000000380040B801002030
:104700000C480B494FF4007201604FF48271416014
:1047100000218160C1600161C0E905120822C0E981
:104720000721416281620A21C162FEF74BBA000093
:10473000003C0040100200200C480B494FF400726E
:1047400001604FF48271416000218160C1600161AC
:10475000C0E905122022C0E90721416281620A21D5
:10476000C162FEF72FBA0000003401406802002049
:104770000C480B494FF4007201604FF482714160A4
:1047800000218160C1600161C0E905121022C0E909
:104790000721416281620A21C162FEF713BA00005B
:1047A00000500140C002002070B57E4DBBEE090AEA
:1047B0002DED048B85ED090ABBEE080A85ED0A0A8A
:1047C000BBEE070A85ED0B0ABBEE060A85ED0C0A67
:1047D000BBEE050A85ED0D0ABBEE040A85ED0F0A56
:1047E000BAEE0E0A85ED180ABAEE040A85ED290A1A
:1047F000B9EE040A85ED460A9FED6B0A05F5806067
:1048000085ED820AB1EE040A85EDE60AB2EE000AF1
:1048100080ED4A0A6549002000EB400201EB4202AC
:1048200000EE102A05EB8002401CB8EEC00A80B2F0
:10483000092882ED000AEFD309249FED5D8B9FEDDF
:104840005E9BA4F10900FBF7C0FE53EC182BFBF7AD
:10485000DBFD53EC192BFBF730FDFBF7E7FE45F8CA
:104860002400641CA4B2102CEBD30F2000EB8001B9
:10487000A1F2131100EE101A05EB8001401CB8EEF6
:10488000C00A80B2192881ED000AEFD318249FEDE9
:104890004C8B9FED4D9BA4F11800FBF796FE53EC5B
:1048A000182BFBF7B1FD53EC192BFBF706FDFBF7BB
:1048B000BDFE45F82400641CA4B22A2CEBD32924A5
:1048C0009FED438B9FED449BA4F12900FBF77DFEF8
:1048D00053EC182BFBF798FD53EC192BFBF7EDFC71
:1048E000FBF7A4FE45F82400641CA4B2472CEBD3CC
:1048F00046249FED3B8B9FED3C9BA4F14600FBF7CC
:1049000064FE53EC182BFBF77FFD53EC192BFBF7E0
:10491000D4FCFBF78BFE45F82400641CA4B2832C66
:10492000EBD382249FED328BA4F18200FBF74DFE86
:1049300053EC182BFBF768FDFBF778FE45F82400D5
:10494000641CA4B2E72CEFD3E6249FED2B8B9FEDE4
:104950002C9B4FF4A776A4F1E600FBF736FE53EC50
:10496000182BFBF751FD53EC192BFBF7A6FCFBF7BB
:104970005DFE45F82400641CA4B2B442EBD30020D1
:10498000B2EE040A05EB8001401CD1ED000A80B2B2
:10499000B04280EE801A81ED001AF3D3BDEC048B97
:1049A00070BD0000184100200000000072FDFFFFF4
:1049B0009A999999999920400000000000406FC091
:1049C0009A999999999905400000000000C062C029
:1049D000333333333333FB3F00000000000059C052
:1049E0008FC2F5285C8FEA3F00000000000049C03C
:1049F000000000000000E03F8FC2F5285C8FD23F2E
:104A00000000000000004940FEE7000010B500244F
:104A100037A001F069F9641C142CF9DB002435A0DF
:104A200001F062F9641C142CF9DB31A001F05CF98F
:104A300031A001F059F92EA001F056F93AA001F089
:104A400053F93BA001F050F93CA001F04DF943A00F
:104A500001F04AF946A001F047F94AA001F044F9F3
:104A60004DA001F041F951A001F03EF95BA001F029
:104A70003BF964A001F038F96CA001F035F972A09F
:104A800001F032F976A001F02FF97AA001F02CF9AB
:104A900081A001F029F9894801F026F988A001F0E8
:104AA00023F98CA001F020F98FA001F01DF993A04B
:104AB00001F01AF996A001F017F99CA001F014F981
:104AC000A1A001F011F90AA001F00EF908A001F06F
:104AD0000BF9A9A001F008F905A001F005F904A05F
:104AE00001F002F9BDE8104001A001F0FDB800009E
:104AF0000D0000002D0000002E2E2E2E2E2E2E2E0C
:104B00002E2E5465726D696E616C20D2E5F1F2EE65
:104B1000E2EEE920EFEBE0F2FB2E2E2E2E2E2E2ED3
:104B20002E2E0D0A000000004D454E55203A0D0076
:104B30002D2D2D2D2D2D2D0D00000000D0E0F1F894
:104B4000E8F4F0EEE2EAE020F1F2F0F3EAF2F3F05A
:104B5000FB20EAEEECE0EDE4FB3A0D007E202D2098
:104B6000F1F2E0F0F2EEE2FBE920E1E0E9F20D0023
:104B700031202D20E0E4F0E5F120E0E1EEEDE5ED7F
:104B8000F2E00D003B2D20EAEEEDE5F620EFE0F738
:104B9000EAE8200D000000002E2E2E2E2E2E2E2EA6
:104BA0002E2E2E2E2E2E200D000000002D2D2D2D10
:104BB0002D2D2D2D2D2D2D2D2D2D2D2D2D2D2D2D25
:104BC0002D2D2D2D2D2D2D2D2D2D2D2D2D2D2D2D15
:104BD0002D2D2D2D2D2D2D2D2D0D0A004950202050
:104BE0003A3139322E3136382E312E313633202DAE
:104BF00020495020E0E4F0E5F120202020E1EBEE18
:104C0000EAE00D00504F52543A3230353420202023
:104C1000202020202020202D20EDEEECE5F020EFBC
:104C2000EEF0F2E020E1EBEEEAE00D007E302068ED
:104C3000656C703B202D20F2E5EAF3F9E5E520EC08
:104C4000E5EDFE0D000000007E3020696E666F3BD2
:104C5000202D20E8EDF4EEF0ECE0F6E8FF200D006A
:104C60007E3020646163315F696E69743B202D2062
:104C70000D0000007E3020646163315F723A303B8A
:104C80002020202D20F7F2E5EDE8E520F0E5E3E82F
:104C9000F1F2F0E00D0000007E3020646163315FCE
:104CA000773A302E303B202D20E7E0EFE8F1FC2072
:104CB000F0E5E3E8F1F2F0E00D000000087A00080A
:104CC0007E3020646163315F696E666F3A303B20ED
:104CD0000D0000007E3020646163315F696E69748D
:104CE0003A303B200D0000007E3020646163315F6C
:104CF0007068795F77723A303B200D007E30206417
:104D00006163315F7068795F696E666F3B200D008B
:104D10007E30206C6D6B5F73796E633B202D20734A
:104D2000796E6320EDE0204C4D4B0D007E30206904
:104D30006E69745F6C6D6B3B202D20696E69742009
:104D4000EDE0204C4D4B0D002D2D2D2D2D2D2D2D1D
:104D50002D2D2D2D2D2D2D2D2D2D2D2D2D2D2D2D83
:104D60002D2D2D2D2D2D2D2D2D2D2D2D2D2D2D2D73
:104D70002D2D2D0D000000002B2B2B2B2B2B2B2B47
:104D80002B2B2B2B2B2B2B2B2B2B2B2B0D00000012
:104D9000704700002DE9F04100252C4610A000F0DE
:104DA000A3FF104E4FF4806701E0042C0AD2715D1E
:104DB0000A2901D20CA000E00CA002F0BFFD032CD8
:104DC00008D0641C6D1CBD42EFD3BDE8F04104A0C7
:104DD00000F08ABF02A000F087FF0024F2E7000085
:104DE0000D0A0000303800202020000020000000C4
:104DF0000D4910B5486060200860022088600420DA
:104E00000861002201F52670FEF7AEF90748FEF7AB
:104E1000E5F800210548FEF711FABDE81040002131
:104E20000248FEF7C4B800000001002098030020EB
:104E30007047000038B5044644F202000D4600EB0E
:104E4000042080B2FF21FEF70DFE204601F04BFF4B
:104E500020B3222821D1204601F020FF00B20028F3
:104E60001BDD4FF40061884200DD08461C4982B218
:104E700001F1240300911B49204602F02FF9184C40
:104E800001250C3C0146E0612570A570E06B401CDB
:104E9000E0631448FCF738FBE58138BD12A000F050
:104EA00023FF214611A002F081FC11A000F01CFF9D
:104EB00029460EA002F07AFC00232A460221204651
:104EC00002F0EAFA0028E8D111A000F00DFF214617
:104ED00006A002F06BFCBDE8384003A000F004BF60
:104EE00090000020D85F00200D0A000000000000A4
:104EF0003A204C6F6F702D4261636B2055445020F7
:104F0000537461727465642E20706F7274203A005D
:104F100007203A204661696C20746F2063726561D6
:104F2000746520736F636B65742E00002DE9F04784
:104F3000104D114E00244FF400674FF47A7840F67C
:104F4000B93904EB440000EBC41005EB0010D0E9C4
:104F50000A12114309D03A46084900F033FD43468E
:104F600049460020326B00F00BF8641C022CE8D399
:104F7000BDE8F087D027002084000020D85700200B
:104F80007FB5044644F202000E4600EB042082B0D6
:104F90001D4680B2FF21FEF765FD204601F0A3FE0D
:104FA000D8B1222817D11D488178012913D18188D1
:104FB00004AB491C81800095008B194982B22046C0
:104FC00002F072F9002806D116A000F08DFE2146ED
:104FD0001BA002F0EBFB06B070BD1AA000F084FE2F
:104FE000214617A002F0E2FB17A000F07DFE31463B
:104FF00013A002F0DBFB002332460221204602F020
:105000004BFA0028E7D118A000F06EFE21460CA054
:1050100002F0CCFB0BA000F067FEDCE78400002070
:10502000D8570020070707203A2053797374656D1D
:1050300020466174616C204572726F722E00000010
:10504000000000000D0A00003A204C6F6F702D42E6
:1050500061636B2055445020537461727465642EF3
:1050600020706F7274203A0007203A204661696C04
:1050700020746F2063726561746520736F636B6564
:10508000742E000030B44FF0FF3240F82120134658
:1050900000EBC1020024E2E92034631EC2E940347F
:1050A000C2E98034C2E9C034D0F8A024521EC0F84E
:1050B000A02430BC01A002F079BB0000F3E4E0EBD7
:1050C000FFE5EC20EAEEECE0EDE4F320E8E720F089
:1050D000E5E5F1F2F0E03A002DE9FF4F83B000255D
:1050E000DDF840B014460E464FF0FF3AA94602954F
:1050F00054F82500411C4BD0D6F82024D6F82414AF
:105100008A421DD2904243D9884241D201273CA015
:1051100000F0EAFDCDF800903B462A46CDF8049019
:1051200020460399FCF78AF904EBC50044F825A052
:105130000021E0E92011C0E98011C0E9C01122E09E
:10514000904201D8884223D24FF001082CA000F0F1
:10515000CBFD04EBC50732A057F8801F02F026FBF9
:10516000CDF8009043462A46CDF804902046039996
:10517000FCF764F944F825A00020C7E90000C7E95E
:105180008000C7E9C000D4F8A004401EC4F8A00401
:105190006D1C202DACD3D4F8A0140020202901D3FD
:1051A0002AE0401C54F82010491CFAD1BBF1010F31
:1051B0001DD0221882F88094069944F8201004EB40
:1051C000C000C0E920B9DDE91413C0E960131199EA
:1051D000C0E9A019DDE91212C0E9E012D4F8A00478
:1051E000401CC4F8A004029807B0BDE8F08F01216C
:1051F000221882F88014DFE701200290F4E7000013
:10520000EAE2E8F2E0EDF6E8FF20EE20E7E0F2B8AF
:10521000F0F2FBF520EFE0EAE5F2E0F5210D0A00FF
:10522000732D3E434D445F54595045095B6A5D3AC6
:1052300000000000D1F800248854D1F80004A0F543
:105240004072FF3A03D0401CC1F8000470470020B0
:10525000FAE7000038B504461248134D4FF47A734C
:105260000068B0FBF5F0584300906068B0F5827FAD
:105270000DD10B46009200228021204600F016F846
:1052800070B1606D40F020006065032038BD00986B
:1052900030B1401E009020688068C0430006F6D5FB
:1052A000002038BDF800002000366E012DE9F041E5
:1052B0001D4617460E460446DDF8188008E0681CB7
:1052C00006D0FCF72BFFA0EB0800A8420BD255B18B
:1052D0002068806836EA000030D00020B842EED165
:1052E0000020BDE8F0812068416821F0E0014160C4
:1052F0006068B0F5827F0BD1A068B0F5004F02D096
:10530000B0F5806F04D12068016821F04001016090
:10531000A06AB0F5005F09D12068016821F400514E
:1053200001602068016841F400510160012084F8A7
:105330005100002084F850000320D2E70120CDE77F
:1053400070B5054620A000F0CFFC0024214621A026
:1053500002F044FA22A000F0C7FC55F8241021A066
:1053600002F024FA214620A002F038FA1CA000F036
:10537000BBFC05EBC4061BA0D6F8801002F0C6FAF1
:1053800021461CA002F02AFA15A000F0ADFC15A0E1
:10539000D6F8801202F0BAFA214619A002F01EFADD
:1053A0000FA000F0A1FC0FA0D6F8801302F0FEF9C8
:1053B00016A0D5F8A01402F0F9F905A000F094FCAD
:1053C000641C202CC2D370BD2D2D2D2D2D2D2D2DE7
:1053D0000D0A000020202020494E4445585B000063
:1053E0005D3A00000000000020434D445F545950D6
:1053F000455B000053454E4445525F49445B000005
:10540000202020202054494D455B00004E3A0000EA
:10541000704700001CB574A000F066FC01F08AFC27
:10542000642002F0EDF97448744C0021425C62542F
:10543000491CC9B20629F9D36F483C380178A171DB
:105440004178E17181782172C07860726A48383899
:105450000178A1734178E17381782174C078607418
:10546000654834380178A1724178E17281782173FE
:10547000C0786073614801F0C9FF60480A3001F0EC
:10548000DDFE5E480E3001F08DFFA01D01F0DAFF59
:10549000594A5C3A02F12C015078A07501F13600AE
:1054A0000B7883704B78C3708B780371C978417126
:1054B000D188018041F2707001F09CFF032001F05F
:1054C00095FF4D495239881E02F094F84CA000F027
:1054D0000BFC57A000F008FC5FA000F005FC68A0E2
:1054E00000F002FC71A000F0FFFB684601F0B7FB82
:1054F00071A000F0F9FB9DF8001056A002F06EF9C3
:105500006FA000F0F1FB9DF8011052A002F066F9C7
:105510006BA000F0E9FB9DF802104EA002F05EF9CE
:1055200067A000F0E1FB9DF803104AA002F056F9D5
:10553000684601F0A7FB63A000F0D6FB9DF80010C1
:1055400044A002F04BF95EA000F0CEFB9DF80110E4
:1055500040A002F043F95AA000F0C6FB9DF80210EB
:105560003CA002F03BF956A000F0BEFB9DF80310F2
:1055700038A002F033F9684601F05EFB53A000F05A
:10558000B3FB9DF8001033A002F028F94CA000F006
:10559000ABFB9DF801102FA002F020F948A000F00D
:1055A000A3FB9DF802102BA002F018F944A000F014
:1055B0009BFB9DF8031027A002F010F945A000F016
:1055C00093FB45A000F090FB01211620FEF74AFA5C
:1055D000042144F22C00FEF745FAFF2144F20200B8
:1055E000FEF740FA1CBD00005365745F6E6574776A
:1055F0006F726B0D0A000000E0000020D8670020E9
:105600000D0A2D2D2D2D2D2D2D2D2D2D2D2D2D2D0D
:105610002D2D2D2D2D2D2D2D2D2D2D2D2D2D2D2DBA
:105620002D2D2D2D2D2D2D2D2D2D2D200D0A000054
:1056300057353230304530312D4D33202020202059
:10564000202020202020202020202020202020205A
:1056500020200D0A000000004E6574776F726B20E9
:10566000436F6E66696775726174696F6E20496E0B
:10567000666F726D6174696F6E200D0A0000000024
:105680002D2D2D2D2D2D2D2D2D2D2D2D2D2D2D2D4A
:105690002D2D2D2D2D2D2D2D2D2D2D2D2D2D2D2D3A
:1056A0002D2D2D2D2D2D2D2D2D200D000D0A4D4193
:1056B00043203A20000000000D0A4950203A200003
:1056C0002E0000000D0A534E203A20000D0A4757C5
:1056D000203A20000D000000504F52543A20333041
:1056E00030310D001048016811B10168491E016098
:1056F0000E49086808B1401E08600D480168491C41
:1057000001600C490868401C08600B48D0E9002182
:10571000521C41F10001C0E9002108480168491C00
:105720000160FCF73DBF0000340000208000002035
:105730004000002030000020700000207C0000208D
:1057400030B593B030216846FAF78AFD14210CA8D1
:10575000FAF786FD20480025016841F0805101607C
:10576000006800F0805011901C48016841F44041ED
:1057700001600068022400F4404011900120009074
:10578000000401908001CDE9064008AA04206421AC
:1057900082E813000B906846FDF78AF80CA90F20E9
:1057A00081E83100E0020F90109003210CA8FCF773
:1057B00091FFFDF727F84FF47A71B0FBF1F0FDF798
:1057C000E0FB0420FDF7D1FB00221146501EFCF740
:1057D0004FFF13B030BD0000403802400070004061
:1057E0001048016841F4700101600F48016841F000
:1057F000010101600C4A00210832116002680B4B64
:105800001A400260031D0A4A1A60026822F48022CC
:10581000026005480C300160024958068039086072
:105820007047000088ED00E000380240FFFFF6FE00
:10583000103000240148FDF7E3BB0000980300206E
:1058400010B501F01F010123046A8B409C430462E0
:10585000036A8A401343036210BD10B501F01F01B3
:105860000423046A8B409C430462036A8A40134306
:10587000036210BD30B5026A22F001020262036ABF
:105880004268846924F073050C682C4323F00205F8
:105890008B682B430C4DA84206D123F00805CB683A
:1058A00043EA050323F0040307D14D6922F4407253
:1058B00045EA02058A6942EA050242608461496854
:1058C0004163036230BD00000000014030B5026A50
:1058D00022F010020262026A436884690D6824F4AF
:1058E000E64444EA05248D6822F0200242EA0512CB
:1058F0000C4DA84206D1CD6822F0800242EA051282
:1059000022F0400207D14D6923F4406343EA850346
:105910008D6943EA8503436084614968816302625B
:1059200030BD00000000014030B5026A22F48072F0
:105930000262036A4268C46923F4007324F07305A9
:105940000C682C438D6843EA05230C4DA84206D110
:10595000CD6823F4006343EA052323F4806307D171
:105960004D6922F4405242EA05128D6942EA05125D
:105970004260C4614968C163036230BD00000140F8
:1059800030B5026A22F480520262036A4268C46936
:105990000D6824F4E64444EA05248D6823F400539A
:1059A00043EA0533064DA84204D14D6922F48042F2
:1059B00042EA85124260C46149680164036230BDF5
:1059C000000001402DE9F05F0446B0480D464FF05D
:1059D0000009416B9346491C4163A4F80290406B57
:1059E000A060C4E90699208CC84618302080000ABF
:1059F0002870207868706088CA46000AA870A0786D
:105A000040F00100E870A068000E2871A068000C4A
:105A100068712089000AA871207AE8716069000E17
:105A200028726069000C6872A08A000AA872207D42
:105A3000E8722069227D000E40EA02202873206966
:105A4000227D000C40EA02406873208A227D000A11
:105A500040EA0260A873207CE873E069000E2874B5
:105A6000E069000C6874A08B000AA874207FE874B9
:105A7000207FA269030243EA12602875A069227F91
:105A8000000C40EA02406875208B227F000A40EA41
:105A90000260A875207EE875206A000E2876206ACC
:105AA000000C6876208C000AA87694F82000E8762E
:105AB000606A000E2877606A000C6877A08C000A84
:105AC000A87794F82400E877E06A000E85F82000B3
:105AD000E06A000C85F82100A08D000A85F82200FC
