:020000040800F2
:10000000788B0020AD01000865AE0008E93B0008D0
:10001000DDAA0008E510000899D8000800000000DB
:10002000000000000000000000000000C1C6000841
:10003000DD15000800000000DDB60008C5C6000898
:10004000C7010008C7010008C7010008C701000870
:10005000C7010008C701000831180008451800084A
:1000600059180008C7010008C7010008C7010008A7
:10007000C7010008C7010008C7010008C701000840
:10008000C7010008C70100080D0B000800000000B0
:100090000000000000000000000000006D180008D3
:1000A000C7010008C7010008C7010008C701000810
:1000B000C7010008C7010008C7010008C701000800
:1000C000C7010008C7010008C7010008C7010008F0
:1000D000C701000881D80008C7010008000000001F
:1000E000C7010008C7010008C701000800000000A0
:1000F000000000000000000000000000C701000830
:1001000000000000C7010008C7010008C70100087F
:1001100000000000000000000000000000000000DF
:1001200005150008C7010008C7010008C70100083D
:10013000C7010008000000000000000000000000EF
:10014000000000000000000000000000C7010008DF
:10015000C7010008111500081D1500088DD80008FA
:10016000C7010008C70100080000000000000000EF
:10017000000000000000000000000000000000007F
:1001800000000000C701000800000000000000009F
:10019000C7010008C7010008DFF80CD000F04EFCD2
:1001A0000048004729100108788B00200648804746
:1001B00006480047FEE7FEE7FEE7FEE7FEE7FEE74C
:1001C000FEE7FEE7FEE7FEE795C700089901000895
:1001D0002DE9F05F0546002092469B46884606467C
:1001E000814640241BE0284641464746224600F00F
:1001F00051F853465A46C01A914110D31146184639
:10020000224600F0E2FA2D1A67EB01084F4622461B
:100210000120002100F0D9FA17EB00094E41201E01
:10022000A4F10104DFDC484631462A464346BDE8D6
:10023000F09F2DE9F0410024061B254671F10006D0
:1002400005DA01240027D0EB070067EB0101161E39
:1002500073F1000605DA0027D2EB0702012567EBF0
:100260000303FFF7B5FF86460E4617469C46AC4291
:1002700004D00025D0EB050E65EB010624B100206B
:10028000D2EB000760EB030C704631463A466346FA
:10029000BDE8F081202A04DB203A21FA02F0002197
:1002A000704721FA02F3D040C2F120029140084386
:1002B00019467047D2B201E000F8012B491EFBD26B
:1002C00070470022F6E710B513460A460446194661
:1002D000FFF7F0FF204610BD421E12F8013F002B31
:1002E000FBD111F8013B02F8013B002BF9D170471B
:1002F000421C10F8011B0029FBD1801A704710B571
:10030000002200E0521C835C8C5CA34201D1002BD4
:10031000F8D1D8B2E1B2401A10BD034611F8012B52
:1003200000F8012B002AF9D1184670472DE9F04753
:1003300091460F4680460446002614F8015B2DB115
:1003400000F064FA0068405DC007F6D12B2D02D0A2
:100350002D2D18D0641E4A463946204600F05AFA20
:1003600027B13968A14201D1C7F8008071054FF06B
:1003700002040BD54042002803DD0DF0B3FA0460FF
:10038000A007BDE8F08746F48066E4E70028F8DAC5
:100390000DF0A8FA04606FF00040F2E770B5064671
:1003A0000DF0A0FA046805460A2200213046FFF746
:1003B000BDFF2C6070BD2DE9FE4F804681EA030031
:1003C000C00F0C46009021F0004123F00045B8EB2F
:1003D0000200A94105D24046214690461C460B46E4
:1003E000024623F00040104347D0270DC7F30A0010
:1003F000C3F30A510290401A019040286BDAC3F30C
:10040000130040F4801B0098924620B10023D2EBE9
:10041000030A63EB0B0B01985946C0F140025046AA
:1004200000F0D3F906460D4650465946019A00F0B1
:10043000DBF910EB08006141002487EA115284EADD
:10044000E7731A4340D0009A62B3019A012A4FEA37
:10045000075215DC001B61EB02014FF0004202EA7B
:100460000752CDE90042001C41F5801132462B466F
:1004700000F065FA03B0BDE8F08F40462146F9E789
:10048000001B61EB0201001C41F5801300185B4169
:100490002018A2F5001747EB030140EAD570B61902
:1004A0006D4111E06D084FEA360645EAC0754FEA26
:1004B0000752001B61EB0201001C41F58011490845
:1004C0004FEA30000019514132462B4603B0BDE8D7
:1004D000F04F00F025BA0098012240000023D0EB35
:1004E000020263EBE073009821464FEAE074B8EB38
:1004F000000061EB0401E9E783F000435BE781F072
:10050000004158E72DE9FE4F81EA030404F000445E
:1005100021F0004100944FF0000B23F0004350EA1B
:1005200001045ED052EA03045BD0C3F30A54C1F362
:100530000A552C44A4F2F3340194A0FB0254C1F3F5
:10054000130141F48011C3F3130343F4801301FB3F
:10055000024400FB034E840A970A44EA815447EAA6
:100560008357A4FB076802958D0A05FB07854FEAB0
:10057000932C04FB0C542705029D4FEA065847EACA
:100580001637B5EB08056EEB070C870E920E47EA9F
:10059000811742EA8312A7FB0201B6EB0B0164EB61
:1005A00000042B0D43EA0C335E1844EB1C50DA4672
:1005B0005146E7FB0201C5F313044FEA0B3343EA4C
:1005C00014534FEA0432019C43EA0603A4F10C04DD
:1005D0000294009CCDE900B400F0B1F903B0BDE88D
:1005E000F08F00200146F9E72DE9F04D81EA030480
:1005F00004F0004B21F0004514464FF0000A23F0B0
:10060000004150EA050220D054EA01021DD0C5F392
:100610000A570246C5F31303C1F31300C1F30A5688
:1006200040F4801543F48013A7EB0608101BD64650
:1006300008F2FD3873EB050002D308F1010801E070
:1006400092185B41B8F1000F03DA00200146BDE8C3
:10065000F08D00204FF48011064684460EE0171BF3
:1006600073EB050705D3121B63EB050306434CEA46
:10067000010C49084FEA300092185B4150EA01072B
:10068000EDD152EA030012D082EA040083EA0501A8
:10069000084305D0101BAB4106D20122002306E01F
:1006A00000224FF0004302E06FF0010253101AEBFA
:1006B00006004CEB085110EB0A0041EB0B01BDE8C2
:1006C000F04D00F02DB90EB5C10F80EAE07008447E
:1006D000CA07002140F233438DE80E000A460B465C
:1006E00000F02DF903B000BD0EB540F23341029188
:1006F0000021CDE900110A460B4600F020F903B0B5
:1007000000BD70B5C1F30A5201F000450024C1F3E9
:10071000130140F2FF3341F480119A4201DA0020C4
:1007200070BD40F233439A42A2F2334203DC52429C
:10073000FFF7B0FD00E090402C43F1D0404270BD87
:1007400000F0004230F000400AD0C10D01F56071A8
:10075000C0F3160042EA0151C20840071143704736
:1007600000200146704701F0004330B421F0004101
:1007700050EA010206D00A0DA2F56072C1F313011E
:10078000002A02DC30BC00207047440F44EAC10458
:10079000C100E01830BC00EBC25000F08AB830B5A0
:1007A0000B46014600202022012409E021FA02F52F
:1007B0009D4205D303FA02F5491B04FA02F52844C9
:1007C000151EA2F10102F1DC30BD202A04DB203A23
:1007D00000FA02F1002070479140C2F1200320FA94
:1007E00003F3194390407047202A06DBCB17203AC9
:1007F00041FA02F043EAE07306E041FA02F3D04026
:10080000C2F12002914008431946704700487047E2
:10081000541E01082DE9F05F824600780027154636
:100820008B460AF10104B946302801D09DB113E08E
:1008300014F8010B0127782803D0582801D045B1BE
:100840000AE00DB1102D07D10027102514F8010B77
:1008500002E0082500E00A250026B0460EE005FB70
:10086000080005FB06F1012701EB10461FFA80F88E
:10087000B6F5803F00D3B94614F8010B294600F0C5
:10088000EFF80028EBDABBF1000F05D00FB1641EC2
:1008900000E05446CBF80040B9F1000F06D00DF04F
:1008A00021F802210160C81EBDE8F09F48EA064019
:1008B000FAE70029A8BF7047401C490008BF20F094
:1008C0000100704710B4B0FA80FC00FA0CF050EA56
:1008D000010404BF10BC704749B1CCF1200421FAD7
:1008E00004F411FA0CF118BF012121430843A3EBD2
:1008F0000C01CB1D4FEA00614FEA102042BF0020DF
:1009000010BC704700EBC35010440029A4BF10BCBA
:100910007047401C490008BF20F0010010BC704720
:1009200010B5141E73F1000408DA401C41F10001F7
:1009300092185B411A4301D120F0010010BD2DE94E
:10094000F04D92469B4611B1B1FA81F202E0B0FA45
:1009500080F220329046FFF738FF04460F4640EA07
:100960000A0041EA0B0153465A46084313D0114688
:1009700053EA010019D0C8F140025046FFF78AFC43
:1009800005460E46504659464246FFF71EFF0843AD
:1009900005D0012004E020463946BDE8F08D002056
:1009A000054346EAE0762C4337430A986305E40A98
:1009B000A0EB08000022FD0A44EA47540A3002D5A1
:1009C00000200146E9E7010510196941DDE9084504
:1009D00000196941BDE8F04DA2E7C1F30A52C1F325
:1009E000130140F2FF3341F480119A4202DA0020F1
:1009F0000146704740F233439A42A2F2334202DC8E
:100A00005242FFF747BCFFF7E0BE000030B5041EBE
:100A100071F1000404DB4FF00044404264EB01013B
:100A2000141E73F1000405DB1C464FF000435242D4
:100A300063EB0403994208BF904230BD064C074D5A
:100A400006E0E06840F0010394E80700984710349E
:100A5000AC42F6D3FFF7A4FBA01E0108C01E01089C
:100A60003A2800D2303820F02002412A01D3A2F1E6
:100A70003700884201D34FF0FF30704710B5014670
:100A8000806B026C12F0500F05D0026CD20626D596
:100A900001F0FFFC10BD016C41F4007101640168BC
:100AA0008A6812F0405F17D1027EAAB9CA6A12F4AE
:100AB000700F02D08A6852050ED44A6822F02002D4
:100AC0004A60016C21F480710164016CC90403D493
:100AD000016C41F00101016401F0D2FC10BD806B9A
:100AE000C26CBDE810400846104710B5806B40212D
:100AF0000164416C41F00401416401F0CAFC10BD85
:100B000010B5806B01F0C4FC10BD0000014801F07D
:100B1000C1BC0000A0000020464910B54A6822F47C
:100B200040324A604A6843681A434A6001684A682A
:100B300022F480724A6001684A68036942EA03222B
:100B40004A6001684A6822F040724A6001684A6857
:100B500083681A434A6001688A6822F400628A60E6
:100B600001688A68C3681A438A60816A6FF070629C
:100B7000D14201688A6822F070628A6001688A68DE
:100B80000CD0836A1A438A6001688A6822F0405256
:100B90008A6001688A68C36A1A4301E022F0405201
:100BA0008A6001688A6822F002028A6001688A68A5
:100BB000037E42EA43028A6090F82010002901680F
:100BC0004A680FD042F400624A6001684A6822F421
:100BD00060424A6001684A68174C436A04EB433339
:100BE0001A4301E022F400624A600168CA6A22F4F2
:100BF0007002CA620168CA6A838B104C04EB03530B
:100C00001A43CA6201688A6822F400728A60016825
:100C10008A6890F8303042EA43228A6001688A6824
:100C200022F480628A6001688A68406942EA802012
:100C3000886010BD0023014000E0FFFF0000F0FFCE
:100C40009FED0B1B10B553EC112B51EC100BFFF764
:100C500053FC9FED091B53EC112BFFF7C5FC9FEDD7
:100C6000081B53EC112BFFF7A6FB41EC100B10BD3A
:100C700052B81E85EB51E83F7B14AE47E17A643FE2
:100C8000000000000000394030B5AA4900202DEDD9
:100C9000108B8BB04863A84D288841F6C811484393
:100CA000800AFFF721FD41EC100B05F11C048DEDCE
:100CB000080B688840F6E4414843800AFFF714FDBA
:100CC00041EC100B8DED060BA88840F6E44148433B
:100CD000800AFFF709FD41EC100B8DED040BE8884D
:100CE00040F6E4414843800AFFF7FEFC41EC1F0B4D
:100CF000288940F6E4414843800AFFF7F5FC41ECBF
:100D0000100B8DED020B688940F6E4414843800AE0
:100D1000FFF7EAFC41EC100B8DED000BA88940F6C3
:100D2000E4414843800AFFF7DFFC41EC1E0BE889F1
:100D300040F6E4414843800AFFF7D6FC41EC1D0B26
:100D4000288A41F6C8114843800AFFF7CDFC41ECE0
:100D50001C0B688A41F6C8114843800AFFF7C4FC9F
:100D600041EC1B0BA88A41F6C8114843800AFFF7E3
:100D7000BBFC41EC1A0BE88A40F6E4414843800A88
:100D8000FFF7B2FC41EC190B9FED6C8B9DED080B4E
:100D900053EC182B51EC100BFFF726FCC4E90001B3
:100DA0009DED060B53EC182B51EC100BFFF71CFCC0
:100DB000C4E902019DED040B53EC182B51EC100B10
:100DC000FFF712FCC4E9040153EC182B51EC1F0B84
:100DD000FFF70AFCC4E906019DED020B53EC182B4A
:100DE00051EC100BFFF700FCC4E908019DED000B6E
:100DF00053EC182B51EC100BFFF7F6FBC4E90A017A
:100E000053EC182B51EC1E0BFFF7EEFBC4E90C0161
:100E100053EC182B51EC1D0BFFF7E6FBC4E90E0158
:100E200053EC182B51EC1C0BFFF7DEFBC4E910014F
:100E300053EC182B51EC1B0BFFF7D6FBC4E9120146
:100E400053EC182B51EC1A0BFFF7CEFBC4E914013D
:100E500053EC182B51EC190BFFF7C6FBC4E9160134
:100E600038A00BF0E1FC94ED000B3AA00FF042FF2C
:100E700094ED020B3BA00FF03DFF94ED040B3DA061
:100E80000FF038FF94ED060B3EA00FF033FF94ED0A
:100E9000080B40A00FF02EFF94ED0A0B41A00FF0BD
:100EA00029FF94ED0C0B43A00FF024FF94ED0E0BE3
:100EB00044A00FF01FFF94ED100B46A00FF01AFF97
:100EC00094ED120B47A00FF015FF94ED140B49A001
:100ED0000FF010FF94ED160B4AA00FF00BFF94EDEE
:100EE000160BFFF7ADFE4BA00FF004FF94ED0E0BB9
:100EF0009FED4C1B51EC100B53EC112BFFF702FB39
:100F0000FFF7FFFBB0F5A77F02DB40F24D1002E0D8
:100F1000002800DA0020454951F82000FFF710FCB6
:100F20000BB041EC100BBDEC108B41A0BDE8304084
:100F30000FF0E0BE040000206C0200200000000062
:100F400000408F400D0A2D2D2D2D2D2D2D2D2D0DD9
:100F50000A000000616463305F352E305620202087
:100F600020203A00616463335F312E385620202000
:100F700020203A00616463345F302E3956202020EF
:100F800020203A00616463355F312E3856202020DE
:100F900020203A00616463365F312E3856202020CD
:100FA00020203A0061646331305F44315F41544531
:100FB00053543A0061646331315F44325F415445B8
:100FC00053543A0061646331325F52454620202019
:100FD00020203A0061646331335F322E3556202081
:100FE00020203A0061646331345F332E3356202071
:100FF00020203A0061646331355F352E3056202061
:1010000020203A0074656D705F73656E73285629F1
:1010100020203A0074656D705F73656E7328D12966
:1010200020203A0000000000000059408C460020BB
:101030005245462028C4E1293A00000070B50E460A
:10104000044611681546002005EBC003D3E90223CE
:10105000624073401A4302D0401C0228F4D3022895
:101060000CD102290BD009A00BF0DEFB286805EBA0
:10107000C000C0E902462868411C296070BD0AA072
:101080000BF0D2FBC5E90246002070BDD09DD0BE5A
:10109000D0B2D18BD0B920D0B0D0B4D180D0B5D11E
:1010A00081210D0A00000000D09FD180D0B5D0B2C0
:1010B000D18BD188D0B5D0BDD0BE20D187D0B8D10A
:1010C00081D0BBD0BE20D09ED0A2D09FD0A0D09047
:1010D000D092D098D0A2D095D09BD095D099210D08
:1010E0000A000000FEE7000010B50D4CB4F818121D
:1010F00060F30A01A4F81812A4F81A0294F83C024A
:1011000040F0100084F83C0220460EF047FF206BB0
:1011100010F0D8FA606BBDE8104010F0D3BA0000B0
:101120003877002010B50A4C94F8041260F30711C8
:1011300084F8041294F83C0240F0100084F83C0259
:1011400020460EF02BFFE068BDE8104010F0BABA60
:101150003877002070B5624C0021012894F80352C2
:1011600094F80432D4F834227ED025F0800084F83C
:10117000030223F0030084F80402A4F82412A4F864
:1011800026120020C4E98A0061F30F02C4E98C1220
:1011900094F83B0220F00F00093020F0F00090306E
:1011A00084F83B0294F83C0220F00F00083020F055
:1011B000100084F83C0294F8190220F0780084F8BA
:1011C00019024FF48060A4F81A02B4F81C026FF3FD
:1011D0000A0000F58060A4F81C02A4F81012A4F81C
:1011E0001212A4F81412A4F81612B4F818026FF32D
:1011F0000A0000F58060A4F8180294F8450220F077
:10120000FF0084F8450294F8460220F01F0084F89D
:10121000460294F8010220F0C00084F80102304830
:101220000EF0BCFE206810F04DFAA06810F04AFAEB
:10123000A06C10F047FAE06C10F044FA206D10F04A
:1012400041FA606D10F03EFAA06D10F03BFAE06DCF
:1012500010F038FA206E10F035FA606E10F032FAA5
:10126000606B10F02FFA00E026E0A06B10F02AFA75
:10127000206A10F027FA606A10F024FAA06A10F0D1
:1012800021FAE06A10F01EFA206B10F01BFAD4F875
:10129000980010F017FAE06F10F014FA94F83C027E
:1012A00040F0100084F83C020D480EF077FEE06F2D
:1012B000BDE8704010F006BA45F0800084F80302E3
:1012C00043F0030084F80402A4F824124FF48C4382
:1012D000A4F826120020C4E98A0363F30F0255E73D
:1012E0003877002010B50A4C94F8041260F300011E
:1012F00084F8041294F83C0240F0100084F83C0298
:1013000020460EF04BFEA068BDE8104010F0DAB9A0
:101310003877002010B50A4C94F8041260F30711D6
:1013200084F8041294F83C0240F0100084F83C0267
:1013300020460EF033FEE068BDE8104010F0E0B942
:10134000207A002070B5624C0021012894F80352E5
:1013500094F80432D4F834227ED025F0800084F84A
:10136000030223F0030084F80402A4F82412A4F872
:1013700026120020C4E98A0061F30F02C4E98C122E
:1013800094F83B0220F00F00093020F0F00090307C
:1013900084F83B0294F83C0220F00F00083020F063
:1013A000100084F83C0294F8190220F0780084F8C8
:1013B00019024FF48060A4F81A02B4F81C026FF30B
:1013C0000A0000F58060A4F81C02A4F81012A4F82A
:1013D0001212A4F81412A4F81612B4F818026FF33B
:1013E0000A0000F58060A4F8180294F8450220F085
:1013F000FF0084F8450294F8460220F01F0084F8AC
:10140000460294F8010220F0C00084F8010230483E
:101410000EF0C4FD206810F073F9A06810F070F9A8
:10142000A06C10F06DF9E06C10F06AF9206D10F00E
:1014300067F9606D10F064F9A06D10F061F9E06D6E
:1014400010F05EF9206E10F05BF9606E10F058F944
:10145000606B10F055F900E026E0A06B10F050F939
:10146000206A10F04DF9606A10F04AF9A06A10F095
:1014700047F9E06A10F044F9206B10F041F9D4F814
:10148000980010F03DF9E06F10F03AF994F83C0242
:1014900040F0100084F83C020D480EF07FFDE06F34
:1014A000BDE8704010F02CB945F0800084F80302CC
:1014B00043F0030084F80402A4F824124FF48C4390
:1014C000A4F826120020C4E98A0363F30F0255E74B
:1014D000207A002010B50A4C94F8041260F3000141
:1014E00084F8041294F83C0240F0100084F83C02A6
:1014F00020460EF053FDA068BDE8104010F000B982
:10150000207A0020014801F08DB90000C84B00206E
:10151000014801F087B90000884C002003490020F1
:10152000087003490860034801F07CB90C000020F2
:1015300050000020284C002001681823CAB2103A3D
:10154000B2FBF3F2054B6FF30901032A9B5CC36501
:1015500000D9091D8165084670470000B01D0108CB
:1015600010B5014600208B698A6A4FF0C07453B1F0
:10157000B3F5005F15D072B1012A0CD0022A0AD04F
:10158000032A09D104E01AB1012A06D0022A03D1A4
:10159000C96AC90100D5012010BDC96AA142FAD0AB
:1015A00010BD002AF7D0012AF2D0022AF3D0032A74
:1015B000F3D010BD30B50468256825F4802525607A
:1015C000046863608368402B036803D099600068F7
:1015D000C26030BD9A600068C16030BD70470000D5
:1015E0000249C863C86B0028FCD170470400002082
:1015F0002DE9F041064606EBC206DDE90650D6E9C4
:10160000A027C1E906278A6A0024402A18D2D1F807
:101610002CC0571C4CF1000CC1E90A7C01EB4212B2
:1016200000275363C2E91007D6E96003C2E90E033D
:101630000120106382F84850086A2930086203E0EC
:10164000012403A00BF0F0F82046BDE8F081000073
:10165000D0BDD0B5D18220D0BCD0B5D181D182D07F
:10166000B020D0B4D0BBD18F20D0BAD0B2D0B8D1B6
:1016700082D0B0D0BDD186D0B8D0B9210D0A00003B
:1016800070B5144600210D1940EB0106014607A074
:1016900010F04EFB21460AA010F04AFB2A463346C2
:1016A000BDE870401521402000F0A2BB777269743C
:1016B00065206D79202020202049503A000000004C
:1016C0007772697465206465737420202049503AEC
:1016D0000000000070B50D460446014605A010F05C
:1016E0005DFA22462B46BDE870402E21302000F0E6
:1016F0007FBB00007772697465206D7920202020FF
:101700004D41433A0000000070B50D4601EB004426
:10171000014607A010F042FA29460AA010F03EFA4E
:101720002246BDE8704000232D21202000F060BB40
:101730007772697465206D79202020506F72743A39
:10174000000000007772697465206465737420502E
:101750006F72743A0000000070B5144600210D1934
:1017600040EB0106014607A010F0E2FA21460AA06C
:1017700010F0DEFA2A463346BDE8704016214020BC
:1017800000F036BB7772697465206D7920202020C7
:101790002049503A00000000777269746520646542
:1017A000737420202049503A0000000070B50D46A7
:1017B0000446014605A010F0F1F922462B46BDE88B
:1017C00070402F21302000F013BB00007772697445
:1017D00065206D79202020204D41433A0000000013
:1017E00070B50D4601EB0044014607A010F0D6F994
:1017F00029460AA010F0D2F92246BDE87040002325
:101800001721202000F0F4BA7772697465206D7991
:10181000202020506F72743A0000000077726974C3
:1018200065206465737420506F72743A0000000084
:1018300010B5012001F06EF901490120087010BDBA
:101840000000002010B5022001F064F901490120D8
:10185000087010BD0400002010B5042001F05AF9F2
:1018600001490120087010BD0500002010B580203E
:1018700001F050F901490120087010BD0600002058
:10188000704700002DE9F04F8046C6080F464FF420
:10189000807B91B0002259467F4801F010FA38460B
:1018A0000FF0FEFE0027B946EA4608E000200FF0E0
:1018B000F7FE0AEBC7027F1CC2E90009FFB2B7EBD3
:1018C000D80FF3D301225946734801F0F8F9012EDD
:1018D0000ED0022E0FD0032E17D0042E26D0052EA8
:1018E0003FD0062E60D0072E7ED0082E7DD056E049
:1018F000DDE9005453E0DDE900010C02DDE90212EC
:1019000044EA10640002451848E0DDE900010C04D7
:1019100044EA10440204DDE90210000240EA1160CA
:10192000090251184441DDE9040236E0DDE9001006
:101930000006DDE9062440EA112009065218444158
:10194000DDE90210000440EA11400B04DDE9045116
:10195000090241EA15612D025B194841D51844413D
:101960001DE0DDE90220000640EA12201206009C7C
:1019700019EB02014441DDE90420000440EA124071
:10198000120489184441DDE90620000240EA126091
:10199000120289184441DDE908020D18544111B0C2
:1019A00028462146BDE8F08F0299009819EB0902FC
:1019B00041EB0024DDE904104FEA006040EA112009
:1019C0004FEA016151184441DDE90620000440EA74
:1019D000124012048A184441DDE90810000240EA6E
:1019E00011600902511801E004E02AE04441DDE9F8
:1019F0000A02D2E7009802990404484619EB000253
:101A000044EB0124049912EB09024C41DDE9061074
:101A1000000640EA1120090651184441DDE908207A
:101A2000000440EA1240120489184441DDE90A200A
:101A3000000240EA1260120289184441DDE90C02FA
:101A4000ABE700980299040648460A0419EB000126
:101A50005441049A091844EB0224069A11EB090137
:101A60005441DDE90820000640EA122012068918D8
:101A70004441DDE90A20000440EA124012048918BA
:101A80004441DDE90C20000240EA1260120289188C
:101A90004441DDE90E0280E7001002402DE9FC47D9
:101AA0008946C4080546D1B2012C21D0100A40EA6B
:101AB0000360C0B2022C1ED0160C46EA0346F6B2F2
:101AC000032C1DD0120E42EA0322D2B24FEA136851
:101AD000042C1CD0DFB2052C22D0C3F3072C062C1B
:101AE00029D0C3F30743072C32D0082C3FD04EE057
:101AF0008DF803104BE08DF802108DF8030046E0DE
:101B00008DF801108DF802008DF803603FE08DF82C
:101B100000108DF801008DF802608DF8032036E08A
:101B20008DF800108DF801008DF802608DF803200B
:101B30008DF804702BE08DF800108DF801008DF801
:101B400002608DF804708DF803208DF805C01EE04A
:101B50008DF800108DF801008DF804708DF802608A
:101B60008DF805C08DF803208DF806300FE08DF854
:101B700000108DF804708DF801008DF805C08DF807
:101B800002608DF806308DF803208DF80780DFF8AD
:101B900044804FF4807700223946404601F08FF8A8
:101BA00049F080000FF07CFD00246E4607E000BF86
:101BB000C4F10300305C0FF073FD641CE4B2B4EBBD
:101BC000D50FF5D301223946404601F078F80020C0
:101BD000BDE8FC87001002402DE9F04F8046C608A2
:101BE0000F464FF4004B91B0002259467F4801F058
:101BF00066F838460FF054FD0027B946EA4608E07B
:101C000000200FF04DFD0AEBC7027F1CC2E900095E
:101C1000FFB2B7EBD80FF3D301225946734801F056
:101C20004EF8012E0ED0022E0FD0032E17D0042E08
:101C300026D0052E3FD0062E60D0072E7ED0082E4F
:101C40007DD056E0DDE9005453E0DDE900010C02EF
:101C5000DDE9021244EA10640002451848E0DDE9BB
:101C600000010C0444EA10440204DDE90210000201
:101C700040EA1160090251184441DDE9040236E0EE
:101C8000DDE900100006DDE9062440EA112009061E
:101C900052184441DDE90210000440EA11400B04EF
:101CA000DDE90451090241EA15612D025B19484141
:101CB000D51844411DE0DDE90220000640EA12206B
:101CC0001206009C19EB02014441DDE904200004E6
:101CD00040EA1240120489184441DDE9062000025E
:101CE00040EA1260120289184441DDE908020D1829
:101CF000544111B028462146BDE8F08F0299009862
:101D000019EB090241EB0024DDE904104FEA006001
:101D100040EA11204FEA016151184441DDE90620F3
:101D2000000440EA124012048A184441DDE9081018
:101D3000000240EA11600902511801E004E02AE0C3
:101D40004441DDE90A02D2E70098029904044846BA
:101D500019EB000244EB0124049912EB09024C41F7
:101D6000DDE90610000640EA112009065118444139
:101D7000DDE90820000440EA1240120489184441B9
:101D8000DDE90A20000240EA12601202891844418B
:101D9000DDE90C02ABE700980299040648460A0404
:101DA00019EB00015441049A091844EB0224069AE5
:101DB00011EB09015441DDE90820000640EA122038
:101DC000120689184441DDE90A20000440EA124065
:101DD000120489184441DDE90C20000240EA126037
:101DE000120289184441DDE90E0280E7001002402A
:101DF0002DE9FC478946C4080546D1B2012C21D003
:101E0000100A40EA0360C0B2022C1ED0160C46EA4B
:101E10000346F6B2032C1DD0120E42EA0322D2B2C0
:101E20004FEA1368042C1CD0DFB2052C22D0C3F378
:101E3000072C062C29D0C3F30743072C32D0082CDB
:101E40003FD04EE08DF803104BE08DF802108DF876
:101E5000030046E08DF801108DF802008DF8036054
:101E60003FE08DF800108DF801008DF802608DF8CC
:101E7000032036E08DF800108DF801008DF8026027
:101E80008DF803208DF804702BE08DF800108DF88C
:101E900001008DF802608DF804708DF803208DF834
:101EA00005C01EE08DF800108DF801008DF804705B
:101EB0008DF802608DF805C08DF803208DF806308E
:101EC0000FE08DF800108DF804708DF801008DF88A
:101ED00005C08DF802608DF806308DF803208DF86E
:101EE0000780DFF844A04FF40048002241465046E6
:101EF00000F0E5FE49F080000FF0D2FB641EE6B270
:101F000000246F4605E0301B385C0FF0C9FB641CF1
:101F1000E4B2B4EBD50FF6D301224146504600F0AF
:101F2000CEFE0020BDE8FC87001002402DE9F04FF6
:101F30000446002180688846894600BA20F0FF01E7
:101F4000E07A627B0143207B1204000641EAE071E3
:101F5000104341EAE271A27B87B01202104341EACA
:101F6000E271E27B104341EAD271B64AFFF766F8AC
:101F700000EB400202EBC012B348218800EB0215CF
:101F800049BA06922980608840BA68806068E17921
:101F900000BA20F0FF000843A860A068E17A00BA08
:101FA00020F0FF000843217B627B090640EAE170D4
:101FB0001204114340EAE270A27B1202114340EA8C
:101FC000E270E27B114340EAD270C5E90410206957
:101FD000E17C00BA20F0FF000843217D627D090604
:101FE000130440EAE170A27D1943120240EAE37053
:101FF000114340EAE270E27D114340EAD270C5E944
:102000000610A069E17E00BA20F0FF0008432862B4
:10201000E069E17F00BA20F0FF0008436862206AAF
:1020200094F8231000BA20F0FF00084394F824101D
:1020300094F82520090640EAE1701204114340EAB1
:10204000E27094F82620DFF804B21202114340EA4D
:10205000E27094F82720114340EAD270C5E90A10D3
:10206000282689E0A01905EB48130168C27809BA4F
:1020700021F0FF01114319634168C27909BA21F0C7
:10208000FF01114359638168C27A09BA21F0FF0147
:102090001143477B027B4FEA074C120641EAE2718B
:1020A000877B42EA0C023F0241EAEC713A4341EA83
:1020B000E771C77B3A4341EAD771C3E90E21016951
:1020C000C27C09BA21F0FF01477D1143027D4FEA2E
:1020D000074C120641EAE271877DC07D3F0242EA69
:1020E0000C0241EAEC713A4341EAE771024341EAEA
:1020F000D071C3E91021DBF80014CBF804148A4630
:10210000491E0027CBF82014F0195049205C09F033
:10211000F9FB7F1C182FF7D300270AE0F0192044A1
:10212000DA19017E82F84810007E484909F0EAFB7E
:102130007F1C186BB842F1D8DBF800143E44491CF0
:10214000CBF82414D3E90E01CDE90401D3E9100141
:10215000CDE902012969586BCDE900013C49069897
:10216000534601EB00103B4A3849183609F00EFB84
:1021700018F1010849F10009D5E90A23B8EB020179
:1021800079EB0300FFF46EAF33A00AF04DFB298812
:1021900032A00FF003FD698834A00FF0FFFC37A0D8
:1021A000A9680FF0FBFC39A029690FF0F7FC3BA0F0
:1021B000A9690FF0F3FC3DA0296A0FF0EFFC3FA0E6
:1021C000696A0FF0EBFC41A0A96A0FF0E7FC00245C
:1021D000204626E020A00AF027FB05EB44163FA08E
:1021E000316B0FF0DBFC40A0716B0FF0D7FC41A00E
:1021F000B16B0FF0D3FC42A0316C0FF0CFFC16A0F6
:102200000AF012FB002706E0F01990F848103FA0F2
:102210000FF08EFD7F1C306BB842F5D8641C48F17E
:1022200000008046D5E90A10611A78EB0002D1D38C
:1022300009F0D2F909F0FEF907B00648BDE8F04F01
:102240000AF0D6B978760020485D0020A86D0020FD
:10225000E84C0020D07100200D0A00004672616D2C
:10226000655F73697A65202020203A004672616DAF
:10227000655F6E756D62657220203A004D73675F11
:10228000756E69715F69642020203A0053656E6441
:1022900065725F696420202020203A0052656365E2
:1022A000697665725F69642020203A004D73675F2C
:1022B00073697A652020202020203A004D73675FE3
:1022C000747970652020202020203A004E756D5FC3
:1022D000636D645F696E5F6D73673A00436D645F41
:1022E00073697A653A000000436D645F74797065C4
:1022F0003A000000436D645F696420203A000000EA
:10230000436D645F74696D653A000000436D645FFE
:10231000646174613A3078007047000078B5002439
:10232000009490F83C20012A19D0012280F83C202A
:102330000A6807230568092A13D9EE680A3A02EBEE
:10234000420293409E43EE600B788A680A3B03EB9F
:1023500043039A400368DD682A43DA6010E00220F4
:1023600078BD2E6902EB420293409E432E610B78AA
:102370008A6803EB43039A4003681D692A431A6184
:102380004A681F23072A13D205686E6B521E02EBA0
:10239000820293409E436E630A8893B20A79521E6A
:1023A00002EB820293400268556B2B43536327E094
:1023B00005680D2A12D22E6BD21F02EB82029340C7
:1023C0009E432E630B790A88DB1F92B203EB8303D3
:1023D0009A4003681D6B2A431A6311E0EE6A0D3AB6
:1023E00002EB820293409E43EE620B790A880D3B1A
:1023F00092B203EB83039A400368DD6A2A43DA62F0
:102400001B4B0568194A9D420AD10D68122D07D150
:10241000556825F400055560556845F480055560FC
:1024200005689D421DD1134D0B68AB4201D0112BA5
:1024300017D1536823F480035360536843F40003B7
:1024400053600968A9420CD10B490C4A0968B1FBD9
:10245000F2F101EB8101490000E0491E00910029E1
:10246000FBD180F83C40002078BD000000230140F3
:1024700000200140120000109800002040420F0090
:102480000248416B491C4163704700000400002072
:102490007047704770B50446006801684268C1F330
:1024A0004001C2F3401251B34AB3216CC90603D4B0
:1024B000216C41F400712164816811F0405F17D1F3
:1024C000217EA9B9C16A11F4700F02D08168490553
:1024D0000ED4416821F020014160206C20F480700E
:1024E0002064206CC00403D4206C40F00100206400
:1024F0002046FFF7C5FF21686FF0120008602068D2
:1025000001684268C1F38001C2F3C01289B382B38B
:10251000216CC90603D4216C41F400512164816807
:1025200011F4401F1ED1816B11F4401F02D081684D
:10253000490517D44168490514D4816811F0405FFA
:1025400010D1217E71B9416821F080014160206C79
:1025500020F480502064206CC00503D4206C40F02F
:10256000010020642046FFF7D7FE21686FF00C00C1
:10257000086020680168426811F0010FC2F3801200
:102580000ED06AB10068C0070AD0206C40F48030D9
:102590002064204600F046F821686FF001000860D2
:1025A000206801684268C1F34011C2F380620029CB
:1025B0000DD0002A0BD0616C41F0020161646FF014
:1025C000200505602046FFF764FF2068056070BDA8
:1025D00070B504004FF0000503D0206C002610B148
:1025E00007E0012070BD204600F01EF8666484F804
:1025F0003C60206CC00610D4206C20F4885040F061
:10260000020020642046FEF787FA6664206C20F002
:10261000020040F00100206400E0012584F83C60E5
:10262000284670BD7047000070B586B0064614217C
:102630006846FDF746FE2C493068884252D12B4847
:102640000025016841F4807101600068274900F4A9
:10265000807014390590086840F00400086008682C
:1026600000F004000590086840F001000860086868
:1026700000F001000590086840F00200086008685A
:10268000032400F0020005903F208DE831006946E8
:10269000174800F04BFA79208DE83100694615485B
:1026A00000F044FA154C1448C4E900050015A56073
:1026B000C4E90350400060618000A0614011C4E99A
:1026C00007052046656200F07DF908B1FFF7D8F8EC
:1026D000B463002211461220A66300F053FC1220BE
:1026E00000F042FC06B070BD0020014044380240BA
:1026F000000802400000024010640240C84B002065
:10270000F8B50E4600210446009190F83C000128DF
:1027100007D0012084F83C0020688368DB0702D0E2
:1027200011E00220F8BD836843F0010383602D4867
:102730002D4B0068B0FBF3F000EB400000E0401EC2
:1027400000900028FBD120688368DB0748D0236C09
:1027500040F20165AB4343F4807323644068400555
:1027600005D5206C20F4005040F480502064206C8B
:10277000C00404D5606C20F00600606400E0616471
:1027800084F83C10A16B1A48184DC863A16B194816
:102790000864A16B1848C86421686FF022000860C3
:1027A0002068416841F0806141602068816841F49F
:1027B000807181602168134632464C31A06B00F075
:1027C0006BF96868C006206802D00C49884207D1BE
:1027D000816811F0405F03D1816841F080418160E0
:1027E0000020F8BD9800002040420F000023014067
:1027F0007D0A0008010B0008EB0A000800200140D8
:1028000090F83510022903D08021416501207047DE
:10281000052180F835100068016821F00101016090
:10282000002070472DE9F84304464FF00009CDF829
:10283000009063484FF41651A56D0068B0FBF1F7A6
:102840002E6894F85C10082000FA01F131420FD094
:1028500021680A6852070BD50A6822F004020A6050
:1028600094F85C108840A860606D40F001006065DD
:1028700094F85C104FF0010808FA01F0304208D0DB
:1028800021684969090604D5A860606D40F002001E
:10289000606594F85C1004208840304208D02168BC
:1028A0000968890704D5A860606D40F00400606580
:1028B00094F85C1010208840304218D021680968D4
:1028C000090714D5A86020680168490304D5006889
:1028D000000308D5A16C07E00168C90503D40168AD
:1028E00021F008010160216C09B12046884794F865
:1028F0005C1020208840304231D021680968C90628
:102900002DD5A86094F8350005282068016806D008
:10291000490347D5006800031DD4616C1CE021F019
:10292000160101602068416921F080014161206C3D
:1029300008B9A06C20B12068016821F0080101608D
:1029400094F85C103F208840A86084F8349084F8A4
:102950003580216D1FE0E16B09B120468847606D2D
:1029600000282BD0606DC00714D0052084F83500F6
:102970002068016821F0010101600098401C00906E
:10298000B84203D820680068C007F6D184F83490B4
:1029900084F83580E16C002910D001B02046BDE8F4
:1029A000F04308470168C905D5D4016821F010013A
:1029B000016084F8349084F83580CCE7BDE8F88372
:1029C000980000202DE9F041044600F07DF906460C
:1029D0005CB1002584F83450022084F8350020686A
:1029E000016821F0010101600DE00120BDE8F081E6
:1029F00000F06AF9801B052805D9202060650320B6
:102A000084F83500F2E720680068C007F0D122683A
:102A1000116820480140D4E901031843D4E9033682
:102A20003343184363691843A3691843E3691843A0
:102A3000236A18430843616A042903D1D4E90B13BC
:102A400019430843106020684069666A20F0070156
:102A500030460E43012704280CD1A06A0643E06AE1
:102A600040B12046FEF77CFD20B14020606584F82F
:102A70003570BAE7206846612046FEF75DFD94F8A0
:102A80005C203F2191408160656584F835700020AD
:102A9000ACE700003F8010F02DE9F0410446866D60
:102AA00090F83400002501280DD0012084F834006E
:102AB00094F835700020012F07D084F834000225E7
:102AC0002846BDE8F0810220FBE7022784F8357034
:102AD00060652046FEF76EFD94F85C103F2088404C
:102AE000B0602068016841F016010160206841690A
:102AF00041F080014161206C20B12068016841F003
:102B0000080101602068016841F001010160D7E718
:102B100070470000044910B50A68024202D00860FC
:102B2000FFF7F6FF10BD0000143C01402DE9F84FFF
:102B3000DFF860B100224FF001084FF0030A4FF0B8
:102B40000F090BF1040E00BF0B6808FA02F42340D2
:102B5000A3426ED14D68022D01D0122D0ED1D508A1
:102B600000EB850CDCF820505607F70E09FA07F643
:102B7000B5430E69BE402E43CCF820600668550070
:102B80000F790AFA05FC07F0030726EA0C06AF40A6
:102B9000374307604E68012E05D0022E03D0112E58
:102BA00001D0122E0ED18668CF6826EA0C06AF40FF
:102BB000374387604668A6430C79C4F300149440F9
:102BC00034434460C6688C6826EA0C06AC40344343
:102BD000C4604C68E40056D52F4C256845F4804508
:102BE0002560246822F0030504F4804400942B4CF3
:102BF0002E19D6F8084895072F0F09FA07F5AC43A8
:102C0000274DA84201D1002515E0264DA84201D14B
:102C1000012510E0244DA84201D102250BE0234DEF
:102C2000A84201D1032506E0214DA84202D1042586
:102C300001E028E00725BD402543C6F80858DBF829
:102C400000405D464E689C43F60300D51C432C6053
:102C5000DEF8004075464E689C43B60300D51C4321
:102C60002C600C4D08352C684E689C43F60200D54C
:102C70001C432C60074D0C352C684E689C43B602F3
:102C800000D51C432C60521C102AFFF45DAFBDE838
:102C9000F88F0000003C0140443802400030014001
:102CA000000002400004024000080240000C024004
:102CB000001002400069084000D0012070470AB1AE
:102CC000816170470904FBE7014880687047000094
:102CD0008C00002070B504001BD094F83D00002546
:102CE00020B984F83C50204600F0AEF8242084F847
:102CF0003D002068016821F00101016000F00CFA3C
:102D00004D4A6168914201D84C4900E04C498842E3
:102D100001D2012070BD4B492368B0FBF1F15E6820
:102D200026F03F060E435E606368934206D94FF477
:102D3000967359434FF47A73B1FBF3F12368491C3E
:102D40001E6A26F03F06314319626168914210D82D
:102D50004900401EB0FBF1F2521CC2F30B02042AE0
:102D600001D2042022E0B0FBF1F0401CC0F30B00C4
:102D70001CE0A368F3B301EBC10202EB0116421E93
:102D8000B2FBF6F2521C42F48042120549D093B3D2
:102D900001EBC10202EB0111401EB0FBF1F0401C3F
:102DA000C0F30B0040F4804040F400402168CA6941
:102DB0004CF6FF739A431043C861D4E907010843F6
:102DC00021680A6822F0C00210430860D4E90301B8
:102DD00001432068826848F2FF339A4311438160BF
:102DE000D4E9050108432168CA6822F0FF021043B4
:102DF000C86001E00EE016E02068016841F00101C2
:102E000001602564202084F83D00256384F83E504D
:102E1000002070BD01EB4106421EB2FBF6F2521CCF
:102E2000B3E70120C2E701EB4101401EB0FBF1F026
:102E3000401CC0F30B00B7E7A086010080841E0091
:102E400000093D0040420F0010B586B00446142131
:102E50006846FDF736FA14492068884221D11348A4
:102E6000016841F0020101600068694600F002005B
:102E700005904FF4407000901220019001200290C4
:102E800003200390042004900948FFF74FFE0748F1
:102E90001030016841F400110160006800F4001076
:102EA000059006B010BD00000054004030380240CC
:102EB0000004024002488168027811448160704732
:102EC0008C0000200B4810B5016841F400710160CE
:102ED000016841F480610160016841F48071016022
:102EE000032000F06FF8002000F006F800F024F84E
:102EF000002010BD003C024070B50D4D04464FF45B
:102F00007A712878B1FBF0F00A490968B1FBF0F05A
:102F100000F067FC48B9102C07D200222146501E51
:102F200000F030F800206C6070BD012070BD000022
:102F30008C000020980000200A4808B5016841F480
:102F400080410160006800F4804000900548001F47
:102F5000016841F080510160006800F080500090ED
:102F600008BD000044380240002809DB00F01F02C1
:102F7000012191404009800000F1E020C0F80011DB
:102F800070470000F0B40E4B1B680C46C3F30223DD
:102F9000C3F10705042D00D90425191D072901D205
:102FA000002300E0DB1E012606FA05F1491E214040
:102FB00099409E40761E16403143F0BC0AF082BC18
:102FC0000CED00E0064900F0070208684FF6FF0329
:102FD000184040EA0220034A10430860704700008E
:102FE0000CED00E00000FA052DE9F0470E46050063
:102FF00065D0DFF81481D8F80000F7B200F00F00B8
:10300000B04207D288F80070D8F8000000F00F0036
:10301000B04254D128683D4C810712D5400703D5F2
:10302000206840F4E05020602878000703D520682D
:1030300040F4604020602068A96820F0F000084358
:1030400020602878C0072DD03049686808390128E9
:1030500012D0022813D0032811D00968890700294B
:103060002DDA216821F0030101432160FFF72CFED6
:10307000814641F2883A0EE009688903EFE7096862
:103080008901ECE7FFF720FEA0EB0901514502D9C9
:103090000320BDE8F0872068696800F00C00B0EB01
:1030A000810FEFD1D8F80010404601F00F01B14276
:1030B00007D90770006800F00F00B04201D001206E
:1030C000E7E72878400705D52068E96820F4E05054
:1030D000084320602878000706D52068296920F475
:1030E000604040EAC100206000F036F82168084ADC
:1030F000C1F30311515CC840064908600020FFF786
:10310000FBFE0020C5E70000003C024008380240FA
:10311000B81D0108980000200448054900680968A6
:10312000044AC1F38221515CC840704798000020D6
:1031300008380240C81D01080448054900680968AC
:10314000044AC1F34231515CC840704798000020E6
:1031500008380240C81D0108154810B5006810F075
:103160000C02144813D04110042A0FD0082A0ED1A3
:103170000F4C241F2268236802F03F025B0207D530
:103180002068C0F38810A0FB010106E0084610BDCE
:103190002168C1F38811A1FB00010023FDF718F895
:1031A0002168C1F30141491C4900B0FBF1F010BD99
:1031B000083802400024F4002DE9F84F050076D0CD
:1031C0002878DFF8F8B2BE4CC00749D0DBF8001011
:1031D0005846C1F38101012908D00068C0F381007D
:1031E00002280AD1201D0068400206D5206880030D
:1031F00036D568680028E2D032E06868B0F5803FD4
:1032000010D0B0F5A02F206810D020F480302060BE
:10321000206820F4802020606868A0B1FFF754FD8A
:1032200006460CE0206840F48030F4E740F480204B
:103230002060F7E7FFF748FD801B642873D82068FB
:103240008003F7D50CE0FFF73FFD064605E000BF21
:10325000FFF73AFD801B6428F0D820688003F7D47C
:103260002878DFF8608280074FF000093ED5DBF850
:103270000010584611F00C0F09D00068C0F381000F
:1032800002280BD18D48001F0068400206D4206838
:10329000800715D5E868012809D111E0E868B8B1C0
:1032A0000120C8F80000FFF70FFD064605E002E127
:1032B000FFF70AFD801B0228C0D820688007F7D5D9
:1032C0002068296920F0F80040EAC10020600DE084
:1032D000C8F80090FFF7F8FC064604E0FFF7F4FC9E
:1032E000801B02281FD820688007F7D428780007A1
:1032F00022D5724E744869696C3671B10121016042
:10330000FFF7E2FC074604E0FFF7DEFCC01B0228E3
:1033100009D830688007F7D50EE0C0F80090FFF7B5
:10332000D3FC074605E083E0FFF7CEFCC01B022874
:103330007ED830688007F7D42878400768D5DFF852
:103340007CA100270AF1380ADAF80000C0000BD48B
:10335000DAF8001041F08051CAF80010DAF80000E5
:10336000012700F080500090584E3068C00510D4FE
:10337000306840F480703060FFF7A6FC009005E0F4
:10338000FFF7A2FC0099401A022851D83068C00506
:10339000F6D54A4EA868683601280FD0052830684F
:1033A00010D020F001003060306820F00400306060
:1033B000A868B8B1FFF788FC00900FE0306840F0D3
:1033C0000100F4E740F004003060F7E7FFF77CFC11
:1033D0000099411A41F28830814264D830688007F0
:1033E000F4D50EE0FFF770FC009007E0FFF76CFCEF
:1033F0000099411A41F28830814254D830688007E0
:10340000F4D42FB1DAF8001021F08051CAF800107E
:10341000A869C0B3DBF80010C1F3810102294AD0CA
:103420000228484607D0C8F86000FFF74DFC00E0CE
:1034300039E005463AE04746C8F86000FFF744FC2B
:10344000064604E0FFF740FC801B02282BD82068CA
:103450008001F7D4D5E907010843A96A1C4A490845
:1034600002EB01416A6A41EA8211084395F82C1087
:1034700040EA01611148001F016001203866FFF732
:1034800023FC054605E014E0FFF71EFC401B022864
:1034900009D820688001F7D50BE000BFFFF714FCC6
:1034A000401B022802D90320BDE8F88F2068800164
:1034B000F4D40020F8E70120F6E7000008380240C5
:1034C0000038024000004742800E47420070004032
:1034D0000000FFFF70B5040005D00025A56294F838
:1034E000510010B106E0012070BD84F85050204614
:1034F00000F030F8022084F851002068016821F0C3
:1035000040010160D4E901010843D4E903121143E9
:10351000084361690843218B01F400710843E169A4
:103520000843216A0843A16A084321680860A0692A
:10353000042101EA1040616A08432168486020685C
:10354000C16921F40061C1616565012084F8510001
:10355000002070BD70B586B0044614216846FCF7A3
:10356000B0FE2348214E256800242149103802224C
:103570000323B54219D10D6845F480450D600968F3
:1035800001F480410591016841F002010160006889
:10359000694600F0020005904FF470408DE8150078
:1035A0000520CDE9033013481BE0134EB5421AD174
:1035B0000D6845F400450D60096801F4004105916E
:1035C000016841F0040101600068694600F00400F0
:1035D00005904FF4E0508DE815000620CDE903304A
:1035E0000648FFF7A3FA06B070BD0000003800409F
:1035F0004038024000040240003C00400008024005
:103600002DE9F84F044690F8500000270A9E1D4609
:1036100092468B464FF0010901280ED0012084F814
:103620005000FFF751FB804694F851006168012873
:103630000CD0B1F5827F07D102E00220BDE8F88FFF
:10364000A16809B9042801D00227C2E0BBF1000F2C
:1036500027D0BAF1000F24D01DB394F851000428EC
:1036600002D0052084F8510000206065C4F838A01D
:10367000E587A587C4F830B0E586A5862064606438
:1036800020680168490603D4016841F040010160E7
:10369000E068B0F5006F606805D0E8B3012D46D052
:1036A0007FE0012795E008B1012D39D1206B216819
:1036B0000088C860206B801C2063E08E401EE0867E
:1036C0002EE02068816889070FD5E18E69B1B9F1D4
:1036D000010F0AD1216B0988C160206B801C206317
:1036E000E08E401EE0864FF0000920688168C9071F
:1036F0000CD0E18F51B1C068A16B0880A06B801C19
:10370000A063E08F401EE0874FF00109FFF7DCFA6D
:10371000A0EB0800B04200E009E001D3701C50D1DA
:10372000E08E0028CDD1E08F0028CAD13FE0206B89
:10373000216800780873206B401C2063E08E401ED7
:10374000E0862EE02068816889070FD5E18E69B197
:10375000B9F1010F0AD1216B09780173206B401C6C
:103760002063E08E401EE0864FF0000920688168EB
:10377000C9070CD0E18F51B1C068A16B0870A06B74
:10378000401CA063E08F401EE0874FF00109FFF767
:103790009BFAA0EB0800B04202D3701C01D010E0ED
:1037A0007EB1E08E0028CDD1E08F0028CAD14246FC
:1037B0003146204608F0A6FE28B10127202060658A
:1037C00007E0032705E0A06818B92068C168806891
:1037D0000090012084F85100002084F85000384601
:1037E0002CE710B5401EB0F1807F01D3012010BD41
:1037F0004FF0E02460610F2160170AF063F80020A9
:10380000A06107202061002010BD704710F8391F0B
:10381000407808437047000070B50268044610689D
:10382000D168536910F00F0F51D003F0010501F476
:10383000907635435DD0C20705D0CA0503D5E26B4B
:1038400042F00102E263420705D5DA0703D0E26BDA
:1038500042F00202E263820705D5DA0703D0E26B89
:1038600042F00402E263020705D5DA0703D0E26BF7
:1038700042F00802E263E26B002A34D0800604D5ED
:10388000880602D5204609F076F820684069E16B89
:10389000C0F3801001F008010143204624D009F054
:1038A00053F82068416949061AD5416921F0400161
:1038B0004161606BA0B11B490165606BFEF7A0FF21
:1038C000002810D0606B016DBDE87040084783068A
:1038D0000FD58B060DD52046BDE8704009F04BB8DA
:1038E0002046FFF792FF70BDFFF78FFF0020E063D7
:1038F00070BD030606D50B0604D52046BDE8704012
:1039000009F0DAB94006F3D54806F1D5D16820466A
:1039100021F04001D160202184F8391000F062F9D3
:1039200070BD000079C8000870B5040004D094F898
:103930003900002510B106E0012070BD84F8385030
:10394000204600F023F8242084F839002068C1685C
:1039500021F40051C160204609F058F8206801693F
:1039600021F4904101612068416921F02A014161FF
:103970002068C16841F40051C160E563202084F8EB
:10398000390084F83A00002070BD00002DE9F043B2
:1039900087B0064614216846FCF793FC4448DFF8DC
:1039A0000C81D6F800C000244149143802220123BA
:1039B000032540274FF48069C44536D1D1F800C0B3
:1039C0004CF0100CC1F800C0096801F0100105911D
:1039D000016841F0010101600068694600F00100E2
:1039E000059068028DE82D00072004903148FFF70C
:1039F0009DF8324D3048286078056860C5E902744A
:103A0000C5E90494AC61EC612C6228466C62FEF757
:103A1000D9FF08B1FDF734FF356300221146252098
:103A2000AE63FFF7AFFA25203BE0DFF89480C44592
:103A300039D1D1F800C04CF0200CC1F800C00968A1
:103A400001F020010591016841F004010160006866
:103A5000694600F004000590C0208DE82D00082084
:103A600004901848FFF762F81348174D183828607B
:103A70004FF020606860C5E90274C5E90494AC6148
:103A8000EC612C6228466C62FEF79CFF08B1FDF7E2
:103A9000F7FE3563002211464720AE63FFF772FA46
:103AA0004720FFF761FA07B0BDE8F083001001403E
:103AB0004438024000000240B8640240284C002014
:103AC0000014014000080240884C002090F83A3071
:103AD000202B22D1F9B1F2B190F83830012B1CD053
:103AE00081628285C2850021C163222280F83A204A
:103AF00080F838100168CA6842F48072CA600168B0
:103B00004A6942F001024A610068C16841F020013F
:103B1000C1600020704701207047022070470000FC
:103B20000D480278C01F016D0C4B0B44491C016508
:103B30001A70026D0021402A00D10165826D521C6D
:103B40008265402A02D18165012141720122024928
:103B50000348FFF7BBBF00000B000020E842002035
:103B6000EC01002070B5044690F83900202830D1CF
:103B700069B362B394F8380001282AD0012084F890
:103B800038002162A284E2840025E563212084F8C4
:103B90003900236B1048D863236B10481864236BDB
:103BA0000F48D864206B134605652668206B321DCC
:103BB000FEF772FF21686FF04000086084F838500B
:103BC0002068416941F080014161002070BD012001
:103BD00070BD022070BD0000D3C8000801C90008F4
:103BE00089C8000870477047FEE710F8401F4AF682
:103BF000CD3221F0FF010170417821F07F0141F0C9
:103C000080014170817821F0DF0141F02001817055
:103C1000C17821F01F01C17000210171C28049F6F5
:103C2000760202818172C17A21F0FF01C172017BAB
:103C300021F00C0141F003010173417B21F01F01D0
:103C40000F3121F0E0014173817B21F03F012C31E4
:103C50008173C17B21F07F01203121F08001C1738C
:103C6000017C21F07F0101747047000030B590F8AD
:103C7000D61221F0C00180F8D612002180F8D712A8
:103C800090F8002222F0F30242F00C02803280F819
:103C9000002290F801224C1E22F0E30242F01C02A6
:103CA00080F8012290F80222230C22F0DF0242F079
:103CB000200280F8022290F8032222F0AF0242F0A4
:103CC000500280F8032290F8042222F00B0242F006
:103CD000F40280F8042290F8052222F0010242F05A
:103CE000020280F80522D0F80C2263F30F02C0E92B
:103CF000824280F80E1280F80F12A0F81012A0F87D
:103D00001212A0F81412A0F81612B0F818226FF3CD
:103D10000A0202F58062A0F8182290F8192222F017
:103D2000780280F819224FF48062A0F81A22B0F8C5
:103D30001C426FF30A0404F58064A0F81C4290F85A
:103D40001D4224F0780480F81D42A0F81E22A0F83D
:103D50002012A0F82212A0F82412A0F826120022A5
:103D6000C0E98A22D0F8342261F30F02C0E98C1234
:103D700090F8362222F03F0242F0C00280F836224C
:103D800090F8372222F0FF0280F8372280F83812AC
:103D900090F8392222F00F02093222F0F00290321C
:103DA00080F8392290F83A2222F00F02093222F0EC
:103DB000F002903280F83A2290F83B2222F00F0273
:103DC000093222F0F002903280F83B2290F83C2237
:103DD00022F00F02083222F0100280F83C2290F804
:103DE0003D2222F00F02083222F0F00280F83D223C
:103DF00090F83E2222F00F02083222F0F002403208
:103E000080F83E2290F83F2222F00302921C22F01A
:103E1000F00242F00C02403280F83F2290F840223B
:103E200022F00302921C22F00C02121D80F84022A4
:103E3000DA11A0F8422290F8442222F03F02203208
:103E400080F8442290F8452222F0FF0280F84522B3
:103E500090F8462222F0300242F00F0280F846220B
:103E6000012280F84722A0F8483290F84A3223F025
:103E7000030380F84A32A0F84C1290F84E3223F037
:103E80000703DB1C23F0D80343F0200380F84E32F5
:103E900090F84F3249F2282523F0FF0380F84F3283
:103EA0000F2380F8503290F8514224F00F04641C24
:103EB00024F0100480F8514290F8524224F03F045C
:103EC0000D3424F0C004803480F8524290F85342FC
:103ED00024F01F04143424F0E00480F8534290F8D6
:103EE000544224F0070444F0200480F85442032490
:103EF00080F85542A0F856524FF4A475A0F85852D5
:103F00008825A0F85A52A0F85C1280F85E12A0F83A
:103F10006012A0F86212A0F86412A0F8661280F88D
:103F2000681280F86922022580F86A5280F86B4294
:103F3000042580F86C52052580F86D52062580F81E
:103F40006E5290F86F5225F01F05ED1D25F0E0052B
:103F5000203580F86F5280F87022A0F8721280F835
:103F6000744290F8754224F0030444F0FC0480F895
:103F7000754280F8763280F8772280F8783280F8BF
:103F8000792280F87A2280F87B1290F87C4224F023
:103F90001F040F3424F0600480F87C4280F87D32E6
:103FA0001C2380F87E3290F87F3223F0F00343F038
:103FB0000F0380F87F3290F8803223F01F0380F8DF
:103FC000803290F8813223F07F0380F8813280F8CC
:103FD0008212FF2380F8833290F8844224F0030495
:103FE00080F8844280F8853290F8864224F01F04DD
:103FF00080F8864280F8871290F8884224F07F0487
:1040000080F8884280F88912072480F88A4290F864
:104010008B4224F0030480F88B4280F88C3290F8B5
:104020008D3223F01F0380F88D3280F88E1290F8C5
:104030008F3223F07F0380F88F3280F8901280F85F
:10404000911290F8923223F0020343F0010380F8BA
:10405000923280F8931290F8943223F01F0380F884
:10406000943280F8951290F8963223F07F0380F80E
:10407000963280F8971280F8981290F8993223F0CF
:10408000020343F0010380F8993280F89A1290F805
:104090009B3223F0EE0343F0110380F89B3290F83B
:1040A0009C3223F0EE0343F0110380F89C3280F839
:1040B0009D1280F89E1290F89F3223F03F03083340
:1040C00080F89F3290F8A03223F007039B1C23F066
:1040D0003803183380F8A03290F8A13223F0070398
:1040E0001B1D23F03803283380F8A13290F8A23248
:1040F00023F007039B1D23F0400343F0380380F8AF
:10410000A23290F8A33223F00F035B1C23F0F003DC
:10411000103380F8A33280F8A42280F8A51280F82A
:10412000A61280F8A71280F8A81280F8A91280F8C9
:10413000AA1280F8AB1280F8AC1280F8AD1280F8A9
:10414000AE1280F8AF1280F8B01280F8B11280F889
:10415000B21280F8B31290F8B4224EF2070322F0A4
:10416000FF0280F8B42290F8B52222F07F0280F896
:10417000B52280F8B61280F8B71290F8B82222F073
:104180007F0280F8B82280F8B912A0F8BA1290F82D
:10419000BC2222F0070280F8BC22B0F8BC221A40F0
:1041A000A0F8BC22B0F8BE22304B6FF30802A0F892
:1041B000BE2290F8BF2222F0FE0280F8BF2290F8C3
:1041C000C02222F07F0280F8C022D0F8C0221A401C
:1041D000C0F8C02290F8C32222F0380280F8C3222F
:1041E00090F8C422224C22F01F0280F8C42280F8EA
:1041F000C51280F8C612B0F8C8226FF30902A0F801
:10420000C822D0F8C8222240C0F8C822A0F8CC1298
:10421000B0F8CE126FF30801A0F8CE1290F8CF12CA
:1042200021F0FE0180F8CF1290F8D01221F07F012A
:1042300080F8D012D0F8D0121940C0F8D01290F8FF
:10424000D31221F0380180F8D31290F8D41221F063
:10425000080180F8D41290F8D51221F07F012031A6
:1042600080F8D512012180F8D61230BD7F0000F809
:10427000FF0300E02DE9F04FFE48C9B00A2390F893
:10428000F41121F0050141F0020180F8F41132919E
:10429000002180F8F511A0F8F61180F8F811A0F8C7
:1042A000FA1190F8FC2122F08F0680F8FC6190F85A
:1042B000FD2122F0070280F8FD21189280F8FE31DE
:1042C000192280F8FF2180F8002280F8013280F85E
:1042D000023280F8032280F8042290F8052222F0AE
:1042E0000F02521D22F0F002503280F80522069291
:1042F00090F8062222F00F02521D22F0F0025032F6
:1043000080F80622059290F8072222F00F02521D33
:1043100022F0F002503280F80722049290F808222E
:1043200022F00F02521D22F0F002503280F80822D3
:10433000339290F8092222F00F02521D22F0F0026F
:10434000503280F80922039290F80A2222F00F02DC
:10435000521D22F0F002503280F80A22029290F8A8
:104360000B2222F00F02521D22F0F002503280F890
:104370000B22019280F80C1280F80D1280F80E12B8
:1043800080F80F1280F8101280F8111290F81212B3
:1043900021F01F0141F0E00180F81212269190F8FF
:1043A000131221F0100290F8221222F0E00241F0E4
:1043B000C00780F8227290F8231242F00F0541F0F6
:1043C0001F0180F8231280F8135290F8142222F073
:1043D0007F0280F814221D9290F8152222F0FF022D
:1043E00080F81522259290F8162222F0FF0280F81C
:1043F0001622934690F8172222F0010242F0FE04A2
:1044000080F8174290F8182222F0FF0280F8182254
:10441000289290F8192222F0FF0280F81922409287
:1044200090F81A2222F0FF0280F81A223B9290F8AC
:104430001B2222F00F0222F0F00280F81B221C92B5
:1044400090F81C2222F0FF0380F81C3290F81D2205
:1044500022F03F0280F81D222F9290F81E2222F0B7
:10446000FF0280F81E22379290F81F2222F0FF02EE
:1044700080F81F221F9290F8202222F0FF0280F87D
:1044800020222E9290F8212227F03F0722F0FF02EF
:1044900080F8212280F8227221F0800141F0600131
:1044A000149780F82312139190F8241221F0DF0161
:1044B00041F0200180F82412129190F8251221F089
:1044C000FF0180F82512249190F8261221F0FF01B7
:1044D00080F82612179190F8271221F0290141F057
:1044E000D60180F8271290F8287227F01F073F1D89
:1044F00027F0E007A03780F82872239790F82972F8
:1045000027F007077F1D27F03807283780F8297222
:104510003D9790F82A7227F007077F1D27F038078C
:1045200080F82A72279790F82B7227F0FF0780F8FF
:104530002B72169790F82C7227F0FF07A03780F89F
:104540002C72229790F82D7227F007077F1D27F015
:104550003807283780F82D72419790F82E7227F08F
:1045600007077F1D27F03807283780F82E72369707
:1045700090F82F7227F03F0780F82F72319790F84C
:10458000307227F01F0747F0600780F830723097CD
:104590004FF4C867A0F832724597B0F834726FF3E1
:1045A0000C070837A0F8347290F8357227F06007CE
:1045B000403727F0800780F835721E9790F83672E2
:1045C00027F0FF0780F83672BE4690F8377227F062
:1045D000F60747F0090780F83772BA4690F8387244
:1045E00027F01E0780F838721B9790F8397227F071
:1045F0009F0747F0400780F83972219790F83A7288
:1046000027F01E0747F00107083747F0E00780F85A
:104610003A72B94690F83B7247F01F0780F83B7238
:104620001A977F2780F83C7290F83D7227F0470771
:1046300047F0380780F83D7290F83EC22CF0070C26
:104640000CF1040C2CF0180C0CF1100C2CF0600C7C
:104650000CF1400C80F83EC2CDF8B4C090F83FC2D7
:104660002CF03F0C0CF1100C4CF0400C80F83FC2C9
:1046700002E00000087D0020CDF8B0C090F840C2F4
:104680004FF400782CF03F0C0CF1100C80F840C275
:10469000CDF8D0C090F841C22CF0070C0CF1060CFC
:1046A0002CF0380C0CF1180C2CF0C00C80F841C226
:1046B000CDF8ACC090F842C22CF0070C4CF0080CBE
:1046C00080F842C2B0F842C268F30D1CA0F842C2A2
:1046D000CDF80CC190F844C24FF000082CF0FF0C4C
:1046E00080F844C2CDF800C080F845824FF07F0CBE
:1046F000CDF8208080F846C290F847C22CF0170C05
:104700004CF0080C80F847C2CDF864C04FF4FA6C46
:10471000A0F848C24FF0780CA0F84AC24FF0790CCC
:10472000A0F84CC24FF07A0CA0F84EC2B0F850C2BC
:104730006FF30D0C0CF1820CA0F850C290F851C22E
:104740004CF0C00C80F851C2CDF81CC190F852C298
:104750002CF03D0C4CF0020C0CF1100C80F852C205
:10476000CDF8F0C04FF4486CA0F854C2CDF8F8C0B2
:1047700090F856C22CF03F0C80F856C2CDF8E8C035
:1047800090F857C22CF01F0C0CF1020C2CF0E00C2E
:104790000CF1600C80F857C2CDF808C1B0F858C2CF
:1047A0006FF30B0C0CF1030CA0F858C290F859C22F
:1047B0002CF0700C0CF1200C80F859C2CDF8E0C040
:1047C00090F85AC22CF0070C0CF1040C2CF0180CC9
:1047D00080F85AC2CDF8A8C04FF00A0CC0F85CC2ED
:1047E000D0F860C26FF3110C0CF10A0CC0F860C273
:1047F00090F862C22CF01C0C0CF1100C2CF0E00CA8
:1048000080F862C2CDF880C090F863C22CF0010C31
:104810004CF0020C80F863C2CDF818C14FF47A7CDA
:10482000A0F864C2CDF810C190F866C22CF07F0CDD
:1048300080F866C2CDF8A4C090F867C22CF0FF0CD7
:1048400080F867C2CDF8FCC090F868C22CF01F0C4D
:104850000CF1020C2CF0E00C0CF1600C80F868C23A
:10486000CDF8E4C090F869C22CF0030C80F869C25E
:10487000CDF8D4C04FF0150C80F86AC24FF0330C5D
:1048800080F86BC290F86CC22CF03F0C80F86CC2C0
:10489000CDF820C14FF0530C80F86FC2DDF8C8C0CE
:1048A0004FEACC7C4FEA1C68DDF8C8C0CCF3400C62
:1048B00008EB0C1CC0F800C0DDF8C8C0CCF3800CBD
:1048C0000CF5007CC0F804C04FF4407CC0F808C070
:1048D0004FF4806CC0F80CC04FF4A06CC0F810C04E
:1048E0004FF4C06CC0F814C04FF4406CC0F818C04E
:1048F0004FF4506CC0F81CC04FEAC67C4FEA5C6CA9
:104900004FEAD6180CEB481C0CF10A0C0CF0FF0C0B
:104910000CF5803CC0F820C0DDF818C04FEA0C1838
:10492000DDF8CCC008EB1C1CDFF8008B0CF0FF0C92
:10493000C444C0F824C04FF00008C5F3001C08EBC5
:104940008C08DDF874C0CCF3C10CC444DFF8E08AF5
:10495000C444C0F828C0CBF3800C4FEA8C1CC4F3CD
:1049600040080CEB481CDDF8A0800CEB4808DDF893
:1049700070C0CCF3001CC4440CF0FF0C0CF5823C5E
:10498000C0F82CC0DDF8BCC0C3F3C008CCF3830C66
:104990000CEB081CDFF89C8AC444C0F830C04FEA16
:1049A000C21C4FEAD2180CEB8818DDF84CC0CCF3CF
:1049B000401C08EB4C18DDF898C0CCF3401C08EB09
:1049C0000C18DDF84CC04FEADC1C08EBCC08DDF815
:1049D00048C04FEA9C1C08EB4C08DDF85CC0CCF3E7
:1049E000001CC4440CF0FF0C0CF5833CC0F834C030
:1049F0004FEAD10C4FEACC18DDF88CC0CCF3820C16
:104A000008EB0C18DDF858C0CCF3C00C08EBCC0850
:104A1000DDF888C0CCF3820CC444DFF81C8A0CF0AB
:104A2000FF0CC444C0F838C0C6F3400C4FEA8C18E1
:104A3000DDF860C00CF0010C08EB4C1C0CF1190CFB
:104A40000CF0FF0C0CF5843CC0F83CC0DDF818C03D
:104A5000DDF80C8068F3030CDFF8E089C444C0F88B
:104A600040C04FF00008C5F3401C08EB8C08DDF88F
:104A700074C0CCF3411CC444DFF8C489C444C0F8FA
:104A800044C0CBF3C00C4FEA8C1CC4F380080CEB81
:104A90004818DDF8A0C04FEA1C1C08EB4C08DDF8F4
:104AA00070C0CCF3401CC4440CF0FF0C0CF5863CE9
:104AB000C0F848C0C3F3001CDFF888890CEB0C1C5D
:104AC000C444C0F84CC04FEA520C4FEACC18DDF891
:104AD00050C00CF0010C08EB8C18DDF850C04FEA08
:104AE000DC1C08EB4C18DDF898C0CCF3801C08EBFC
:104AF0000C18DDF848C00CF0010C08EBCC08DDF810
:104B000090C00CF0030C08EB4C08DDF85CC0CCF353
:104B1000401CC4440CF0FF0C0CF5873CC0F850C09E
:104B20004FEA111C4FEACC18DDF88CC04FEA5C1C30
:104B300008EB0C18DDF858C0CCF3001C08EBCC08CF
:104B4000DDF888C008EB5C1CDFF8FC880CF0FF0C7B
:104B5000C444C0F854C0C6F3800C4FEA8C18DDF88A
:104B600060C0CCF3400C08EB4C1C0CF1190C0CF0A1
:104B7000FF0C0CF5883CC0F858C0DDF814C04FEAB3
:104B80000C18DDF80CC008EB1C1CDFF8C0880CF01A
:104B9000FF0CC444C0F85CC04FF0000C4FEA9518FD
:104BA0000CEB8808DDF894C00CF0030CC444DFF86B
:104BB000A088C444C0F860C0CBF3001C4FEA8C1C32
:104BC000C4F3C0080CEB481CDDF800810CEB48086E
:104BD000DDF870C008EB9C1C0CF0FF0C0CF58A3C57
:104BE000C0F864C0C3F3401C4FEA0C18DDF8DCC009
:104BF00008EB1C1CDFF85C88C444C0F868C04FEAAE
:104C0000920C4FEACC18DDF850C0CCF3400C08EB06
:104C10008C18DDF84CC00CF0010C08EB4C18DDF8DA
:104C200098C04FEADC1C08EB0C18DDF848C0CCF348
:104C3000400C08EBCC08DDF890C0CCF3810C08EBFD
:104C40004C08DDF85CC008EB9C1C0CF0FF0C0CF56C
:104C50008B3CC0F86CC04FEA511C4FEACC18DDF811
:104C6000F4C00CF0070C08EB0C18DDF858C0CCF3BE
:104C7000401C08EBCC08DDF804C10CF0070CC44460
:104C8000DFF8D4870CF0FF0CC444C0F870C0C6F342
:104C9000C00C4FEA8C18DDF860C0CCF3800C08EB38
:104CA0004C1C0CF10A0C0CF0FF0C0CF58C3CC0F801
:104CB00074C0DDF814C0DDF8088068F3030CDFF879
:104CC0009C87C444C0F878C04FF0000C4FEAD51858
:104CD0000CEB8808DDF894C0CCF3810CC444DFF8F9
:104CE0008087C444C0F87CC0CBF3401C4FEA8C1CC6
:104CF000C4F300180CEB4818DDF800C14FEA1C1C87
:104D000008EB4C08DDF870C008EBDC1C0CF0FF0C65
:104D10000CF58E3CC0F880C0DDF87CC04FEA9318DB
:104D200068F31F1CDFF83C87C444C0F884C04FEA16
:104D3000D20C4FEACC18DDF850C0CCF3800C08EB55
:104D40008C18DDF84CC0CCF3400C08EB4C1C05F083
:104D500001080CEB0818DDF848C0CCF3800C08EB18
:104D6000CC08DDF890C04FEA1C1C08EB4C08DDF8BD
:104D70005CC008EBDC1C0CF0FF0C0CF58F3CC0F8A1
:104D800088C04FEA911C4FEACC18DDF8F4C0CCF390
:104D9000C20C08EB0C18DDF858C04FEA9C1C08EB5D
:104DA000CC08DDF804C1CCF3C20CC444DFF8B886EB
:104DB0000CF0FF0CC444C0F88CC0C6F3001C4FEAD2
:104DC0008C18DDF860C0CCF3C00C08EB4C1C0CF167
:104DD0000A0C0CF0FF0C0CF5903CC0F890C0DDF80C
:104DE00010C04FEA0C18DDF808C008EB1C1CDFF8F7
:104DF0007C860CF0FF0CC444C0F894C0DDF87480CD
:104E00004FF0000C08F001080CEB8808DDF894C0A6
:104E100008EB1C1CDFF85886C444C0F898C04FEA61
:104E20009B1C4FEA8C1CC4F340180CEB481CDDF8AB
:104E3000EC800CEB480C03F00108C4440CF0FF0CB0
:104E40000CF5923CC0F89CC04FEAD31C4FEA0C18FA
:104E5000DDF87CC008EB1C1CDFF81886C444C0F8E1
:104E6000A0C04FEA121C4FEACC18DDF850C0CCF3BA
:104E7000C00C08EB8C18DDF84CC0CCF3800C08EBB0
:104E80004C1CC5F340080CEB0818DDF848C0CCF307
:104E9000C00C08EBCC08DDF890C04FEA9C1C08EB76
:104EA0004C0C01F00108C4440CF0FF0C0CF5933CD1
:104EB000C0F8A4C0DDF89CC021F07F080CF0070CFE
:104EC00008EB0C18DDF858C04FEADC1C08EBCC08E6
:104ED000DDF8D8C00CF0070CC444DFF89C850CF05A
:104EE000FF0CC444C0F8A8C0C6F3401C4FEA8C189D
:104EF000DDF860C0CCF3001C08EB4C1C0CF1190C65
:104F00000CF0FF0C0CF5943CC0F8ACC0DDF810C000
:104F1000DDF8048068F3030CDFF86085C444C0F852
:104F2000B0C0DDF874804FF0000CC8F340080CEB03
:104F30008808DDF894C008EB9C1CDFF84485C44465
:104F4000C0F8B4C04FEADB1C4FEA8C1CC4F38018D5
:104F50000CEB4818DDF8ECC04FEA1C1C08EB4C0CBD
:104F6000C3F34008C4440CF0FF0C0CF5963CC0F8A9
:104F7000B8C0DDF8BCC00CF00108DDF8B8C068F3BB
:104F80001F1CDFF80085C444C0F8BCC04FEA521CA7
:104F90004FEACC18DDF850C0B609CCF3001C08EB82
:104FA0008C18DDF84CC0C3F38003CCF3C00C08EBC5
:104FB0004C1CC5F380080CEB0818DDF848C0CCF396
:104FC000001C08EBCC08DDF85CC00CF0030C08EB0F
:104FD0004C0CC1F34008C4440CF0FF0C0CF5973C9A
:104FE000C0F8C0C0DDF88CC04FEACC18DDF89CC01A
:104FF000CCF3C20C08EB0C18DDF888C00CF0010CE7
:1050000008EBCC08DDF8D8C0CCF3C20CC444DFF800
:1050100078840CF0FF0CC444C0F8C4C04FEA861C6E
:10502000189EC6F340160CEB46161936F6B206F576
:10503000983640F8C86F339E4FEA061C019E0CEB71
:105040001616DFF848C4F6B266444660269E4FEA5C
:10505000C60C1D9EC6F380060CEB860C0BF00306F7
:105060006644DFF82CC4F6B266448660E607760E26
:10507000E40906EB44161C9C04F00F0406EB440400
:105080002344DBB203F59A33C3602F9B9209C3F329
:1050900040031C012E9BC1F3800104EB1313FD4C54
:1050A00023440361D301149AC2F3401203EB821329
:1050B000139AC2F3001203EB4212C5F3C00302EBD2
:1050C0000313129A520903EBC203179AC2F3810227
:1050D00003EB42021144C9B201F59B3141612399AE
:1050E0004908CA01169901F0070102EB0112229941
:1050F000C1F3400102EBC102319901F007011144F3
:10510000E54AC9B2114481613199C1F3C1014A0133
:105110003199C1F3401102EB0112309901F00F01F6
:105120001144C9B201F59C31C1613099C1F34112FA
:10513000C1F3001102EB8101D84A11440162D84940
:105140004162D74A4599FA3252FA81F140F8281F54
:10515000B0F84411C1F3042202F59E3240F8042F46
:10516000D04A52FA81F141601E99C1F3411101F513
:105170009F3181601E99C9090A010EF0010102EBFD
:10518000C102CEF3410102EB4102CEF3C001114452
:10519000C54A1144C1604FEA1E11CA01CEF3401145
:1051A00002EB81124FEA9E1102EB41124FEADE112F
:1051B00002EB01120AF0010102EBC102CAF3400145
:1051C00002EB8102CAF3800102EB4102CAF3C00183
:1051D0001144C9B201F5A03101614FEA1A11CA01A7
:1051E000CAF3401102EB81124FEA9A1102EB41120D
:1051F0001B9901F0010102EB01121B99C1F340015F
:1052000002EBC1021B99C1F3800102EB81021B99E1
:10521000C1F3C00102EB41021B99C1F3001111441B
:10522000A24AC9B211444161219901F00F0101F56F
:10523000A131816121994909CA012199890902EBAA
:1052400081122199C90902EB411209F0010102EB17
:105250000112C9F3400102EBC102C9F3800102EB64
:105260008102C9F3C1011144914AC9B21144C1611B
:105270004FEA5911CA01C9F3801102EB81124FEABA
:10528000D91102EB41121A9901F0010102EB01124E
:105290001A99C1F3400102EBC1021A99C1F38001CE
:1052A00002EB81021A99C1F3C00102EB41021A9983
:1052B000C1F300111144C9B201F5A23101627D4967
:1052C0004162F907890EC7F3400201EB0211C7F3EF
:1052D000800201EBC201C7F3C00201EB8201C7F3F8
:1052E00000121144C7F340121144C9B201F5A331B1
:1052F0008162B909CA012D9901F0070102EB01127F
:105300002D99C1F3C10102EB81022D99C1F3411125
:105310001144694AC9B21144C1622C99C1F3C20255
:1053200001F0070102EBC10101F5A43101632C99E1
:10533000C1F380118A01349901F0070102EBC10227
:105340003499C1F3C20111445C4AC9B211444163AA
:105350002B99C1F3C20201F0070102EBC10101F573
:10536000A53181632B9921F03F0290F84E1101F095
:10537000010302EB4313C1F3400203EB0213C1F339
:10538000800203EBC202C1F3C00102EB8102439928
:10539000C1F3091102EB1121494AC9B21144C16399
:1053A0004399484AC1F3071101F5A63101640099F8
:1053B00011444164089A009962F3050101F5A7318F
:1053C00081644149C1641999C907CA0E1999C1F389
:1053D000400102EBC1021999C1F3800102EB810285
:1053E0001999C1F3C00102EB41021999C1F30011EF
:1053F0001144C9B201F5A831016534494165344908
:10540000816533493031C16532490166314988319E
:1054100041663149816630498731C1662F4940F87C
:10542000701FB0F8EC10C1F3052259E00001010033
:105430000003010000050100000701000009010050
:10544000000B0100000D0100000F01000011010020
:1054500000130100001501000017010000190100F0
:10546000001B0100001D0100001F010000210100C0
:105470000023010000250100002701000029010090
:10548000002B0100002D0100002F01000031010060
:105490000033010000350100003701000039010030
:1054A000063A0100003D0100003F010000410100FB
:1054B000004301007F450100004701000049010051
:1054C000004B0100004D01007F4F0100075101001A
:1054D000D052010078540100795601007A58010039
:1054E0008A4BC9B286331A4401F5AD31E0E9012196
:1054F000479921F03F023C9901F0010102EB411272
:105500003C99C1F383011144814AC9B211448160BD
:105510008049C1607F4A3E99F43252FA81F10161BB
:105520003A99C1F3C20201F0070102EBC10101F592
:10553000AF3141614299CA0002EB5111CAB27649BA
:10554000114440F8181FB0F8D810C1F3032202F537
:10555000B03240F8042F714A52FA81F14160389913
:1055600009094A012A9901F0070102EB81022A99EF
:10557000C1F3C00102EB41022A99C1F300111144A9
:10558000C9B201F5B13181606549C1604FF4B232F1
:105590000261644A0A2152FA81F140F8141F209AEC
:1055A000D0F8C810C2F38002C1F3014303EB8202BA
:1055B00002F5B33240F8042FC1F307225A4BC9B2A7
:1055C0001A4401F5B431C0E901212099C1F3C101A8
:1055D0004A012099C1F3411102EBC1022099C90986
:1055E00002EB8102469901F0010102EB41014F4AB1
:1055F000491C52FA81F1C16029994D4AC907490EE7
:1056000001F5B531C91C0161449952FA81F141613A
:105610002999C1F30212C1F3420102EBC10101F564
:10562000B63181613F990A0102EB1111414AC9B2B9
:105630001144C16139990A0102EB5111C9B201F556
:10564000B73101623C4941623B4958318162359929
:10565000C9074A0E3599C1F3400102EB4111374A9F
:105660001144C16236490163364941634899C9070B
:105670004A0F4899C1F3400102EB41024899C1F336
:105680008001114401F5C13181634899C1F3C00122
:105690008A004899C1F3001102EB41024899C1F315
:1056A00040111144284A114440F83C1FB0F894209E
:1056B00090F89610930B01F0010403EB4413C1F32F
:1056C000400403EB0413C1F3800403EBC403C1F3F0
:1056D000C00403EB4403C1F300142344DBB203F51D
:1056E000C23340F8043F194BC2F38712C1F3401193
:1056F0001A4401F5C431C0E901211549C1601549B9
:1057000001611549416149B0BDE8F08F7A58010047
:10571000005B01000C5C0100005F01000061010002
:1057200000630100006501000067010000690100DD
:10573000006B0100006D0100AA71010000730100FF
:10574000157C0100337D010000830100008501000C
:1057500000FD1F0000FE1F0053FF1F002DE9F14F49
:10576000FB4B2DED028B86B0DC8C1CB908980BF03E
:10577000E7FB04460021D984F64A19669FEDF68AB4
:10578000986F904202DC188D9D2817D9002058731D
:1057900083ED1E8AD865D87218730122C3E91902F5
:1057A000DA669873D8731874EC4D1867202258671E
:1057B0002A70C8352A709874587418851846994606
:1057C0005E7C1F6FDD6D1B7C827CD0F86CC0CDF8D9
:1057D00000C0D0F868C0CDF804C090F80FE090F891
:1057E0000EB0D0F864C0D0F87480CDF80CC090F83A
:1057F0000DA090F80CC0CDF810C090ED1E0A99F8DD
:105800000B000590002C76D00898405C7E281ED1B5
:10581000BAF1000F1BD100254FF0010ACF4A0595C0
:105820000495CDF804A02020CDF800A003951070B9
:10583000C832DFF81CC310700026B0EE480AAB4631
:10584000AE462B462F46A8462A46ACF82860089854
:10585000DFF808C3405CACF1E90C81460CF80500A8
:10586000BB48B9F13B0FB0F828C00CF1010CA0F80F
:1058700028C006D0B9F13D0F0CD0B9F13A0F09D0CC
:105880000EE0EEB9BAF1010F1AD101204FF0000A73
:10589000049012E0BBF1000F02D14FF0010B5A4609
:1058A000B9F12E0F03D0B9F1240F08D008E0BEF1F2
:1058B000000F05D126B94FF0010E012200E03BB1E7
:1058C000022D3ED9A548E9388078202802D038E05A
:1058D0000223F2E7A2BB022B33D2BBF1010F0BD0A4
:1058E0009E4A039E203A02F80690039820282DD263
:1058F000401C03902AE039E0BEF1000F03D1974A23
:10590000019E02F80690BEF1010F04D1934A009E59
:10591000C83202F80690BEF1000F03D0BEF1010FAD
:1059200008D013E00198C82810D2401C08F10108E3
:1059300001900BE00098C82808D2401C009005E0B8
:10594000FFE7022B02D10AB94F460123B84501D225
:10595000012B09D00026C82D00D26D1CC82900D209
:10596000491C0022641E4DE70126F4E7DFF8E091B0
:10597000C9E9175189F81160C9F8707089F81030B9
:105980000098C9F86C000198C9F87480C9F86800DB
:105990000398C9F8640089F8122089F80FE089F8A3
:1059A0000EB089F80DA0049989F80C1089ED1E0A33
:1059B000059889F80B00012943F097816749E93977
:1059C0000A787E2A03D140F0010089F80B000F46C7
:1059D000487899F80A10884205D199F80B0040F0F0
:1059E000020089F80B0099F80B00032843F03E8170
:1059F0005A485BA12038FAF782FC00287AD0574831
:105A00005AA12038FAF77BFC5A4E4FF480780028D0
:105A100071D0524858A12038FAF771FC00286BD099
:105A20004E4857A12038FAF76AFC00287ED04B4830
:105A300055A12038FAF763FC002878D0474854A1D4
:105A40002038FAF75CFC002872D0444852A1203874
:105A5000FAF755FC00286CD0404851A12038FAF7DD
:105A60004EFC002866D03D484FA12038FAF747FC8D
:105A7000002860D039484EA12038FAF740FC0028B1
:105A80005AD036484DA12038FAF739FC002854D0B6
:105A900032484DA12038FAF732FC00284ED02F486A
:105AA0004CA12038FAF72BFC002848D02B484CA1F9
:105AB0002038FAF724FC002842D028484BA120388F
:105AC000FAF71DFC00283CD024484BA12038FAF7F7
:105AD00016FC002836D021484AA12038FAF70FFCDE
